:100000000C941E0F0C943B0F0C943B0F0C943B0F65
:100010000C943B0F0C943B0F0C943B0F0C943B0F38
:100020000C943B0F0C943B0F0C94A5210C943B0FAC
:100030000C943B0F0C9417210C94211C0C943B0F37
:100040000C943B0F0C943B0F0C948E1E0C94C71E0B
:100050000C943B0F0C943B0F0C943B0F0C943B0FF8
:100060000C943B0F0C943B0F65177A179917AA173E
:10007000C217D817F61709182518431865188518D8
:10008000A518B618D618F818B419B419B419B419B3
:10009000B419B419B419B419B419B419B419B419F8
:1000A000B419B4190A1920192A193D1950196319DC
:1000B000B419B419B419B419B419B419B419B419D8
:1000C000B419B419B419B419B419B419B419761906
:1000D0009917801988199019F617A219496E766137
:1000E0006C6964204D5033547269676765722053A0
:1000F0006F756E6420436F6D6D616E64002850698A
:100100006E6720506F6E672042696720426F647986
:1001100020446F6F727329200D0A0028426F6479A2
:100120002055736520496E7465726661636520545D
:100130006F6F6C29200D0A0028426F647920557377
:1001400065204772697070657229200D0A00284287
:100150006F647920416C6C20446F6F727320676507
:10016000742053706F6F6B65642050616E656C73A3
:1001700029200D0A00285465737420416C6C2042BC
:100180006F64792050616E656C7329200D0A002818
:100190005574696C6974792041726D73204F706574
:1001A0006E20616E6420436C6F736529200D0A0018
:1001B000284D61726368696E6720416E74732050C8
:1001C000616E656C7329200D0A0028527974686D80
:1001D00069632050616E656C7329200D0A002853F5
:1001E000637265616D204E6F2050616E656C73297E
:1001F000200D0A002853657420746F2045786369C8
:1002000074656429200D0A002853657420746F20DA
:100210004177616B6529200D0A0028416C6C2070C4
:1002200069652070616E656C7320746F205243297C
:10023000200D0A002853657420746F205769646587
:10024000204177616B6529200D0A002853657420D1
:10025000746F20517569657429200D0A002844695E
:1002600073636F2044616E636529200D0A00284C7A
:10027000656961204D65737361676529200D0A000A
:100280002843616E74696E612044616E6365292044
:100290000D0A002853686F72742043697263756990
:1002A0007429200D0A002843616E74696E61204D27
:1002B00061726368696E6720416E747329200D0A4C
:1002C00000284F70656E20436C6F73652057617610
:1002D0006529200D0A0028466173742057617665F0
:1002E00029200D0A00285761766529200D0A00286B
:1002F00053637265616D29200D0A0028436C6F738A
:100300006520616C6C2070616E656C7329200D0A2C
:10031000002A2A496E76616C69642050616E656CB2
:1003200020436F6D6D616E640D0A002A2A496E7656
:10033000616C69642049324320436F6D6D616E6466
:100340000D0A00416C743220636F6D6D616E642C18
:1003500020666F727761726420746F20736C6176AF
:10036000650D0A00416C743120636F6D6D616E64C0
:100370002C206F757470757420746F20736F756E98
:10038000640D0A00536F756E6420636F6D6D616E4E
:10039000640D0A00446973706C617920636F6D6D40
:1003A000616E640D0A00485020636F6D6D616E646C
:1003B0000D0A00496E697469616C697A696E672E0D
:1003C0002E2E0D0A002A2A556E7265636F676E69BC
:1003D0007A656420436F6D6D616E64205374617241
:1003E00074204368617261637465720D0A000A0DBE
:1003F00073756172743220436F6D6D756E696361E0
:1004000074696F6E204F4B200A0D000A0D737561E1
:1004100072743120436F6D6D756E69636174696FBD
:100420006E204F4B200A0D00456E7465722070617E
:100430006E656C20636F6D6D616E642073746172A4
:1004400074696E67207769746820273A27200A0D3F
:10045000000A0D4D6172634475696E6F204D6173C2
:100460007465722076312E37200A0D004F4B0A0D2D
:10047000000F00D007D007D007D007D007D007D093
:1004800007D007D007D0070F00E803D007D007D068
:1004900007D007D007D007D007D007D0070F00D06C
:1004A00007E803D007D007D007D007D007D007D080
:1004B00007D0070F00D007D007E803D007D007D038
:1004C00007D007D007D007D0070F00D007D007D03C
:1004D00007E803D007D007D007D007D007D0070F11
:1004E00000D007D007D007D007E803D007D007D047
:1004F00007D007D0070F00D007D007D007D007D00C
:1005000007E803D007D007D007D0070F00D007D0E7
:1005100007D007D007D007D007E803D007D007D00F
:10052000070F00D007D007D007D007D007D007D0DB
:1005300007E803D007D0070F00D007D007D007D0B7
:1005400007D007D007D007D007E803D0070F00D0A7
:1005500007D007D007D007D007D007D007D007D0E3
:1005600007E8030F00D007D007D007D007D007D087
:1005700007D007D007D007D0070F00D007D007D08B
:1005800007D007D007D007D007D007D007E8030F60
:1005900000D007D007D007D007D007D007D007D0AA
:1005A00007E803D0070F00D007D007D007D007D047
:1005B00007D007D007E803D007D0070F00D007D037
:1005C00007D007D007D007D007E803D007D007D05F
:1005D000070F00D007D007D007D007D007E803D017
:1005E00007D007D007D0070F00D007D007D007D01B
:1005F00007E803D007D007D007D007D0070F00D0F7
:1006000007D007D007E803D007D007D007D007D01E
:1006100007D0070F00D007D007E803D007D007D0D6
:1006200007D007D007D007D0070F00D007E803D0C6
:1006300007D007D007D007D007D007D007D0070FC3
:1006400000E803D007D007D007D007D007D007D0E5
:1006500007D007D0070F00D007D007D007D007D0AA
:1006600007D007D007D007D007D007A08CFFFFFF27
:10067000FFFFFFFFFFFFFFFFFFFFFFFFFFFFFFFF8A
:10068000FF9808FFFFFFFFFFFFFFFFFFFFFFFFFFD8
:10069000FFFFFFFFFFFFFF0000FFFFFFFFFFFFFF68
:1006A000FFFFFFFFFFFFFFFFFFFFFFFFFF8200D005
:1006B0000714051405F40120034006C4099209E259
:1006C00004D0070000FFFFFFFFFFFFFFFFFFFFFF5A
:1006D000FFFFFFFFFFFFFFFFFF1400D007D007D091
:1006E00007D007D007D007D007D007D007D0072DF5
:1006F00000D007D007D007D007D007D007E803D035
:1007000007D007D0072D00D007D007D007D007D0DB
:1007100007D007E803E803D007D0072D00D007D0A3
:1007200007D007D007D007D007E803E803E803D0D5
:10073000072D00D007D007D007D007D007D007E893
:1007400003E803E803E8032D00D007D007D007D063
:1007500007D007D007E803E803E803D0072D00D04F
:1007600007D007D007D007D007D007E803E803D0A9
:1007700007D0072D00D007D007D007D007D007D06B
:1007800007E803D007D007D0072D00D007D007D047
:1007900007D007D007D007D007D007D007D0072D44
:1007A00000E803D007D007D007D007D007D007D084
:1007B00007D007D0072D00E803E803D007D007D003
:1007C00007D007D007D007D007D0072D00E803E8EF
:1007D00003E803D007D007D007D007D007D007D051
:1007E000072D00E803E803E803E803D007D007D0AB
:1007F00007D007D007D0072D00D007E803E803E8AB
:1008000003D007D007D007D007D007D0072D00D0DE
:1008100007D007E803E803D007D007D007D007D0F8
:1008200007D0072D00D007D007D007E803D007D0A6
:1008300007D007D007D007D0072D00D007D007D0AA
:1008400007D007D007D007D007D007D007D0072D93
:1008500000D007D007D007D007D007D007E803D0D3
:1008600007E803D0072D00D007D007D007D007D066
:1008700007D007D007D007D007D0072D00D007D06A
:1008800007D007D007D007D007D007E803D007E884
:10089000032D00D007D007D007D007D007D007D04E
:1008A00007D007D007D0072D00D007D007D007D03A
:1008B00007D007D007E803E803E803E8032D00D0DA
:1008C00007D007D007D007D007D007D007E803D05C
:1008D00007E8032D00D007D007D007D007D007D0F6
:1008E00007E803D007E803D0072D00D007D007D0D2
:1008F00007D007D007D007D007D007D007D0072DE3
:1009000000D007D007D007D007E803D007D007D022
:1009100007D007D0072D00D007D007D007D007D0C9
:1009200007D007D007D007D007D0072D00D007D0B9
:1009300007D007D007D007E803D007D007D007D0EB
:10094000072D00D007D007D007D007D007D007D099
:1009500007D007D007D0072D00E803E803E803E835
:1009600003E803E803D007D007D007D0072D00D055
:1009700007E803E803E803E803E803D007D007D05B
:1009800007D0072D00D007D007D007E803E803E819
:1009900003D007D007D007D0072D00D007D007D04D
:1009A00007D007D007D007D007D007D007D0072D32
:1009B00000D007E803D007E803D007D007D007D05E
:1009C00007D007D0072D00D007D007D007D007D019
:1009D00007D007D007D007D007D0072D00E803D0F5
:1009E00007E803D007D007D007D007D007D007D03B
:1009F000072D00D007D007D007D007D007D007D0E9
:100A000007D007D007D0072D00D007D007D007D0D8
:100A100007D007D007D007E803D007E8032D00D0A0
:100A200007D007D007D007D007D007E803D007E8E2
:100A300003D0072D00D007D007D007D007D007D0AC
:100A400007D007E803D007E8032D00D007D007D070
:100A500007D007D007D007D007D007D007D0072D81
:100A600000D007D007D007D007D007D007E803E8A9
:100A700003E803E8032D00D007D007D007D007D044
:100A800007D007D007E803D007E8032D00D007D030
:100A900007D007D007D007D007E803D007E803D076
:100AA000072D00D007D007D007D007D007D007D038
:100AB00007E803D007E8032D00D007D007D007D000
:100AC00007D007D007E803D007E803D0072D00D0F0
:100AD00007D007D007D007D007D007D007E803D04A
:100AE00007E8032D00E803D007E803D007E803D0A8
:100AF00007E803D007E803D0072D00D007D007D0C0
:100B000007D007D007D007D007D007D007D0072DD0
:100B100000D007D007D007D007D007D007E803D010
:100B200007E803D0072D00D007D007D007D007D0A3
:100B300007D007D007E803D007E8032D00D007D07F
:100B400007D007D007D007D007E803D007E803D0C5
:100B5000072D00D007D007D007D007D007D007D087
:100B600007E803D007E8032D00E803D007E803D027
:100B700007E803D007E803D007E803D0072D00D02B
:100B800007E803D007E803D007E803D007E803D05D
:100B900007E8032D00E803D007E803D007E803D0F7
:100BA00007E803D007E803D0072D00D007D007D00F
:100BB00007D007D007D007D007D007D007D0072D20
:100BC00000E803E803D007D007D007D007D007D04C
:100BD00007D007D0072D00D007D007E803E803D0DF
:100BE00007D007D007D007D007D0072D00D007D0F7
:100BF00007D007D007E803E803D007D007D007D015
:100C0000072D00D007D007D007D007D007D007D0D6
:100C100007D007D007D0072D00E803E803D007D09E
:100C200007E803E803D007D007E803E8032D00D066
:100C300007D007E803E803D007D007E803E803D0AC
:100C400007D0072D00E803E803D007D007E803E842
:100C500003D007D007E803E8032D00D007D007D062
:100C600007D007D007D007D007D007D007D0072D6F
:100C700000E803D007D007D007D007D007D007D0AF
:100C800007D007D0072D00D007D007D007D007D056
:100C900007D007D007D007D007D0072D00D007E82E
:100CA00003D007D007D007D007D007D007D007D090
:100CB000072D00D007D007D007D007D007D007D026
:100CC00007D007D007D0072D00E803E803E803D0DA
:100CD00007D007D007D007D007D007D0072D00D006
:100CE00007E803E803D007D007D007D007D007D024
:100CF00007D0072D00D007D007E803D007D007D0D2
:100D000007D007D007D007D0072D00D007D007D0D5
:100D100007D007D007D007D007D007D007D0072DBE
:100D200000D007D007D007D007D007D007E803D0FE
:100D300007E803D0072D00D007D007D007D007D091
:100D400007D007D007D007D007D0072D00D007D095
:100D500007D007D007D007D007D007E803D007E8AF
:100D6000032D00D007D007D007D007D007D007D079
:100D700007D007D007D0072D00D007D007D007D065
:100D800007D007D007E803D007E803D0072D00D02D
:100D900007D007D007D007D007D007D007E803D087
:100DA00007E8032D00D007D007D007D007D007D021
:100DB00007E803D007E803D0072D00D007D007D0FD
:100DC00007D007D007D007D007D007D007D0072D0E
:100DD00000E803D007E803D007E803D007E803D012
:100DE00007E803D0072D00D007D007D007D007D0E1
:100DF00007D007D007D007D007D0072D00D007E8CD
:100E000003D007E803D007E803D007E803D007E8DA
:100E1000032D00D007D007D007D007D007D007D0C8
:100E200007D007D007D0072D00E803E803E803E860
:100E300003E803E803E803E803E803E8032D00D030
:100E400007D007D007D007D007D007E803E803E8AA
:100E500003E8032D00E803E803E803E803E803E8F8
:100E600003D007D007D007D0072D00D007D007D078
:100E700007D007D007D007D007D007D007D007008A
:100E800000FFFFFFFFFFFFFFFFFFFFFFFFFFFFFF71
:100E9000FFFFFFFFFF1400D007D007D007D007D017
:100EA00007D007D007D007D007D0073200E803D01B
:100EB00007E803D007E803D007E803D007E803D02A
:100EC000073200D007E803D007E803D007E803D0D3
:100ED00007E803D007E8033200E803D007E803D0AF
:100EE00007E803D007E803D007E803D0073200D0B3
:100EF00007E803D007E803D007E803D007E803D0EA
:100F000007E8033200E803D007E803D007E803D07E
:100F100007E803D007E803D0073200D007E803D082
:100F200007E803D007E803D007E803D007E8033257
:100F300000E803D007E803D007E803D007E803D0B0
:100F400007E803D0073200D007E803D007E803D052
:100F500007E803D007E803D007E8033200E803D02E
:100F600007E803D007E803D007E803D007E803D079
:100F7000073200D007E803D007E803D007E803D022
:100F800007E803D007E8033200E803D007E803D0FE
:100F900007E803D007E803D007E803D0073200D002
:100FA00007E803D007E803D007E803D007E803D039
:100FB00007E8033200E803D007E803D007E803D0CE
:100FC00007E803D007E803D0073200D007E803D0D2
:100FD00007E803D007E803D007E803D007E80332A7
:100FE00000E803D007E803D007E803D007E803D000
:100FF00007E803D0073200D007E803D007E803D0A2
:1010000007E803D007E803D007E8033200E803D07D
:1010100007E803D007E803D007E803D007E803D0C8
:10102000073200D007E803D007E803D007E803D071
:1010300007E803D007E8033200E803D007E803D04D
:1010400007E803D007E803D007E803D0073200D051
:1010500007E803D007E803D007E803D007E803D088
:1010600007E8033200E803D007E803D007E803D01D
:1010700007E803D007E803D0073200D007E803D021
:1010800007E803D007E803D007E803D007E80332F6
:1010900000E803D007E803D007E803D007E803D04F
:1010A00007E803D0073200D007E803D007E803D0F1
:1010B00007E803D007E803D007E8033200E803D0CD
:1010C00007E803D007E803D007E803D007E803D018
:1010D000073200D007E803D007E803D007E803D0C1
:1010E00007E803D007E8033200E803D007E803D09D
:1010F00007E803D007E803D007E803D0073200D0A1
:1011000007E803D007E803D007E803D007E803D0D7
:1011100007E8033200E803D007E803D007E803D06C
:1011200007E803D007E803D0073200D007E803D070
:1011300007E803D007E803D007E803D007E8036413
:1011400000D007D007D007D007D007D007D007D0EE
:1011500007D007D0070000FFFFFFFFFFFFFFFFFFE3
:10116000FFFFFFFFFFFFFFFFFFFFFF1400D007D0CF
:1011700007D007D007D007D007D007D007D007D0B7
:10118000071400E803D007D007D007D007D007D056
:1011900007D007D007D0071400E803E803D007D032
:1011A00007D007D007D007D007D007D0071400E832
:1011B00003E803E803D007D007D007D007D007D053
:1011C00007D0071400E803E803E803E803D007D0DA
:1011D00007D007D007D007D0071400E803E803E8DA
:1011E00003E803E803D007D007D007D007D00714DF
:1011F00000E803E803E803E803E803E803D007D0C6
:1012000007D007D0071400E803E803E803E803E881
:1012100003E803E803D007D007D0071400E803E889
:1012200003E803E803E803E803E803E803D007D092
:10123000071400E803E803E803E803E803E803E829
:1012400003E803E803D0075000E803E803E803E8F5
:1012500003E803E803E803E803E803E8031400D025
:1012600007E803E803E803E803E803E803E803E822
:1012700003E8031400D007D007E803E803E803E815
:1012800003E803E803E803E8031400D007D007D01D
:1012900007E803E803E803E803E803E803E80314C6
:1012A00000D007D007D007D007E803E803E803E839
:1012B00003E803E8031400D007D007D007D007D015
:1012C00007E803E803E803E803E8031400D007D0C5
:1012D00007D007D007D007D007E803E803E803E802
:1012E000031400D007D007D007D007D007D007D00D
:1012F00007E803E803E8031400D007D007D007D0BD
:1013000007D007D007D007D007E803E8031400D0C0
:1013100007D007D007D007D007D007D007D007D015
:1013200007E8032800D007D007D007D007D007D0A0
:1013300007D007D007D007D0070000FFFFFFFFFF4F
:10134000FFFFFFFFFFFFFFFFFFFFFFFFFFFFFF0F9D
:1013500000D007D007D007D007D007D007D007D0DC
:1013600007D007D0070F00E803D007D007D007D079
:1013700007D007D007D007D007D0070F00D007E865
:1013800003D007D007D007D007D007D007D007D0A9
:10139000070F00D007D007E803D007D007D007D049
:1013A00007D007D007D0070F00D007D007D007E835
:1013B00003D007D007D007D007D007D0070F00D041
:1013C00007D007D007D007E803D007D007D007D051
:1013D00007D0070F00D007D007D007D007D007E805
:1013E00003D007D007D007D0070F00D007D007D011
:1013F00007D007D007D007E803D007D007D0070FE2
:1014000000D007D007D007D007D007D007D007E813
:1014100003D007D0070F00D007D007D007D007D0E0
:1014200007D007D007D007E803D0070F00D007D0B8
:1014300007D007D007D007D007D007D007D007E8DC
:10144000030F00D007D007D007D007D007D007D0B0
:1014500007D007D007D0070F00D007D007D007D09C
:1014600007D007D007D007D007D007E8030F00D078
:1014700007D007D007D007D007D007D007D007E89C
:1014800003D0070F00D007D007D007D007D007D070
:1014900007D007E803D007D0070F00D007D007D048
:1014A00007D007D007D007E803D007D007D0070F31
:1014B00000D007D007D007D007D007E803D007D067
:1014C00007D007D0070F00D007D007D007D007E814
:1014D00003D007D007D007D007D0070F00D007D020
:1014E00007D007E803D007D007D007D007D007D030
:1014F000070F00D007D007E803D007D007D007D0E8
:1015000007D007D007D0070F00D007E803D007D0D7
:1015100007D007D007D007D007D007D0070F00E8C3
:1015200003D007D007D007D007D007D007D007D007
:1015300007D0070F00D007D007D007D007D007D0BB
:1015400007D007D007D007D0070000FFFFFFFFFF3D
:10155000FFFFFFFFFFFFFFFFFFFFFFFFFFFFFF1E7C
:1015600000D00714051405F40120034006C40992B5
:1015700009E204D0073200E80314051405F4012041
:10158000034006C4099209E204D0073200D007C420
:10159000091405F40120034006C4099209E204D0AD
:1015A000073200D0071405C409F40120034006C423
:1015B000099209E204D0073200D00714051405D0BF
:1015C0000720034006C4099209E204D0073200D084
:1015D0000714051405D00766084006C4099209E2FD
:1015E00004D0073200D00714051405D0076608841C
:1015F00003C4099209E204D0073200D0071405148D
:1016000005D00720034006E8039209E204D0073220
:1016100000D00714051405D00720034006E803BCDA
:1016200002E204D0073200D00714051405F40120AB
:10163000034006E803BC026608D0073200D0071456
:10164000051405F40120034006E8039209E204E8CA
:10165000039600D00714051405F40120034006C4C6
:10166000099209E204D0070000FFFFFFFFFFFFFF20
:10167000FFFFFFFFFFFFFFFFFFFFFFFFFF1400D093
:101680000714051405F40120034006C4099209E279
:1016900004D007F401E803C409C409D007200340BB
:1016A00006E8039209E204D007F401E803C409C480
:1016B00009D0076608FFFFE803BC02FFFFFFFF2C0D
:1016C00001D00714051405D00720034006E8039253
:1016D00009E204D0072C01D00714051405F40120F9
:1016E000034006C4099209E204D0070000FFFFFF8F
:1016F000FFFFFFFFFFFFFFFFFFFFFFFFFFFFFFFFFA
:10170000FF1400D00714051405F40120034006C49B
:10171000099209E204D0079600E803C409C409D07D
:101720000720034006E8039209E204D0079600E888
:1017300003FFFFFFFFFFFF66088403FFFFBC026695
:1017400008D0073200E803FFFFFFFFFFFFFFFF4065
:1017500006FFFFFFFFE204D0073200E803FFFFFFB0
:10176000FFFFFFFFFF8403FFFFFFFF6608D0073284
:1017700000E803FFFFFFFFFFFFFFFF4006FFFFFF43
:10178000FFE204D0079600E80314051405FFFF20CC
:10179000034006FFFF9209E204D007C800D00714F7
:1017A000051405F40120034006C4099209E204D09F
:1017B000070000FFFFFFFFFFFFFFFFFFFFFFFFFF2F
:1017C000FFFFFFFFFFFFFF1400D00714051405F40F
:1017D0000120034006C4099209E204D0079600D014
:1017E0000714051405D00720034006C4099209E236
:1017F00004D0079600D00714051405F40120034017
:1018000006E8039209E204D0076E00D0071405141D
:1018100005D00720034006C4099209E204D0076EF0
:1018200000D00714051405F40120034006E80392D4
:1018300009E204D0075000D00714051405D0072092
:10184000034006C4099209E204D0075000D00714EF
:10185000051405F40120034006E8039209E204D0D0
:10186000073200D00714051405D00720034006C432
:10187000099209E204D0073200D00714051405F4D8
:101880000120034006E8039209E204D0078200D059
:101890000714051405D00720034006C4099209E285
:1018A00004D0078200D00714051405F4012003407A
:1018B00006E8039209E204D007C800D00714051413
:1018C00005F40120034006C4099209E204D0070090
:1018D00000FFFFFFFFFFFFFFFFFFFFFFFFFFFFFF17
:1018E000FFFFFFFFFF1400D00714051405F40120CB
:1018F000034006C4099209E204D0079600D00714F9
:10190000051405F40120034006E8039209E204D01F
:10191000079600D00714051405F40120034006E8DB
:1019200003BC02E204D0071400D00714051405F428
:101930000120034006E803BC026608D0071400D06B
:101940000714051405F40120034006E803BC02E275
:1019500004D0071400D00714051405F40120034037
:1019600006E803BC026608D0071400D0071405146B
:1019700005F40120034006E803BC02E204D007148A
:1019800000D00714051405F40120034006E803BC49
:10199000026608D0071900D00714051405F40120C9
:1019A000034006E803BC02E204D0071400D0071489
:1019B000051405F40120034006E803BC02E204D04C
:1019C00007AF00D00714051405F40120034006E812
:1019D000039209E204D007FA00D00714051405F4B5
:1019E0000120034006C4099209E204D0070000FF69
:1019F000FFFFFFFFFFFFFFFFFFFFFFFFFFFFFFFFF7
:101A0000FFFFFF1400D00714051405F40120034064
:101A100006C4099209E204D0079600D00714051401
:101A200005D00720034006C4099209E204D00796B6
:101A300000D00714051405D00766084006C40992B3
:101A400009E204D0070F00D00714051405D007667B
:101A5000088403C4099209E204D0070F00D00714D8
:101A6000051405D00766084006C4099209E204D0AF
:101A7000070F00D00714051405D00766088403C4B7
:101A8000099209E204D0070F00D00714051405D00D
:101A90000766084006C4099209E204D0070F00D087
:101AA0000714051405D00766088403C4099209E2E7
:101AB00004D0071400D00714051405D007660840A9
:101AC00006C4099209E204D007AF00D00714051438
:101AD00005D00720034006C4099209E204D007FAA2
:101AE00000D00714051405F40120034006C4099230
:101AF00009E204D0070000FFFFFFFFFFFFFFFFFF29
:101B0000FFFFFFFFFFFFFFFFFFFFFF1400D00714E1
:101B1000051405F40120034006C4099209E204D02B
:101B2000073200E803C409C409D00720034006E8CF
:101B3000039209E204D0070F00D00714051405F43E
:101B40000120034006C4099209E204D0070F00E80F
:101B500003C409C409D00720034006E8039209E240
:101B600004D0070F00D00714051405F4012003402A
:101B700006C4099209E204D0071400E803C409C4AA
:101B800009D00720034006E8039209E204D00714B5
:101B900000D00714051405F40120034006C409927F
:101BA00009E204D0070A00E803C409C409D00720E9
:101BB000034006E8039209E204D007FA00D00714B4
:101BC000051405F40120034006C4099209E204D07B
:101BD000070000FFFFFFFFFFFFFFFFFFFFFFFFFF0B
:101BE000FFFFFFFFFFFFFF1400D00714051405F4EB
:101BF0000120034006C4099209E204D0079600D0F0
:101C000007C409C409D00720034006E8039209E28B
:101C100004D0079600D007C409C409D00766088419
:101C200003E803BC026608D0072C01BC02C409C447
:101C300009D00766088403E803BC026608D00732AF
:101C400000BC0214051405D00766084006E803BC72
:101C500002E204D0073200BC02C409C409D00766FE
:101C6000088403E803BC026608D0073200BC02C443
:101C700009C409D00766084006E803BC02E204D0A4
:101C8000073200BC02C409C409D00766088403E80F
:101C900003BC026608D0074B00D007C409C409D0B2
:101CA0000766084006E803BC02E204D007FA00D049
:101CB0000714051405D00720034006E8039209E243
:101CC00004D007C800D00714051405F40120034010
:101CD00006C4099209E204D0070000FFFFFFFFFFDE
:101CE000FFFFFFFFFFFFFFFFFFFFFFFFFFFFFF14EF
:101CF00000D00714051405F40120034006C409921E
:101D000009E204D0079600D007C409C409F40120F1
:101D1000034006C4099209E204D0071E00D007144C
:101D2000051405F40120034006C4099209E204D019
:101D3000071E00D007C409C409F40120034006C4EB
:101D4000099209E204D0071E00D00714051405F417
:101D50000120034006C4099209E204D0071E00D006
:101D600007C409C409F40120034006C4099209E22A
:101D700004D007BE00D00714051405F40120034069
:101D800006C4099209E204D0070000FFFFFFFFFF2D
:101D9000FFFFFFFFFFFFFFFFFFFFFFFFFFFFFF0052
:101DA000C201000100110011000C0000E100000A56
:101DB0000025002500210000960000190039003997
:101DC000003600127A00001F0046004600440080E2
:101DD00070000022004D004D004A00004B0000360C
:101DE00000750075007200403800004A009C009C9D
:101DF000009900802500007200EC00EC00E900C0B2
:101E0000120000E900DA01DA01D70160090000D709
:101E100001B603B603B303B0040000B3036E076E4C
:101E2000076B072C010000DC0EC11DC11DBE1D6328
:101E300064696E6F70737578585B000011241FBE63
:101E4000CFEFD8E0DEBFCDBF12E0A0E0B1E0EEEF13
:101E5000F7E502C005900D92A238B107D9F725E049
:101E6000A2E8B2E001C01D92A531B207E1F70E94DD
:101E7000BC1A0C94FD2B0C940000CF93882391F195
:101E8000282F30E06623A1F0C9010197C62F49E150
:101E9000849FC00D1124F901E359FE4F8081F9019F
:101EA000EA57FD4F861710F480831DC060831BC066
:101EB000853080F4F901EA57FD4F80818F5F808380
:101EC000D901A359BE4F9C91981710F481E08083EB
:101ED000C08101C0C1E02150310989E1289FC00DB6
:101EE000112401C0C62F84E70E9405238C2FCF91B7
:101EF0000C9405231092D4021092D30281E08093B7
:101F000084020895109284021092D4021092D30297
:101F1000089580EB94E09093D4028093D302809153
:101F20008402809385021092840208958091850234
:101F30008093840208950C9405238A3030F488231A
:101F400011F06A3110F40C943D0F089523E330E052
:101F500040E050E061E070E080E090E00E94922379
:101F6000862F643110F481E017C06DEE680F633185
:101F700010F482E011C06BED680F683010F483E05C
:101F80000BC064ED680F653010F484E005C060EDAF
:101F9000680F643018F485E00C949D0F08958091CB
:101FA00084028823E1F08091D3029091D402892B9E
:101FB000B1F48091D3029091D402892B81F40E94D4
:101FC000A60F28EE33E040E050E068E572E080E0E4
:101FD00090E00E9492237093D4026093D3020895FC
:101FE0006FEF80E00C943D0F6EEF80E00C943D0F9E
:101FF000CF93C82F86E70E9405238C2FCF910C9496
:1020000005238091080185508B3F18F0109208013C
:1020100002C080930801809108010C94F80F209170
:102020000801253620F084E68093080109C084E683
:1020300090E0821B91090597B4F32B5F2093080170
:10204000809108010C94F80F82E3809308010C94AE
:10205000F80FE6E8F2E0119282E0EF38F807D9F7DE
:102060000E9424100E94F00F83ED92E00C94941BC8
:102070008EEF809308010C94F80F1092080180E015
:102080000C94F80F84E6809308010C94F80F0F93DA
:102090001F93CF93DF93EC01FC0101900020E9F73F
:1020A0003197E81BF90B8881843209F0CEC00E2FDE
:1020B000E250E33008F0C9C01981212F30E02053ED
:1020C00031092A30310598F40E94820F10530230F2
:1020D00031F0CE0102960E948725682F01C060E092
:1020E000812FDF91CF911F910F910C949D0F1F3481
:1020F00009F44FC000F5143409F47EC078F41D32A1
:1021000009F483C0133409F455C01B3209F09DC093
:10211000DF91CF911F910F910C9401101C3409F4A1
:1021200040C01D3409F487C0163409F08EC00E94E7
:10213000890F63E05DC0133609F44EC078F413359F
:1021400009F453C0173509F472C0123509F07DC087
:10215000DF91CF911F910F910C947A0F1D3609F4E6
:102160005AC048F4163609F070C0DF91CF911F9124
:102170000F910C943D10103709F453C0133709F038
:1021800064C00E94820FDF91CF911F910F910C9438
:10219000F40F0E94820FDF91CF911F910F910C9449
:1021A00038100E94890F61E087E00E943D0F80E3B4
:1021B00091E108C00E94890F65E088E00E943D0F10
:1021C00080EE95E19093D4028093D302DF91CF917A
:1021D0001F910F910C94960F0E94890F61E088E087
:1021E0000E943D0F8CE89AE0EDCF0E94890F61E0DC
:1021F00086E00E943D0FEACF0E94890F66E088E0EA
:102200000E943D0F80EB9AE9DDCFDF91CF911F91C6
:102210000F910C940F10DF91CF911F910F910C949F
:102220002410DF91CF911F910F910C9442100E94C6
:10223000820F62E003C00E94820F63E088E0DF91BA
:10224000CF911F910F910C943D0F8CED90E0DF9199
:10225000CF911F910F910C94671FFC01A281B38154
:102260009D012F5F3F4F8C919681915019F4918180
:10227000291B31093383228396832FB7F8949081E9
:10228000915090832FBF0895FC0110827583648361
:10229000738362834183478346830895FC01908161
:1022A00081819817B0F4A481B581CD0101966C931A
:1022B0002781215019F42181821B9109278395835D
:1022C00084839FB7F89480818F5F80839FBF81E074
:1022D000089580E00895FC0120812223E1F30C940D
:1022E0002D11FC012081222321F00E942D1190E06C
:1022F00008958FEF9FEF0895FC01208181E090E029
:10230000211102C080E090E008958093BC0082E338
:1023100090E09093D6028093D5028091BC0087FD17
:102320000DC08091D5029091D602892BB1F7809192
:10233000B900887F80938F0281E008958091B90071
:10234000887F80938F0280E0089580918F020895A6
:102350001092B90098E49093B800882311F0449A41
:10236000459A8FEF8093BB0084E08093BC0085ED9D
:1023700092E00C94941B1092BC00089584E9809321
:10238000BC0082E390E09093D6028093D5028091C6
:10239000BC0084FF0DC08091D5029091D602892B9C
:1023A000B1F78091B900887F80938F0281E0089512
:1023B0008091B900887F80938F0280E00895CF9349
:1023C000DF93D82FC62F84EA0E948511811116C091
:1023D00090918F02983011F0903181F48D2F880FF9
:1023E0008C2B8093BB0084E80E948511811106C06C
:1023F00080918F02C13031F4803431F00E94BE11DF
:1024000081E003C08831D1F780E0DF91CF9108955A
:102410008093BB0084E80E948511882321F00E94EC
:10242000BE1181E0089580918F028832C1F780E06B
:102430000895CF93DF93EC01662311F084E801C087
:1024400084EC0E948511882321F00E94BE1181E056
:1024500004C08091BB00888380E0DF91CF91089514
:10246000DF92EF92FF920F931F93CF93DF938B0135
:10247000F42EE22E6115710511F0411103C00E9486
:10248000BE1111C060E00E94DF1181110CC0D02E7E
:10249000C02FD12F8C2F8D198F1538F489910E9460
:1024A00008128823B9F381E004C0E1100E94BE1134
:1024B00080E0DF91CF911F910F91FF90EF90DF901F
:1024C0000895BF92CF92DF92EF92FF920F931F93E6
:1024D000CF93DF931F92CDB7DEB78B01C42E61156A
:1024E000710511F0411104C00E94BE1181E02CC0A1
:1024F00061E00E94DF118111F7CFB12CD12C81E076
:10250000C81AD108EB2CF12CEC14FD0474F460E033
:10251000CE0101960E9419128111E6CFF801EE0D4D
:10252000FF1D89818083B394EDCF61E0CE010196D8
:102530000E9419128111D8CFF801EE0DFF1D89817B
:1025400080830E94BE1180E00F90DF91CF911F9198
:102550000F91FF90EF90DF90CF90BF90089586E7A6
:1025600091E00E947B222FEF81EE94E02150804089
:102570009040E1F700C000008DE791E00E947B22CF
:102580002FEF89EF90E0215080409040E1F700C0AC
:1025900000000C94DB1CE7EDF2E081E0819392E017
:1025A000E13EF907D9F708958D3011F08A3021F412
:1025B0008AE00E94061F8DE00C94061F382FCB0185
:1025C00020919002E22FF0E0E351FD4F3D3049F4BD
:1025D0001082109290026DEE72E00E94B32581E0AD
:1025E00008953083203418F42F5F2093900280E008
:1025F0000895CF93DF93EC0180919102882321F01D
:1026000086EA93E00E94671FCE010E947B228DE044
:10261000DF91CF910C943E22CF93DF93EC01809118
:102620009102882321F084E993E00E94671FCE0184
:102630000E947B228DE0DF91CF910C943E22CF93BC
:10264000DF93EC0180919102882321F084E893E0EC
:102650000E94671FCE01DF91CF910C944710CF935A
:10266000DF93EC0180919102882321F084E693E0CE
:102670000E94671FCE0101960E9442238DE0DF91E8
:10268000CF910C940523CF93DF93EC0180919102BD
:10269000882321F084E693E00E94671FCE010E9408
:1026A0007B228DE0DF91CF910C943E22EF92FF923E
:1026B0000F931F93CF93DF9300D0CDB7DEB77C018C
:1026C0008B01DA018C918732E1F1883739F082325F
:1026D00009F05BC0FA0131969EEF2EC0CE01019643
:1026E0009F938F9383E891E09F938F934F5F5F4F0A
:1026F0005F934F930E940B260F900F900F900F90B7
:102700000F900F90811102C080E064C029813A814E
:102710002F3F310509F008F456C0F6CFD8012C91AF
:10272000D701A20FB11D8C93D8018C918F5F8C9330
:10273000882351F3915019F081918111EFCF81E0FD
:1027400049C0CE0101969F938F9386E891E09F93B5
:102750008F934F5F5F4F5F934F930E940B260F90B5
:102760000F900F900F900F900F90882369F2F8014F
:102770009081F701E90FF11D99819083D8019C9117
:102780009F5F9C93911126C0BFCFCE0101969F936E
:102790008F9389E891E09F938F935F934F930E946B
:1027A0000B260F900F900F900F900F900F90882393
:1027B00009F4AACF29813A81A90140585F4F4038D6
:1027C000514008F0A1CFF8019081F701E90FF11D08
:1027D0002083D4CF0F900F90DF91CF911F910F9155
:1027E000FF90EF90089521E00C9430120F931F9307
:1027F000CF93DF93CDB7DEB7C550D1400FB6F89475
:10280000DEBF0FBECDBF8C01CB5FDE4F1882C5503F
:10281000D1408CE290E0CD5FDE4F99838883C35036
:10282000D140623008F457C0F8018081863209F047
:1028300052C0C8010E947B228DE00E943E22BE0150
:102840006D5F7E4FC80101960E94A525009709F48F
:1028500042C08E010F5F1E4F1F930F932CE831E093
:102860003F932F939F938F930E940B26F801208113
:1028700031810F900F900F900F900F900F902F3F7E
:10288000310548F5182F022F27FD25C0112319F116
:10289000BE016D5F7E4F80E090E00E94A525AC01F7
:1028A000009749F0BE016B5F7E4FCE0101960E94FA
:1028B0005613182FEBCF112371F0CB5FDE4F4881F9
:1028C000C550D140442339F0BE016F5F7F4F802F48
:1028D0000E94F31308C080919202882321F08BE2BA
:1028E00093E00E94671FCB5FDE4F0FB6F894DEBF08
:1028F0000FBECDBFDF91CF911F910F9108951F9310
:10290000CF93DF9381110CC0CFE1D1E011E0699149
:102910007991812F0E94B41F1F5F1B30C1F72AC01D
:102920008B3068F4E82FF0E0EE0FFF1FE35EFE4F00
:1029300060817181DF91CF911F910C94B41F8B3016
:1029400061F4CBE2D1E017E069917991812F0E9487
:10295000B41F1F5F1B30C1F70DC08C3059F4CFE19D
:10296000D1E011E069917991812F0E94B41F1F5F1E
:102970001730C1F7DF91CF911F910895CF93DF9367
:10298000811116C0E7EDF2E0119282E0E13EF80716
:10299000D9F70E94281D85E491E00E94E01C62E0C6
:1029A0008DEA96E00E94F61CDF91CF910C941E1DDB
:1029B0008B30D0F4E82FF0E0EF012197DE01A9522F
:1029C000BD4F1C92EE0FFF1FE75FFE4F60817181CC
:1029D0000E94B41F82E390E09093E2028093E102B0
:1029E000CD51DD4F81E08883DF91CF9108958B3009
:1029F00050F4811102C00C94CB12E82FF0E0EA529F
:102A0000FD4F81E0808308951F93CF93DF938B3038
:102A1000D8F481110DC0C7EDD2E011E019926FEF2B
:102A20007FEF812F0E94B41F1F5F1B30B9F70CC0CE
:102A3000E82FF0E0EA52FD4F10826FEF7FEFDF9159
:102A4000CF911F910C94B41FDF91CF911F910895E6
:102A50008B3078F4811108C0E7EDF2E0119282E04A
:102A6000E13EF807D9F70895E82FF0E0EA52FD4F6C
:102A7000108208950E94DB1C86E791E00E947B2271
:102A80002FEF81EE94E0215080409040E1F700C0AC
:102A900000008DE791E00E947B222FEF89EF90E00C
:102AA000215080409040E1F700C00000089586E783
:102AB00091E00C947B228FE891E00C947B2286E9D4
:102AC00091E00C947B228DE991E00C947B220F9392
:102AD0001F93CF93DF93CDB7DEB727970FB6F89448
:102AE000DEBF0FBECDBF1F928F9384EA91E09F930C
:102AF0008F938E010F5F1F4F1F930F930E94E92545
:102B0000C8010E947B220F900F900F900F900F90A2
:102B10000F9027960FB6F894DEBF0FBECDBFDF91A2
:102B2000CF911F910F9108950F931F93CF93DF9330
:102B3000CDB7DEB727970FB6F894DEBF0FBECDBF77
:102B40001F928F938DEA91E09F938F938E010F5F79
:102B50001F4F1F930F930E94E925C8010E947B22FB
:102B60000F900F900F900F900F900F9027960FB629
:102B7000F894DEBF0FBECDBFDF91CF911F910F91B3
:102B800008950F931F93CF93DF93CDB7DEB72797A9
:102B90000FB6F894DEBF0FBECDBF1F928F9386EBAA
:102BA00091E09F938F938E010F5F1F4F1F930F93A1
:102BB0000E94E925C8010E947B220F900F900F9080
:102BC0000F900F900F9027960FB6F894DEBF0FBEB0
:102BD000CDBFDF91CF911F910F9108958FEB91E0C1
:102BE0000C947B220F931F93CF93DF93CDB7DEB767
:102BF00027970FB6F894DEBF0FBECDBF1F928F93FD
:102C000086EC91E09F938F938E010F5F1F4F1F9370
:102C10000F930E94E925C8010E947B220F900F901C
:102C20000F900F900F900F9027960FB6F894DEBF7D
:102C30000FBECDBFDF91CF911F910F9108950F93DC
:102C40001F93CF93DF93CDB7DEB727970FB6F894D6
:102C5000DEBF0FBECDBF1F928F938FEC91E09F938D
:102C60008F938E010F5F1F4F1F930F930E94E925D3
:102C7000C8010E947B222FEF80E792E02150804024
:102C80009040E1F700C000000F900F900F900F9060
:102C90000F900F9027960FB6F894DEBF0FBECDBFF2
:102CA000DF91CF911F910F91089588ED91E00E94DF
:102CB0007B222FEF81EE94E0215080409040E1F79D
:102CC00000C0000008958DE791E00C947B228EED0A
:102CD00091E00E947B222FEF81EE94E02150804012
:102CE0009040E1F700C0000084EE91E00E947B225A
:102CF0002FEF80E792E0215080409040E1F700C044
:102D0000000008958AEE91E00E947B222FEF83EC71
:102D100099E0215080409040E1F700C00000089504
:102D200081EF91E00E947B222FEF81EE94E0215011
:102D300080409040E1F700C0000087EF91E00E94E2
:102D40007B222FEF89EF90E0215080409040E1F707
:102D500000C0000008958EEF91E00E947B222FEFCB
:102D600081EE94E0215080409040E1F700C00000E7
:102D70000895CF93DF93EC0184E092E00E947B22E0
:102D8000CE010E947B228DE00E943E222FEF84E341
:102D90009CE0215080409040E1F700C00000DF91AE
:102DA000CF91089588E092E00E947B222FEF81EE80
:102DB00094E0215080409040E1F700C00000089569
:102DC00062E080E192E00C941F1364E083E192E002
:102DD0000C941F1362E088E192E00C941F1363E0EF
:102DE0008BE192E00C941F1363E08FE192E00C946E
:102DF0001F1362E083E292E00C941F1362E086E20C
:102E000092E00C941F1362E089E292E00C941F138D
:102E100062E08CE292E00C941F130F931F93CF9308
:102E2000DF93CDB7DEB727970FB6F894DEBF0FBE9E
:102E3000CDBF1F926F931F928F938FE292E09F936B
:102E40008F938E010F5F1F4F1F930F930E94E925F1
:102E5000F80101900020E9F7BF0161507109601B82
:102E6000710BC8010E941F130FB6F894DEBF0FBE8E
:102E7000CDBF27960FB6F894DEBF0FBECDBFDF9152
:102E8000CF911F910F91089562E087E392E00C9437
:102E90001F1362E08AE392E00C941F130F931F93B9
:102EA000CF93DF93CDB7DEB7A3970FB6F894DEBF0D
:102EB0000FBECDBF482F50E04A33510508F054C231
:102EC000FA01EC5CFF4F0C9498240E94281D85E4C5
:102ED00091E00E94E01C62E08DEA96E00E94F61C00
:102EE0000E941E1D80919102882309F459C28BEF24
:102EF00092E01CC069E081E097E10E94F61C85E445
:102F000091E00E94E01C0E94E0160E94551684E0A9
:102F10000E941F1684E00E9467150E941E1D80916A
:102F20009102882309F43CC28FEE92E00E94671F51
:102F300037C26DE08FE595E10E94F61C0E94ED1C02
:102F40000E941E1D80919102882309F429C285EEFA
:102F500092E0ECCF68E18FE493E10E94F61C0E94BE
:102F6000ED1C0E94671684E00E9467150E94EF1610
:102F70000E941E1D80919102882309F411C286EDE2
:102F800092E0D4CF66E18BE691E10E94F61C0E94AC
:102F9000ED1C85E00E94C1150E94F4160E941E1DC2
:102FA00080919102882309F4FBC181EC92E0BECFAD
:102FB0008FEA92E10E94D61C61E285E99EE00E94C0
:102FC000F61C85E491E00E94E01C0E94821681E1DB
:102FD0000E94C1150E94F9160E941E1D8091910247
:102FE000882309F4DDC186EA92E0A0CF66E08DE790
:102FF00096E10E94F61C81E391E00E94E01C0E9491
:103000001E1D80919102882309F4CAC183E992E0D0
:103010008DCF8FEA92E10E94D61C6AE589ED96E099
:103020000E94F61C0E94ED1C0E9403170E9482164B
:103030008EE20E9467150E941E1D809191028823D6
:1030400009F4AEC180E892E071CF0E94281D85E4AA
:1030500091E00E94E01C62E08DEA96E00E94F61C7E
:103060000E941E1D0E94EE150E94081782E20E9417
:1030700094150E94AB1680919102882309F490C1A7
:103080008EE692E053CF8FEA92E10E94D61C0E9416
:10309000ED1C6AE181E794E00E94F61C8DE392E06A
:1030A0000E94B9160E9482160E94D2160E94EA1649
:1030B00083E60E9467150E941E1D8091910288235D
:1030C00009F46EC18DE592E031CF0E94281D85E4A0
:1030D00091E00E94E01C62E08DEA96E00E94F61CFE
:1030E0000E941E1D0E943A150E945F150E944917FA
:1030F0000E94ED1C80E00E940415809191028823BB
:1031000009F44EC18BE492E011CF0E94281D85E4A2
:1031100091E00E94E01C62E08DEA96E00E94F61CBD
:103120000E941E1D0E943A150E9463150E944417BA
:103130000E94ED1C80E00E9404158091910288237A
:1031400009F42EC184E392E0F1CE81E08093DD02A8
:103150008093DE028093DF028093E00280919102EF
:10316000882309F41DC18AE192E0E0CE0E94281D67
:1031700085E491E00E94E01C62E08DEA96E00E9406
:10318000F61C0E941E1D0E943A150E945F150E94A7
:1031900044170E94ED1C80E00E940415809191026A
:1031A000882309F4FDC088E092E0C0CE0E94281D6B
:1031B00085E491E00E94E01C62E08DEA96E00E94C6
:1031C000F61C0E941E1D0E943A150E9463150E9463
:1031D0005B150E9444170E94ED1C80E00E940415BC
:1031E00080919102882309F4DBC084EF91E09ECEA8
:1031F0000E94E0160E94551683E00E94671583E046
:103200000E941F1680919102882309F4C9C08EED97
:1032100091E08CCE68E08FEE9CE10E94F61C89E57F
:1032200091E00E94E01C84E00E9467150E941E1D30
:1032300080919102882309F4B3C08FE891E076CEA3
:103240006CE087EE9BE10E94F61C89E591E00E940C
:10325000E01CECCF6AE08BE09BE10E94F61C83E966
:1032600092E00E94E01C0E941E1D80919102882322
:1032700009F496C08EE491E059CE6CE083E09AE1C7
:103280000E94F61C83E992E00E94E01C0E941E1D31
:1032900080919102882309F483C088E391E046CEAF
:1032A0006DE085EE98E10E94F61C83E992E00E94B1
:1032B000E01C0E941E1D80919102882309F470C0B9
:1032C0008BE191E033CE6DE087EC97E10E94F61C34
:1032D00083E992E00E94E01C0E941E1D80919102F1
:1032E000882309F45DC08DEF90E020CE69E081E095
:1032F00097E10E94F61C85E491E00E94E01C0DCE4F
:1033000068E18FE493E10E94F61C0E94ED1C30CE30
:1033100066E18BE691E10E94F61C0E94ED1C3ECE18
:1033200061E285E99EE00E94F61C85E491E00E943E
:10333000E01C0E941E1D80919102882389F180EB80
:1033400091E0F4CD6AE589ED96E00E94F61C0E94BA
:10335000ED1C80919102882321F08AEC91E00E947B
:10336000671F0E941E1D1CC01F928F938AE492E06B
:103370009F938F938E010F5F1F4F1F930F930E9498
:10338000E9250E94ED1C0F900F900F900F900F9069
:103390000F9080919202882319F0C8010E942E1F7D
:1033A000A3960FB6F894DEBF0FBECDBFDF91CF91CD
:1033B0001F910F9108951F93CF93DF93EC01CB01E1
:1033C0000E948725182F6DE672E0CE010E94AA2583
:1033D000892B51F48CE694E00E94671F812FDF91C6
:1033E000CF911F910C944E1760E772E0CE010E94BE
:1033F000AA25892B51F48CE694E00E94671F812F47
:10340000DF91CF911F910C947F1463E772E0CE019E
:103410000E94AA25892B51F48CE694E00E94671F34
:10342000812FDF91CF911F910C94BE1466E772E05B
:10343000CE010E94AA25892B51F48CE694E00E94CB
:10344000671F812FDF91CF911F910C94F71469E7CB
:1034500072E0CE010E94AA25892B51F48CE694E0FB
:103460000E94671F812FDF91CF911F910C9404154B
:103470006CE772E0CE010E94AA25892B51F48CE6FC
:1034800094E00E94671F812FDF91CF911F910C94D0
:10349000281580919202882339F081E193E0DF9131
:1034A000CF911F910C94671FDF91CF911F910895C9
:1034B000CF93DF9300D000D000D0CDB7DEB7FC01B2
:1034C000653049F0809192028823C9F081E193E050
:1034D0000E94671F14C080818A33A1F781818C8389
:1034E00082818D831E828381898384818A831B826A
:1034F000BE016F5F7F4FCE0104960E94DB192696B6
:103500000FB6F894DEBF0FBECDBFDF91CF91089507
:10351000FC01208101900020E9F7BF016150710991
:10352000681B790B611103C08CE694E022C026323F
:10353000C1F038F4243289F090F42132A1F40C94D3
:103540002F132A3331F0203431F02A3261F40C94F5
:10355000F9120C94581A0C940C130C941F130C941D
:1035600043130C94F61380919202882321F085EC8A
:1035700093E00C94671F0895CF93DF93CDB7DEB728
:10358000C154D1090FB6F894DEBF0FBECDBF0E9463
:10359000761E81E594E00E94671F83EB93E00E9412
:1035A000671F60E875E280E090E00E94D8218BE020
:1035B00094E00E9490220E943F200E94101C0E94D2
:1035C000CE1C81E00E94A81181EE92E00E94941B23
:1035D0003A9A429A8DE293E00E94941B62E08DEA4F
:1035E00096E00E94F61C0E941E1D60E875E280E0D5
:1035F00090E00E949F222FEF3BE782E9215030406C
:103600008040E1F700C000000E9429109AEAE6EE2F
:10361000F6E921E09150E040F0402040D9F7000069
:103620000E947A0F88E294E00E94671F88EB9BE07B
:1036300090932E0380932D0348EBC42E4BE0D42EA1
:1036400051E2A52EB12C0E94111F8823A9F0D0921F
:103650002E03C0922D030E94201F182F0E94D41207
:10366000BE016F5F7F4F812F0E94DE12882321F001
:10367000CE0101960E94881A0E94CF0F0E94F41F6B
:103680007C0137ED832E32E0932E03EE12E0772497
:103690007394F40161904F01F1E06F121EC027ECAA
:1036A000E21627E0F206ACF0F8018081811115C026
:1036B000872D0E94DB1F019681F060ED77E0872D5A
:1036C0000E94B41FB092E202A092E102F80160826F
:1036D00004C0B701872D0E94B41F73940F5F1F4F62
:1036E000FBE07F12D6CF8091E1029091E202892B1C
:1036F00009F0A9CF03EE12E091E0F80181918F016A
:10370000882371F06FEF7FEF892F22969FAF22976A
:103710000E94B41FF8013197108222969FAD229724
:103720009F5F9B3051F78FCFE8E3F3E020E030E07C
:1037300041915191452B49F4F901EE0FFF1FE85CCF
:10374000FC4F9183808381E008952F5F3F4F2A30A3
:10375000310571F780E00895E8E3F3E020E030E020
:10376000419151914817590749F4F901EE0FFF1F94
:10377000E85CFC4F1182108281E008952F5F3F4F7B
:103780002A30310569F780E00895209131033091A6
:103790003203232B79F02091330330913403232B10
:1037A00061F02091350330913603232B81F4E2E060
:1037B000F0E005C0E0E0F0E002C0E1E0F0E0EE0F94
:1037C000FF1FEF5CFC4F9183808381E0089580E0D0
:1037D000089520913103309132032817390789F079
:1037E00020913303309134032817390769F0209171
:1037F0003503309136032817390781F4E2E0F0E011
:1038000005C0E0E0F0E002C0E1E0F0E0EE0FFF1FF5
:10381000EF5CFC4F1182108281E0089580E00895F2
:103820003B9A84B5826084BD8FEC87BD16BCEEE602
:10383000F0E080818260808385B5846085BD789466
:1038400008951F920F920FB60F9211242F933F935A
:103850004F935F936F937F938F939F93AF93BF9398
:10386000CF93DF93EF93FF938091A802823040F4CF
:103870008FEC87BD8091A8028F5F8093A8027BC0E8
:1038800080ED87BD1092A80280914F039091500364
:1038900001969093500380934F0380914C03909135
:1038A0004D03019690934D0380934C03A8E3B3E03E
:1038B000ED91FD91309749F080819181892B29F01C
:1038C0008081918101979183808383E0AC34B80734
:1038D00079F7809137038F5F8093370380913703A7
:1038E000843611F4109237038091A7028F5F809382
:1038F000A702843661F580912F03909130030196E1
:103900009093300380932F031092A70280914E036F
:103910008F5F80934E0380914E038C33C1F41092DD
:103920004E03809151038F5F809351038091510327
:103930008C3369F410925103809152038F5F80930E
:10394000520380915203883111F4109252038091F6
:103950004E0380FF04C0439AC1E3D3E006C04398FE
:10396000FBCF83E0C733D80731F0E991F991309765
:10397000C1F30995F6CFFF91EF91DF91CF91BF9100
:10398000AF919F918F917F916F915F914F913F91F7
:103990002F910F900FBE0F901F9018958BE69DE111
:1039A0000E94C51B8DE793E00C94941B90936803D1
:1039B0008093670308951092680310926703089537
:1039C000EEEAF2E0DC012D913D91CD01219331939E
:1039D000B2E0E23CFB07B1F70895EEEAF2E01192A3
:1039E000119282E0E23CF807D1F70895CF93DF937C
:1039F0001092AC021092AD029093AB028093AA0297
:103A00006093A902C0E0D0E08C2F8F5F0E94DB1F83
:103A10009E01220F331FF901ED5AFC4F91838083E1
:103A200080819181F901E759FC4F91838083219630
:103A3000CA30D10549F7DF91CF9108951092AD02B8
:103A400081E08093AC02089581E08093AC020895F8
:103A50001092AC0210927E0310927D03E0916703F6
:103A6000F0916803309709F0099408959091A902A4
:103A7000891710F48093AD0208950F931F93CF938D
:103A8000DF938C0126E1629F000D111D11240E5F52
:103A90001F4FC0E0D0E08C2F8F5FF801259134914B
:103AA000FE01EE0FFF1FE759FC4F31832083208179
:103AB00031812F3F3F4F21F46FEF7FEF0E94B41F02
:103AC00021960E5F1F4FCA30D10529F7DF91CF91A4
:103AD0001F910F910895EF92FF920F931F93CF9331
:103AE000DF938091AC02882309F4BEC08091AA02C2
:103AF0009091AB02892B09F4B7C00EEA12E0C0E046
:103B0000D0E0F801619171918F01AE01440F551F12
:103B1000DA01A759BC4F2D913C911197FA01ED5A4A
:103B2000FC4F80819181281B390B99F18C2F8F5F7D
:103B30006115710529F0E080F180EF20E09459F4DF
:103B4000FA01E759FC4F20813181FA01ED5AFC4F0F
:103B5000318320831AC01216130644F462177307C8
:103B60006CF420813181260F371F0AC026173707D2
:103B70002CF420813181261B370B02C02D913C9102
:103B800031832083FA01ED5AFC4F608171810E94DC
:103B9000B41F2196CA30D10509F0B3CF80917D03BF
:103BA00090917E03892B09F05FC06091AD02709106
:103BB000A902462F50E0272F30E021503109809193
:103BC000AA029091AB0242175307BCF40E943D1D1C
:103BD0002091AD02E091AA02F091AB0286E1289F0C
:103BE000E00DF11D11248591949190937E038093B3
:103BF0007D032F5F2093AD0237C0FC0126E1729F49
:103C0000E00DF11D11247697259134916FEF670F28
:103C1000232B99F40E943D1D1092AC021092AD022C
:103C2000E0916703F09168033097F1F0DF91CF9155
:103C30001F910F91FF90EF9009940E943D1D80917C
:103C4000A902E6E18E9FC00111244697E091AA02E5
:103C5000F091AB02E80FF91F8591949190937E0348
:103C600080937D031092AD02DF91CF911F910F9150
:103C7000FF90EF900895CF93CFB79C0140E050E0C4
:103C800084E0220F331F441F551F8A95D1F760E04F
:103C900074E284EF90E00E94572421503109309360
:103CA000C5002093C400F8941092C00088E9809366
:103CB000C10086E08093C2008091C6008091C00060
:103CC00087FDFACF80EC8093C000CFBF789440E4AA
:103CD0006FE773E087EC93E00E9444114FEF6FECC5
:103CE00073E08FEB93E0CF910C94441180E895E260
:103CF0000C943B1E80E895E20E943B1E84E2809378
:103D0000C2000895E1ECF0E080818068808308952E
:103D1000E1ECF0E080818F77808308951F920F920D
:103D20000FB60F9211242F938F939F93EF93FF93CE
:103D30002091C6009091C7038091C8039817E8F4BA
:103D4000E091CB03F091CC03CF0101962083209129
:103D5000CE03215021F42091C803821B91092093A6
:103D6000CE039093CC038093CB039FB7F8948091BC
:103D7000C7038F5F8093C7039FBFFF91EF919F9110
:103D80008F912F910F900FBE0F901F9018951F923B
:103D90000F920FB60F9211242F933F938F939F93FF
:103DA000EF93FF938091BF03882301F1E091C1035A
:103DB000F091C203CF01019630812091C5032150BB
:103DC00021F42091C003821B91099093C203809338
:103DD000C1032093C5039FB7F8948091BF0381501E
:103DE0008093BF039FBF3093C60005C08091C10080
:103DF0008F7D8093C100FF91EF919F918F913F91B3
:103E00002F910F900FBE0F901F901895682F8FEB7A
:103E100093E00E944E11E1ECF0E09081906290837B
:103E2000089587EC93E00E947C1108958FEB93E056
:103E30000E947C1121E0892B09F020E0822F089557
:103E400087EC93E00E947111089587EC93E00E9443
:103E50007111089587EC93E00C946B11FF920F930E
:103E60001F93CF93DF938C01F12CE801CF0DD11D6F
:103E70008881882361F08FEFF81649F00E94161FA1
:103E80008823E1F388810E94061FF394EECFDF912F
:103E9000CF911F910F91FF9008950F931F93CF9390
:103EA000DF93EC0101E010E0FE01E10FF11D8081E4
:103EB000882339F01F3F29F00E94061F08231F5F47
:103EC000F3CF802FDF91CF911F910F9108951F9312
:103ED000CF93DF93EC01FE011491112349F00E946E
:103EE000161F8823E1F3812F0E94061F2196F3CF2E
:103EF000DF91CF911F9108958AE08093C20280E202
:103F00009EE49093850080938400EFE6F0E080814A
:103F1000816080837894E1E8F0E080818260808332
:103F20000895CF93DF93E8EFF4E0CBEED4E021E007
:103F300030E0A191B1914C91C901099002C0880F64
:103F4000991F0A94E2F7809584238C9385E0EC30E6
:103F5000F80779F780916F008E7F80936F00109241
:103F60008100DF91CF9108959FEF980F9A3010F55F
:103F7000E82FF0E077FF09C0EE0FFF1FE453FB4F7F
:103F80008FEF9FEF918380830895653C89E07807E8
:103F90003CF4643F81E078072CF464EF71E002C0E8
:103FA00064EC79E0EE0FFF1FE453FB4F660F771FC1
:103FB0007183608308959FEF980F9A3078F4E82F0B
:103FC000F0E0EE0FFF1FE453FB4F808191818F3FA4
:103FD0002FEF920731F096958795089580E090E055
:103FE00008958FEF9FEF08958091F7048A3040F095
:103FF0008FEF9FEF90931405809313059FEF089523
:104000008091F704811115C08091E604882389F01E
:10401000809111059091120597FD01969C013595AF
:10402000279530931405209313051092E604C901D7
:1040300008958091130590911405089580B78B7FA2
:1040400080BFE1E8F0E080818F778083EFE6F0E0E9
:1040500080818F7D808320981092EA041092E90479
:104060001092E8041092E704109210051092F704E1
:104070008FEF9FEF90931405809313050895CF93CE
:10408000DF93EEECF4E08FEF9FEF8193919324E0C8
:10409000E63EF207D1F78BE290E09093F90480932B
:1040A000F8049093FB048093FA049093FD048093AA
:1040B000FC049093FF048093FE0490930105809389
:1040C000000585E290E090930305809302059093AC
:1040D000050580930405909307058093060590934A
:1040E00009058093080590930B0580930A0590932A
:1040F0000D0580930C0590930F0580930E0532E01B
:104100003093EB0423E02093EC0494E09093ED04CF
:1041100085E08093EE0446E04093EF0441E0409355
:10412000F0043093F1042093F2049093F30480930D
:10413000F4048BE08093F5048CE08093F604CBEEDE
:10414000D4E0E8EFF4E021E030E0A191B1914C91AE
:10415000C901099002C0880F991F0A94E2F780955F
:1041600084238C9385E0EC30F80779F7CBEED4E02C
:10417000E8EFF4E021E030E0A191B1914E91C90166
:10418000099002C0880F991F0A94E2F7482B4C93BC
:1041900085E0EC30F80781F780916F008E7F809387
:1041A0006F008AE08093C2021092800080E29EE459
:1041B00090938500809384000E941E20DF91CF9110
:1041C0000C947C1FE1E8F0E0808180648083B59AE4
:1041D00010921005EFE6F0E0808180628083089500
:1041E00080916F008F7D80936F00809110058823F0
:1041F000A1F01092F7048091E7049091E8042091D7
:10420000E9043091EA04821B930B9093120580938A
:10421000110581E08093E60408958091F7048B30C6
:1042200028F48091F7048F5F8093F70408951F921C
:104230000F920FB60F9211242F933F934F935F93DA
:104240006F937F938F939F93AF93BF93EF93FF935E
:104250008091C2028A3028F00E94F0201092C2029F
:104260001FC0E091C202F0E0EE0FFF1FE850FB4FCD
:10427000A081B1812C91E091C202F0E0E551FB4FA9
:1042800081E090E0008002C0880F991F0A94E2F755
:10429000809582238C938091C2028F5F8093C202AB
:1042A0008091C2028A3048F080E29EE490938500BB
:1042B000809384000E94E22037C0E091C202F0E0C7
:1042C000EE0FFF1FE253FB4F80819181019631F188
:1042D000E091C202F0E0EE0FFF1FE850FB4FA0811B
:1042E000B1812C91E091C202F0E0E551FB4F81E0F9
:1042F00090E0008002C0880F991F0A94E2F7282BF3
:104300002C93E091C202F0E0EE0FFF1FE253FB4F4F
:104310008081918191958195910902C08CE09EEFF9
:104320009093850080938400FF91EF91BF91AF91AE
:104330009F918F917F916F915F914F913F912F91BD
:104340000F900FBE0F901F9018951F920F920FB6EF
:104350000F9211248F939F93F8948091810086FF90
:104360000FC080918600909187009093EA0480931B
:10437000E904809181008F7B80938100B59A10C001
:1043800080918600909187009093E8048093E704E1
:1043900081E08093100580916F008F7D80936F0086
:1043A00078949F918F910F900FBE0F901F9018954A
:1043B0000F931F931092D2021092D1021092D0024A
:1043C0001092CF021092CE021092CD021092CC0227
:1043D0001092CB02389A409AAFE9BDE140E050E03C
:1043E000FD010591159125913491061717072807AE
:1043F000390709F039C08CE0849FF001859FF00DEA
:104400001124ED55F24E859194919093D2028093B0
:10441000D1028CE0849FF001859FF00D1124EB55B3
:10442000F24E859194919093D0028093CF028CE0CC
:10443000849FF001859FF00D1124E955F24E85917E
:1044400094919093CE028093CD028CE0849FF001F2
:10445000859FF00D1124E755F24E8591949190932C
:10446000CC028093CB0207C04F5F5F4F1C964C304D
:10447000510509F0B5CF1F910F9108952091CB02FE
:104480003091CC02232B09F435C05FB7F8944098E3
:10449000E091CB02F091CC02359620E031972FEFDE
:1044A000EF3FF207D9F728E030E091E060E0492FD4
:1044B000482311F0409A01C04098E091CB02F0915E
:1044C000CC02462F31974FEFEF3FF407D9F7990F02
:1044D000215031092115310551F7409A5FBF789479
:1044E0008091CB029091CC0220E001972FEF8F3F7B
:1044F0009207D9F708951F93CF93DF93EC0110E053
:10450000FE01E10FF11D8081882331F01F3F21F072
:104510000E943E221F5FF4CFDF91CF911F9108953B
:10452000CF93DF93FC018491EF012196882321F042
:104530000E943E22FE01F7CFDF91CF9108950F93A5
:104540001F931092CA021092C9021092C8021092D0
:10455000C7021092C6021092C5021092C4021092B5
:10456000C302399A419AAFE9BDE140E050E0FD0154
:1045700005911591259134910617170728073907DA
:1045800009F039C08CE0849FF001859FF00D112463
:10459000ED55F24E859194919093CA028093C90291
:1045A0008CE0849FF001859FF00D1124EB55F24EB5
:1045B000859194919093C8028093C7028CE0849F68
:1045C000F001859FF00D1124E955F24E85919491EB
:1045D0009093C6028093C5028CE0849FF001859F72
:1045E000F00D1124E755F24E859194919093C402F9
:1045F0008093C30207C04F5F5F4F1C964C3051053C
:1046000009F0B5CF1F910F9108952091C302309109
:10461000C402232B09F435C05FB7F8944198E091A8
:10462000C302F091C402359620E031972FEFEF3F9F
:10463000F207D9F728E030E091E060E0492F482305
:1046400011F0419A01C04198E091C302F091C40277
:10465000462F31974FEFEF3FF407D9F7990F2150CD
:1046600031092115310551F7419A5FBF7894809146
:10467000C3029091C40220E001972FEF8F3F920771
:10468000D9F708951F93CF93DF93EC0110E0FE015B
:10469000E10FF11D8081882331F01F3F21F00E943E
:1046A00005231F5FF4CFDF91CF911F910895CF9322
:1046B000DF93FC018491EF012196882321F00E9471
:1046C0000523FE01F7CFDF91CF91089561157105A4
:1046D0008105910511F00C947E250895CF93DF9309
:1046E00000D000D0CDB7DEB79B01AC0161157105DC
:1046F0008105910569F069833A834B835C830E944D
:10470000792529813A814B815C810E94792403C0FB
:1047100060E070E0CB010F900F900F900F90DF9151
:10472000CF910895CF92DF92EF92FF926B017C01BF
:10473000621773078407950764F4CA01B9016C19FD
:104740007D098E099F090E946E236C0D7D1D8E1DB3
:104750009F1DFF90EF90DF90CF9008954F925F9252
:104760006F927F92AF92BF92CF92DF92EF92FF92C1
:104770000F931F93CF93DF93CDB7DEB729013A0193
:10478000621B730B840B950B29893A894B895C89D1
:104790002A193B094C095D09298B3A8B4B8B5C8BA1
:1047A0009B01AC0169897A898B899C890E94332499
:1047B000E418F50806091709A80197010E94792451
:1047C0002A0D3B1D4C1D5D1DCA01B901DF91CF9122
:1047D0001F910F91FF90EF90DF90CF90BF90AF901F
:1047E0007F906F905F904F900895009711F00C9418
:1047F0001F250895CF93DF93EC01009731F00E94BD
:104800001A25BE010E94432402C080E090E0DF919F
:10481000CF910895CF93DF93EC01861797073CF46F
:10482000CB018C1B9D0B0E94FA238C0F9D1FDF91E7
:10483000CF9108950F931F93FC01E61BF70B021B0A
:10484000130BE09FC001E19F900DF09F900D11248C
:10485000461B570BBA010E944324CB01820F931FC2
:104860001F910F910895DB018F939F930E949E24C7
:10487000BF91AF91A29F800D911DA39F900DB29FFC
:10488000900D1124089597FB072E16F4009407D07D
:1048900077FD09D00E94A92407FC05D03EF490952D
:1048A00081959F4F0895709561957F4F0895A1E27E
:1048B0001A2EAA1BBB1BFD010DC0AA1FBB1FEE1F9A
:1048C000FF1FA217B307E407F50720F0A21BB30BE5
:1048D000E40BF50B661F771F881F991F1A9469F761
:1048E00060957095809590959B01AC01BD01CF01BD
:1048F0000895052E97FB1EF400940E94902457FD06
:1049000007D00E94572407FC03D04EF40C94902447
:1049100050954095309521953F4F4F4F5F4F0895EB
:1049200090958095709561957F4F8F4F9F4F08951B
:10493000EE0FFF1F0590F491E02D09940E94BD2415
:10494000A59F900DB49F900DA49F800D911D1124E3
:104950000895AA1BBB1B51E107C0AA1FBB1FA617C6
:10496000B70710F0A61BB70B881F991F5A95A9F718
:1049700080959095BC01CD010895A29FB001B39F91
:10498000C001A39F700D811D1124911DB29F700D58
:10499000811D1124911D08958F929F92AF92BF9215
:1049A000CF92DF92EF92FF92CF93DF93EC01688179
:1049B00079818A819B81611571058105910521F4B9
:1049C00064E279ED8BE597E02DE133EF41E050E0D3
:1049D0000E94792449015A019B01AC01A7EAB1E484
:1049E0000E949E246B017C01ACEEB4EFA501940102
:1049F0000E94C12BC60ED71EE81EF91EF7FE06C088
:104A000081E0C81AD108E10880E8F80AC882D98292
:104A1000EA82FB82C6019F77DF91CF91FF90EF90F2
:104A2000DF90CF90BF90AF909F908F9008950E949D
:104A3000CC24089580E091E00E94CC240895A0E069
:104A4000B0E08093000190930101A0930201B09324
:104A5000030108958F929F92AF92BF92CF92DF92FF
:104A6000EF92FF92CF93DF93EC01688179818A8185
:104A70009B81611571058105910521F464E279ED51
:104A80008BE597E02DE133EF41E050E00E9479247F
:104A900049015A019B01AC01A7EAB1E40E949E249E
:104AA0006B017C01ACEEB4EFA50194010E94C12B17
:104AB000C60ED71EE81EF91EF7FE06C081E0C81A12
:104AC000D108E10880E8F80AC882D982EA82FB822C
:104AD000C701B6019F77DF91CF91FF90EF90DF90F4
:104AE000CF90BF90AF909F908F9008950E942A25FD
:104AF000089584E091E00E942A25089560930401BE
:104B00007093050180930601909307010895FC01BD
:104B100088279927E89421912032E9F3293010F071
:104B20002E30C8F32B3241F02D3239F4689404C092
:104B30000E94E125820F911D219120532A30C0F35C
:104B40001EF4909581959F4F089542E852E00E948F
:104B5000BA250895FB01DC018D91019080190110A7
:104B6000D9F3990B0895FB01DC0101900D9200200F
:104B7000E1F70895FA01A191B081009719F4109717
:104B8000E1F0CD01DC01CD010D90002011F4C00158
:104B900013C0FB012191222319F02015D9F7F3CF7F
:104BA000FB012191201519F41E92119606C02223B3
:104BB000C1F70D900020A1F7D001FA01A193B083B5
:104BC00008957AE0979F902D879F802D910D112455
:104BD0000895AEE0B0E0EFEEF5E20C94D42B0D8931
:104BE0001E8986E08C831A8309838FEF9FE79E835B
:104BF0008D83AE01475E5F4F6F89788DCE01019640
:104C00000E942426EF81F885E00FF11F10822E9676
:104C1000E4E00C94F02BAEE0B0E0E1E1F6E20C94BD
:104C2000D62B85E08C838B899C899A838983AE01FE
:104C3000495E5F4F6D897E89CE0101960E9474297D
:104C40002E96E2E00C94F22BACE0B0E0EAE2F6E261
:104C50000C94C62B7C016B018A01FC011782168221
:104C6000838181FFBDC1CE0101964C01F701938183
:104C7000F60193FD859193FF81916F01882309F4DB
:104C8000ABC1853239F493FD859193FF81916F011A
:104C9000853229F4B70190E00E94122BE7CF512C06
:104CA000312C20E02032A0F48B3269F030F48032D5
:104CB00059F0833269F420612CC08D3239F0803391
:104CC00039F4216026C02260246023C0286021C0FE
:104CD00027FD27C030ED380F3A3078F426FF06C0A4
:104CE000FAE05F9E300D1124532E13C08AE0389EE7
:104CF000300D1124332E20620CC08E3221F426FD9B
:104D00006BC1206406C08C3611F4206802C088365E
:104D100041F4F60193FD859193FF81916F0181111B
:104D2000C1CF982F9F7D9554933028F40C5F1F4F6F
:104D3000FFE3F9830DC0833631F0833771F083359B
:104D400009F05BC022C0F801808189830E5F1F4F8C
:104D500044244394512C540115C03801F2E06F0EE5
:104D6000711CF801A080B18026FF03C0652D70E0A2
:104D700002C06FEF7FEFC5012C870E94C92A2C016A
:104D800083012C852F77222E17C03801F2E06F0E99
:104D9000711CF801A080B18026FF03C0652D70E072
:104DA00002C06FEF7FEFC5012C870E94BE2A2C0145
:104DB0002C852068222E830123FC1BC0832D90E0CC
:104DC00048165906B0F4B70180E290E00E94122B19
:104DD0003A94F4CFF50127FC859127FE81915F017C
:104DE000B70190E00E94122B31103A94F1E04F1A73
:104DF00051084114510471F7E5C0843611F0893629
:104E000039F5F80127FF07C06081718182819381A4
:104E10000C5F1F4F08C060817181882777FD8095E6
:104E2000982F0E5F1F4F2F76B22E97FF09C09095D7
:104E30008095709561957F4F8F4F9F4F2068B22E60
:104E40002AE030E0A4010E945D2BA82EA81844C0DF
:104E5000853729F42F7EB22E2AE030E025C0F22FCC
:104E6000F97FBF2E8F36C1F018F4883579F0B4C0C1
:104E7000803719F0883721F0AFC02F2F2061B22E74
:104E8000B4FE0DC08B2D8460B82E09C024FF0AC06B
:104E90009F2F9660B92E06C028E030E005C020E1C3
:104EA00030E002C020E132E0F801B7FE07C06081C7
:104EB0007181828193810C5F1F4F06C06081718177
:104EC00080E090E00E5F1F4FA4010E945D2BA82E92
:104ED000A818FB2DFF77BF2EB6FE0BC02B2D2E7F03
:104EE000A51450F4B4FE0AC0B2FC08C02B2D2E7ECF
:104EF00005C07A2C2B2D03C07A2C01C0752C24FF01
:104F00000DC0FE01EA0DF11D8081803311F4297E70
:104F100009C022FF06C07394739404C0822F867860
:104F200009F0739423FD13C020FF06C05A2C73149C
:104F300018F4530C5718732C731468F4B70180E2FB
:104F400090E02C870E94122B73942C85F5CF73145C
:104F500010F4371801C0312C24FF12C0B70180E3D0
:104F600090E02C870E94122B2C8522FF17C021FF76
:104F700003C088E590E002C088E790E0B7010CC06C
:104F8000822F867859F021FD02C080E201C08BE2B9
:104F900027FD8DE2B70190E00E94122BA51438F492
:104FA000B70180E390E00E94122B5A94F7CFAA94A5
:104FB000F401EA0DF11D8081B70190E00E94122BEF
:104FC000A110F5CF332009F451CEB70180E290E073
:104FD0000E94122B3A94F6CFF7018681978102C086
:104FE0008FEF9FEF2C96E2E10C94E22B20FD09C09D
:104FF000FC0123FD05C022FF02C07383628351833D
:105000004083089544FD10C046FD10C0DB01FC0143
:10501000AA0FBB1FEE1FFF1F1094D1F76A0F7B1F53
:105020008E1F9F1F31E003C033E001C034E0660FE4
:10503000771F881F991F3150D1F7620F711D811D95
:10504000911D08950F931F93CF93DF938C01C80197
:105050000E94D42AEC0197FD08C00E94AB2A892B3C
:10506000B1F7B801CE010E94442BCE01DF91CF9160
:105070001F910F9108958F929F92AF92CF92DF92DE
:10508000EF92FF920F931F93CF93DF93EC01A62E25
:105090004A01022F0E94D42AAC0155274B325105F8
:1050A00021F04D32510551F40068AA9411F480E0CA
:1050B00067C0CE010E94D42A97FDF9CF102F1D7F23
:1050C000302F307301F58033F1F4FF24FA94FA0C99
:1050D00009F442C0CE010E94D42A97FD3DC0382F6A
:1050E0003F7D383551F41264AA94AA94A9F1CE01F7
:1050F0000E94D42A97FF07C02FC006FF02C012608B
:1051000001C01261AF2CC12CD12C760120ED280FEB
:10511000283080F014FF04C0BE010E94442B19C047
:105120002A3040F016FFF8CF2F7D3FEE320F363099
:1051300098F72750412FC701B6010E9402286B0142
:105140007C011260AA9459F0CE010E94D42A97FFE4
:10515000DDCF11FD04C0ABCFC12CD12C760117FFE0
:1051600008C0F094E094D094C094C11CD11CE11C00
:10517000F11C212FB701A601C4010E94F62781E08E
:10518000DF91CF911F910F91FF90EF90DF90CF9023
:10519000AF909F908F900895A1E2B0E0E2EDF8E229
:1051A0000C94CB2B5C017A018E010F5F1F4F6801BD
:1051B00080E2D8011D928A95E9F7F501738040E0FD
:1051C00050E0812CB0E0912C81E090E0F90173FC7B
:1051D000A59173FEA1918F017A2F9F01A11103C0A8
:1051E00080E090E07DC0AE3519F44115510559F1CC
:1051F000E92DF0E0E417F5073CF4AD3569F1AD3287
:1052000019F4BB2319F103C0B11101C08A2EE72F95
:10521000E695E695E69586010E0F111DF801A72F7C
:10522000A7708C0102C0000F111FAA95E2F7D801E8
:10523000B081BA2BB083781559F0781510F47F5FE0
:10524000E6CF7150E4CF9924939403C0B1E001C03C
:10525000B0E04F5F5F4FBACFBB2319F08E81806201
:105260008E83911003C09924939415C0F601CE014A
:105270008196208120952193E817F907D1F7F3CF84
:10528000E114F10429F0D7018C93F70131967F01E5
:10529000615001F1912CC50169A30E94D42A69A132
:1052A00097FD16C0282F269526952695F601E20F24
:1052B000F11D208130E0AC014770552702C03595C3
:1052C00027954A95E2F720FDDBCFB5010E94442BDC
:1052D000911086CFE114F10411F0D7011C92C8019E
:1052E000A196EDE00C94E72B4F925F927F928F9204
:1052F0009F92AF92BF92CF92DF92EF92FF920F9365
:105300001F93CF93DF931F92CDB7DEB78C012B0194
:105310007A01FC0117821682A12CF801D380F201D8
:10532000D3FC8591D3FE8191382F2F01882309F476
:10533000FCC090E039830E94AB2A3981892B21F08F
:10534000C8010E942228E9CF353241F4F201D3FC92
:105350003591D3FE31912F01353269F4C80139837B
:105360000E94D42A398197FDDEC03817B1F2B80106
:105370000E94442BDAC03A3241F4D3FC3591D3FE7B
:1053800031912F01BB24B39401C0B12C712C20EDBD
:10539000230F2A3090F4FB2DF260BF2E672D70E0B2
:1053A00080E090E040E20E940228762EF201D3FCD9
:1053B0003591D3FE31912F01EACFB1FE03C07110B8
:1053C00003C0B3C077247A94383619F03C3661F0C4
:1053D00014C0F201D3FC3591D3FE31912F01383640
:1053E00061F4FB2DF860BF2E8B2D8460B82EF20186
:1053F000D3FC3591D3FE31912F01332309F495C0AD
:10540000632F70E08FE29EE139830E94B32A3981D5
:10541000892B09F48AC0B0FC07C0F701C080D18095
:10542000C70102967C0102C0C12CD12C3E3651F43A
:10543000F8014681578160E070E02B2DC6010E9483
:10544000F6276BCF3336A1F4B1FC02C077247394F6
:10545000C8010E94D42A97FD66C0C114D10429F066
:10546000F6018083C60101966C017A9489F757C0D2
:105470003B3559F49201A601672DC8010E94CC2842
:105480002C01009709F04BC045C0C80139830E9428
:105490002228398197FD47C03F3669F128F4343618
:1054A00031F1393679F12BC0333769F03537F9F0FE
:1054B00026C0C114D10429F0F6018082C6010196EC
:1054C0006C017A9471F0C8010E94D42A4C0197FDB6
:1054D00008C00E94AB2A892B61F3B801C4010E9465
:1054E000442BC114D104D9F0F601108218C0FB2D51
:1054F000F062BF2E07C08B2D8061B82E03C09B2D9C
:105500009064B92E2B2DA601672DC8010E943B285F
:10551000811105C0F8018381807329F406C0B0FCB5
:10552000FCCEA394FACEAA2019F08A2D90E002C0F6
:105530008FEF9FEF0F90DF91CF911F910F91FF9011
:10554000EF90DF90CF90BF90AF909F908F907F9023
:105550005F904F90089591110EC1803219F08950DB
:105560008550D0F70895FC010590061621F0002023
:10557000D9F7C00108953197CF010895FC01059036
:10558000615070400110D8F7809590958E0F9F1F45
:105590000895FC016150704001900110D8F780958A
:1055A00090958E0F9F1F0895CF93DF93EC012B8171
:1055B00020FF33C026FF0AC02F7B2B838E819F8163
:1055C00001969F838E838A8190E029C022FF0FC0BD
:1055D000E881F9818081992787FD9095009719F4DA
:1055E00020622B831AC03196F983E8830EC0EA85C6
:1055F000FB85099597FF09C02B81019611F480E185
:1056000001C080E2822B8B8308C02E813F812F5FF7
:105610003F4F3F832E83992702C08FEF9FEFDF918B
:10562000CF9108950F931F93CF93DF93182F092FD6
:10563000EB018B8181FD03C08FEF9FEF20C082FFC4
:1056400010C04E815F812C813D81421753077CF44D
:10565000E881F9819F012F5F3F4F398328831083B1
:1056600006C0E885F985812F0995892B29F72E81B8
:105670003F812F5F3F4F3F832E83812F902FDF91FC
:10568000CF911F910F910895FB01238120FF12C03C
:1056900026FD10C08F3F3FEF930761F082832F7D7F
:1056A0002064238326813781215031093783268363
:1056B000992708958FEF9FEF0895FA01AA272830C0
:1056C00051F1203181F1E8946F936E7F6E5F7F4FCF
:1056D0008F4F9F4FAF4FB1E03ED0B4E03CD0670F4B
:1056E000781F891F9A1FA11D680F791F8A1F911D9E
:1056F000A11D6A0F711D811D911DA11D20D009F4EE
:1057000068943F912AE0269F11243019305D31932F
:10571000DEF6CF010895462F4770405D4193B3E018
:105720000FD0C9F7F6CF462F4F70405D4A3318F0BF
:10573000495D31FD4052419302D0A9F7EACFB4E070
:10574000A6959795879577956795BA95C9F7009728
:105750006105710508959B01AC010A2E06945795C9
:10576000479537952795BA95C9F7620F731F841F20
:10577000951FA01D0895992788270895B7FF0C94B9
:105780009E240E949E24821B930B08952F923F9289
:105790004F925F926F927F928F929F92AF92BF9241
:1057A000CF92DF92EF92FF920F931F93CF93DF93ED
:1057B000CDB7DEB7CA1BDB0B0FB6F894DEBF0FBE4A
:1057C000CDBF09942A88398848885F846E847D8497
:1057D0008C849B84AA84B984C884DF80EE80FD8099
:1057E0000C811B81AA81B981CE0FD11D0FB6F8940F
:0E57F000DEBF0FBECDBFED010895F894FFCFD0
:1057FE00010000000100000032D00714051405F46A
:10580E000120034006C4099209E204D007E803C44C
:10581E0009C409D00766088403E803BC026608E8D9
:10582E00030900090009000900090009000900091F
:10583E0000090009000F000F000F000F000F000FEE
:10584E00000F000F000F000F0019001900190019AA
:10585E000019001900190019001900190013120778
:10586E000403191919192A483030300D00403054EC
:10587E00310D002578002563002564002575002A6A
:10588E004F4E30300D002A535430300D002A524402
:10589E0030300D002A4630253032640D002A463154
:1058AE00253032640D002A4830253032640D002A2E
:1058BE00524330310D002A4D4F253032640D002AEF
:1058CE004D46253032640D00403054350D004030C9
:1058DE0054320D00403057340D0040305439320DE3
:1058EE0000403054340D0040305731300D00403000
:1058FE0054360D0040334D004033543130300D00DE
:10590E002453002432313300244400243334002441
:10591E00333600246300244600244300244C002424
:10592E0025316425326400245200247300535441FF
:10593E00522057415253202020002853657175651F
:10594E006E63652025303264206E6F7420696D7031
:10595E006C656D656E74656429200D0A00534500F3
:10596E004F5000434C00524300535400484400052E
:02597E00000027
:00000001FF
