:100000000C947E0C0C949B0C0C949B0C0C949B0CF1
:100010000C949B0C0C949B0C0C949B0C0C949B0CC4
:100020000C949B0C0C949B0C0C942E1F0C949B0C0E
:100030000C949B0C0C94A01E0C94AA190C949B0C71
:100040000C949B0C0C949B0C0C94171C0C94501C43
:100050000C949B0C0C949B0C0C949B0C0C949B0C84
:100060000C949B0C0C949B0CBD14D214F11407152A
:100070001F153515531570158C15AA15CC15EC15D3
:100080000C161D163D165F1671168E16A916CB1688
:100090003D173D173D173D173D173D173D173D17C0
:1000A0003D173D173D173D173D173D173D173D17B0
:1000B0003D173D173D173D173D173D173D173D17A0
:1000C0003D173D173D173D173D173D173D17ED16E1
:1000D000F716FF1607170F1721172B17496E7661B2
:1000E0006C6964204D5033547269676765722053A0
:1000F0006F756E6420436F6D6D616E64002853747C
:100100006172205472656B20446973636F29200DFE
:100110000A00285374617220576172732044697316
:10012000636F29200D0A002850616E656C205761AD
:1001300076652042796529200D0A00284D61787383
:1001400074616E6720576967676C652050616E65E2
:100150006C7329200D0A00284D61726368696E670F
:1001600020416E74732050616E656C7329200D0AF6
:100170000028527974686D69632050616E656C73F4
:1001800029200D0A002853637265616D204E6F208F
:1001900050616E656C7329200D0A00285365742028
:1001A000746F204578636974656429200D0A0028FE
:1001B00053657420746F204177616B6529200D0AA7
:1001C0000028416C6C207069652070616E656C73ED
:1001D00020746F20524329200D0A00285365742093
:1001E000746F2057696465204177616B6529200D24
:1001F0000A002853657420746F205175696574294D
:10020000200D0A0028446973636F2044616E6365A2
:1002100029200D0A00284C656961204D65737361C2
:10022000676529200D0A002843616E74696E61209C
:1002300044616E636529200D0A002853686F72744B
:10024000204369726375697429200D0A002843618F
:100250006E74696E61204D61726368696E672041DA
:100260006E747329200D0A00284F70656E20436C50
:100270006F7365205761766529200D0A0028466155
:100280007374205761766529200D0A00285761761E
:100290006529200D0A002853637265616D29200DC0
:1002A0000A0028436C6F736520616C6C2070616E6E
:1002B000656C7329200D0A002A2A496E76616C69E3
:1002C000642050616E656C20436F6D6D616E640DCE
:1002D0000A002A2A496E76616C69642049324320FB
:1002E000436F6D6D616E640D0A00416C7432206362
:1002F0006F6D6D616E642C20666F72776172642021
:10030000746F20736C6176650D0A00416C74312046
:10031000636F6D6D616E642C206F757470757420E1
:10032000746F20736F756E640D0A00536F756E6481
:1003300020636F6D6D616E640D0A00446973706CAB
:10034000617920636F6D6D616E640D0A0048502005
:10035000636F6D6D616E640D0A00496E6974696149
:100360006C697A696E672E2E2E0D0A002A2A556E48
:100370007265636F676E697A656420436F6D6D6146
:100380006E64205374617274204368617261637497
:1003900065720D0A000A0D73756172743220436F25
:1003A0006D6D756E69636174696F6E204F4B200AC5
:1003B0000D000A0D73756172743120436F6D6D7598
:1003C0006E69636174696F6E204F4B200A0D0045A2
:1003D0006E7465722070616E656C20636F6D6D6107
:1003E0006E64207374617274696E672077697468D3
:1003F00020273A27200A0D000A0D4D6172634475CB
:10040000696E6F204D61737465722076312E3720CE
:100410000A0D004F4B0A0D000F00D007D007D00780
:10042000D007D007D007D007D007D007D0070F00DC
:10043000E803D007D007D007D007D007D007D007F0
:10044000D007D0070F00D007E803D007D007D007A8
:10045000D007D007D007D007D0070F00D007D007AC
:10046000E803D007D007D007D007D007D007D007C0
:100470000F00D007D007D007E803D007D007D00778
:10048000D007D007D0070F00D007D007D007D0077C
:10049000E803D007D007D007D007D0070F00D00758
:1004A000D007D007D007D007E803D007D007D00780
:1004B000D0070F00D007D007D007D007D007D0074C
:1004C000E803D007D007D0070F00D007D007D00728
:1004D000D007D007D007D007E803D007D0070F0018
:1004E000D007D007D007D007D007D007D007D00754
:1004F000E803D0070F00D007D007D007D007D007F8
:10050000D007D007D007D007E8030F00D007D007E7
:10051000D007D007D007D007D007D007D007D00723
:100520000F00D007D007D007D007D007D007D007DB
:10053000D007D007E8030F00D007D007D007D007B7
:10054000D007D007D007D007E803D0070F00D007A7
:10055000D007D007D007D007D007D007E803D007CF
:10056000D0070F00D007D007D007D007D007D0079B
:10057000E803D007D007D0070F00D007D007D00777
:10058000D007D007E803D007D007D007D0070F0067
:10059000D007D007D007D007E803D007D007D0078F
:1005A000D007D0070F00D007D007D007E803D00747
:1005B000D007D007D007D007D0070F00D007D0074B
:1005C000E803D007D007D007D007D007D007D0075F
:1005D0000F00D007E803D007D007D007D007D00717
:1005E000D007D007D0070F00E803D007D007D00707
:1005F000D007D007D007D007D007D0070F00D0070B
:10060000D007D007D007D007D007D007D007D00732
:10061000D007A08CFFFFFFFFFFFFFFFFFFFFFFFFE3
:10062000FFFFFFFFFFFFFFFF9808FFFFFFFFFFFF38
:10063000FFFFFFFFFFFFFFFFFFFFFFFFFFFF0000C8
:10064000FFFFFFFFFFFFFFFFFFFFFFFFFFFFFFFFBA
:10065000FFFFFFFF6400D007D007D007D007D00707
:10066000D007D007D007D007D0070000FFFFFFFF5B
:10067000FFFFFFFFFFFFFFFFFFFFFFFFFFFFFFFF8A
:100680001400D007D007D007D007D007D007D00775
:10069000D007D007D0072D00D007D007D007D0074C
:1006A000D007D007E803D007D007D0072D00D00728
:1006B000D007D007D007D007D007E803E803D0075A
:1006C000D0072D00D007D007D007D007D007D0071C
:1006D000E803E803E803D0072D00D007D007D007D0
:1006E000D007D007D007E803E803E803E8032D00AC
:1006F000D007D007D007D007D007D007E803E8031A
:10070000E803D0072D00D007D007D007D007D007C7
:10071000D007E803E803D007D0072D00D007D007A3
:10072000D007D007D007D007E803D007D007D007FD
:100730002D00D007D007D007D007D007D007D007AB
:10074000D007D007D0072D00E803D007D007D00787
:10075000D007D007D007D007D007D0072D00E80377
:10076000E803D007D007D007D007D007D007D007BD
:10077000D0072D00E803E803E803D007D007D0072F
:10078000D007D007D007D0072D00E803E803E8031F
:10079000E803D007D007D007D007D007D0072D0037
:1007A000D007E803E803E803D007D007D007D00755
:1007B000D007D0072D00D007D007E803E803D00703
:1007C000D007D007D007D007D0072D00D007D0071B
:1007D000D007E803D007D007D007D007D007D0074D
:1007E0002D00D007D007D007D007D007D007D007FB
:1007F000D007D007D0072D00D007D007D007D007EB
:10080000D007D007E803D007E803D0072D00D007B2
:10081000D007D007D007D007D007D007D007D00720
:10082000D0072D00D007D007D007D007D007D007BA
:10083000D007E803D007E8032D00D007D007D00782
:10084000D007D007D007D007D007D007D0072D009A
:10085000D007D007D007D007D007D007E803E803B8
:10086000E803E8032D00D007D007D007D007D00752
:10087000D007D007E803D007E8032D00D007D00742
:10088000D007D007D007D007E803D007E803D00788
:100890002D00D007D007D007D007D007D007D0074A
:1008A000D007D007D0072D00D007D007D007D0073A
:1008B000E803D007D007D007D007D0072D00D00716
:1008C000D007D007D007D007D007D007D007D00770
:1008D000D0072D00D007D007D007D007D007E803F6
:1008E000D007D007D007D0072D00D007D007D007FA
:1008F000D007D007D007D007D007D007D0072D00EA
:10090000E803E803E803E803E803E803D007D007B7
:10091000D007D0072D00D007E803E803E803E80379
:10092000E803D007D007D007D0072D00D007D007A5
:10093000D007E803E803E803D007D007D007D007C3
:100940002D00D007D007D007D007D007D007D00799
:10095000D007D007D0072D00D007E803D007E80361
:10096000D007D007D007D007D007D0072D00D00779
:10097000D007D007D007D007D007D007D007D007BF
:10098000D0072D00E803D007E803D007D007D00731
:10099000D007D007D007D0072D00D007D007D00749
:1009A000D007D007D007D007D007D007D0072D0039
:1009B000D007D007D007D007D007D007D007E8036B
:1009C000D007E8032D00D007D007D007D007D00705
:1009D000D007E803D007E803D0072D00D007D007E1
:1009E000D007D007D007D007D007E803D007E80327
:1009F0002D00D007D007D007D007D007D007D007E9
:100A0000D007D007D0072D00D007D007D007D007D8
:100A1000D007D007E803E803E803E8032D00D00778
:100A2000D007D007D007D007D007D007E803D007FA
:100A3000E8032D00D007D007D007D007D007D00794
:100A4000E803D007E803D0072D00D007D007D00770
:100A5000D007D007D007D007E803D007E8032D0060
:100A6000D007D007D007D007D007D007E803D007BA
:100A7000E803D0072D00D007D007D007D007D00754
:100A8000D007D007E803D007E8032D00E803D0071C
:100A9000E803D007E803D007E803D007E803D0074E
:100AA0002D00D007D007D007D007D007D007D00738
:100AB000D007D007D0072D00D007D007D007D00728
:100AC000D007D007E803D007E803D0072D00D007F0
:100AD000D007D007D007D007D007D007E803D0074A
:100AE000E8032D00D007D007D007D007D007D007E4
:100AF000E803D007E803D0072D00D007D007D007C0
:100B0000D007D007D007D007E803D007E8032D00AF
:100B1000E803D007E803D007E803D007E803D007CD
:100B2000E803D0072D00D007E803D007E803D0077B
:100B3000E803D007E803D007E8032D00E803D00757
:100B4000E803D007E803D007E803D007E803D0079D
:100B50002D00D007D007D007D007D007D007D00787
:100B6000D007D007D0072D00E803E803D007D0074F
:100B7000D007D007D007D007D007D0072D00D00767
:100B8000D007E803E803D007D007D007D007D00785
:100B9000D0072D00D007D007D007D007E803E8031F
:100BA000D007D007D007D0072D00D007D007D00737
:100BB000D007D007D007D007D007D007D0072D0027
:100BC000E803E803D007D007E803E803D007D0071D
:100BD000E803E8032D00D007D007E803E803D007B7
:100BE000D007E803E803D007D0072D00E803E803A7
:100BF000D007D007E803E803D007D007E803E803ED
:100C00002D00D007D007D007D007D007D007D007D6
:100C1000D007D007D0072D00E803D007D007D007B2
:100C2000D007D007D007D007D007D0072D00D007B6
:100C3000D007D007D007D007D007D007D007D007FC
:100C4000D0072D00D007E803D007D007D007D00782
:100C5000D007D007D007D0072D00D007D007D00786
:100C6000D007D007D007D007D007D007D0072D0076
:100C7000E803E803E803D007D007D007D007D00780
:100C8000D007D0072D00D007E803E803D007D0072E
:100C9000D007D007D007D007D0072D00D007D00746
:100CA000E803D007D007D007D007D007D007D00778
:100CB0002D00D007D007D007D007D007D007D00726
:100CC000D007D007D0072D00D007D007D007D00716
:100CD000D007D007E803D007E803D0072D00D007DE
:100CE000D007D007D007D007D007D007D007D0074C
:100CF000D0072D00D007D007D007D007D007D007E6
:100D0000D007E803D007E8032D00D007D007D007AD
:100D1000D007D007D007D007D007D007D0072D00C5
:100D2000D007D007D007D007D007D007E803D007F7
:100D3000E803D0072D00D007D007D007D007D00791
:100D4000D007D007E803D007E8032D00D007D0076D
:100D5000D007D007D007D007E803D007E803D007B3
:100D60002D00D007D007D007D007D007D007D00775
:100D7000D007D007D0072D00E803D007E803D0073D
:100D8000E803D007E803D007E803D0072D00D00719
:100D9000D007D007D007D007D007D007D007D0079B
:100DA000D0072D00D007E803D007E803D007E803F9
:100DB000D007E803D007E8032D00D007D007D007FD
:100DC000D007D007D007D007D007D007D0072D0015
:100DD000E803E803E803E803E803E803E803E803BB
:100DE000E803E8032D00D007D007D007D007D007CD
:100DF000D007E803E803E803E8032D00E803E8036D
:100E0000E803E803E803E803D007D007D007D007DA
:100E10002D00D007D007D007D007D007D007D007C4
:100E2000D007D007D0070000FFFFFFFFFFFFFFFF45
:100E3000FFFFFFFFFFFFFFFFFFFFFFFF1400D007D3
:100E4000D007D007D007D007D007D007D007D007EA
:100E5000D0073200E803D007E803D007E803D00743
:100E6000E803D007E803D0073200D007E803D00733
:100E7000E803D007E803D007E803D007E80332000F
:100E8000E803D007E803D007E803D007E803D0075A
:100E9000E803D0073200D007E803D007E803D00703
:100EA000E803D007E803D007E8033200E803D007DF
:100EB000E803D007E803D007E803D007E803D0072A
:100EC0003200D007E803D007E803D007E803D007D3
:100ED000E803D007E8033200E803D007E803D007AF
:100EE000E803D007E803D007E803D0073200D007B3
:100EF000E803D007E803D007E803D007E803D007EA
:100F0000E8033200E803D007E803D007E803D0077E
:100F1000E803D007E803D0073200D007E803D00782
:100F2000E803D007E803D007E803D007E80332005E
:100F3000E803D007E803D007E803D007E803D007A9
:100F4000E803D0073200D007E803D007E803D00752
:100F5000E803D007E803D007E8033200E803D0072E
:100F6000E803D007E803D007E803D007E803D00779
:100F70003200D007E803D007E803D007E803D00722
:100F8000E803D007E8033200E803D007E803D007FE
:100F9000E803D007E803D007E803D0073200D00702
:100FA000E803D007E803D007E803D007E803D00739
:100FB000E8033200E803D007E803D007E803D007CE
:100FC000E803D007E803D0073200D007E803D007D2
:100FD000E803D007E803D007E803D007E8033200AE
:100FE000E803D007E803D007E803D007E803D007F9
:100FF000E803D0073200D007E803D007E803D007A2
:10100000E803D007E803D007E8033200E803D0077D
:10101000E803D007E803D007E803D007E803D007C8
:101020003200D007E803D007E803D007E803D00771
:10103000E803D007E8033200E803D007E803D0074D
:10104000E803D007E803D007E803D0073200D00751
:10105000E803D007E803D007E803D007E803D00788
:10106000E8033200E803D007E803D007E803D0071D
:10107000E803D007E803D0073200D007E803D00721
:10108000E803D007E803D007E803D007E8033200FD
:10109000E803D007E803D007E803D007E803D00748
:1010A000E803D0073200D007E803D007E803D007F1
:1010B000E803D007E803D007E8033200E803D007CD
:1010C000E803D007E803D007E803D007E803D00718
:1010D0003200D007E803D007E803D007E803D007C1
:1010E000E803D007E8036400D007D007D007D00793
:1010F000D007D007D007D007D007D0070000FFFFE8
:10110000FFFFFFFFFFFFFFFFFFFFFFFFFFFFFFFFEF
:10111000FFFF1400D007D007D007D007D007D007B3
:10112000D007D007D007D0071400E803D007D007B6
:10113000D007D007D007D007D007D007D0071400BA
:10114000E803E803D007D007D007D007D007D007BF
:10115000D007D0071400E803E803E803D007D0075E
:10116000D007D007D007D007D0071400E803E80362
:10117000E803E803D007D007D007D007D007D0078F
:101180001400E803E803E803E803E803D007D00706
:10119000D007D007D0071400E803E803E803E8030A
:1011A000E803E803D007D007D007D0071400E8030E
:1011B000E803E803E803E803E803E803D007D007FF
:1011C000D0071400E803E803E803E803E803E803B2
:1011D000E803E803D007D0071400E803E803E803B6
:1011E000E803E803E803E803E803E803D007500056
:1011F000E803E803E803E803E803E803E803E80397
:10120000E803E8031400D007E803E803E803E80371
:10121000E803E803E803E803E8031400D007D00775
:10122000E803E803E803E803E803E803E803E80366
:101230001400D007D007D007E803E803E803E80369
:10124000E803E803E8031400D007D007D007D0076D
:10125000E803E803E803E803E803E8031400D00721
:10126000D007D007D007D007E803E803E803E80376
:10127000E8031400D007D007D007D007D007D00765
:10128000E803E803E803E8031400D007D007D00719
:10129000D007D007D007D007E803E803E80314001D
:1012A000D007D007D007D007D007D007D007D00786
:1012B000E803E8031400D007D007D007D007D00711
:1012C000D007D007D007D007E8032800D007D00701
:1012D000D007D007D007D007D007D007D007D00756
:1012E0000000FFFFFFFFFFFFFFFFFFFFFFFFFFFF0C
:1012F000FFFFFFFFFFFF0F00D007D007D007D00789
:10130000D007D007D007D007D007D0070F00E803D9
:10131000D007D007D007D007D007D007D007D00715
:10132000D0070F00D007E803D007D007D007D007B9
:10133000D007D007D007D0070F00D007D007E803A9
:10134000D007D007D007D007D007D007D0070F00AD
:10135000D007D007D007E803D007D007D007D007C1
:10136000D007D0070F00D007D007D007D007E80379
:10137000D007D007D007D007D0070F00D007D0077D
:10138000D007D007D007E803D007D007D007D00791
:101390000F00D007D007D007D007D007D007E80349
:1013A000D007D007D0070F00D007D007D007D0074D
:1013B000D007D007D007E803D007D0070F00D00729
:1013C000D007D007D007D007D007D007D007E80351
:1013D000D0070F00D007D007D007D007D007D0071D
:1013E000D007D007D007E8030F00D007D007D007F9
:1013F000D007D007D007D007D007D007D0070F00FD
:10140000D007D007D007D007D007D007D007D00724
:10141000D007E8030F00D007D007D007D007D007C8
:10142000D007D007D007E803D0070F00D007D007B8
:10143000D007D007D007D007D007E803D007D007E0
:101440000F00D007D007D007D007D007D007E80398
:10145000D007D007D0070F00D007D007D007D0079C
:10146000D007E803D007D007D007D0070F00D00778
:10147000D007D007D007E803D007D007D007D007A0
:10148000D0070F00D007D007D007E803D007D00758
:10149000D007D007D007D0070F00D007D007E80348
:1014A000D007D007D007D007D007D007D0070F004C
:1014B000D007E803D007D007D007D007D007D00760
:1014C000D007D0070F00E803D007D007D007D00718
:1014D000D007D007D007D007D0070F00D007D0071C
:1014E000D007D007D007D007D007D007D007D00744
:1014F0000000FFFFFFFFFFFFFFFFFFFFFFFFFFFFFA
:10150000FFFFFFFFFFFF1E00D007D007D007D00767
:10151000D007D007D007D007D007D0071E00E803B8
:10152000D007D007D007D007D007D007D007D00703
:10153000D0071E00D007E803D007D007D007D00798
:10154000D007D007D007D0071E00D007D007E80388
:10155000D007D007D007D007D007D007D0071E008C
:10156000D007D007D007E803D007D007D007D007AF
:10157000D007D0071E00D007D007D007D007E80358
:10158000D007D007D007D007D0071E00D007D0075C
:10159000D007D007D007E803D007D007D007D0077F
:1015A0001E00D007D007D007D007D007D007E80328
:1015B000D007D007D0071E00D007D007D007D0072C
:1015C000D007D007D007E803D007D0071E00D00708
:1015D000D007D007D007D007D007D007D007E8033F
:1015E000D0071E00D007D007D007D007D007D007FC
:1015F000D007D007D007E8031E00D007D007D007D8
:10160000D007D007D007D007D007D007D0070000F9
:10161000FFFFFFFFFFFFFFFFFFFFFFFFFFFFFFFFDA
:10162000FFFFFFFF1400D007D007D007D007D00777
:10163000D007D007D007D007D0073200E803E8036F
:10164000E803E803E803E803E803E803E803E80342
:101650000F00D007D007D007D007D007D007D0079A
:10166000D007D007D0070F00E803E803E803E8033A
:10167000E803E803E803E803E803E8030F00D00702
:10168000D007D007D007D007D007D007D007D007A2
:10169000D0071400E803E803E803E803E803E803DD
:1016A000E803E803E803E8031400D007D007D007F5
:1016B000D007D007D007D007D007D007D0070A003F
:1016C000E803E803E803E803E803E803E803E803C2
:1016D000E803E8034B00D007D007D007D007D007B6
:1016E000D007D007D007D007D0070000FFFFFFFFCB
:1016F000FFFFFFFFFFFFFFFFFFFFFFFFFFFFFFFFFA
:101700001400D007D007D007D007D007D007D007E4
:10171000D007D007D0079600E803E803D007D0072A
:10172000D007D007D007D007D007D0072300D007B5
:10173000D007D007D007D007D007D007D007D007F1
:10174000D0072300E803E803D007D007D007D0076D
:10175000D007D007D007D0072300D007D007D00785
:10176000D007D007D007D007D007D007D007230075
:10177000E803E803D007D007D007D007D007D00789
:10178000D007D0079B00D007D007D007D007D007DD
:10179000D007D007D007D007D0070000FFFFFFFF1A
:1017A000FFFFFFFFFFFFFFFFFFFFFFFFFFFFFFFF49
:1017B0001400D007D007D007D007D007D007D00734
:1017C000D007D007D007E803E803E803E803E803FD
:1017D000E803E803E803E803E803E8039600D0071A
:1017E000D007D007D007D007D007D007D007D00741
:1017F000D0070000FFFFFFFFFFFFFFFFFFFFFFFF1E
:10180000FFFFFFFFFFFFFFFF1400D007D007D00747
:10181000D007D007D007D007D007D007D0072C01BA
:10182000E803E803E803E803E803E803E803E80360
:10183000E803E8039600D007D007D007D007D00709
:10184000D007D007D007D007D0070000FFFFFFFF69
:10185000FFFFFFFFFFFFFFFFFFFFFFFFFFFFFFFF98
:1018600000C201000100110011000C0000E10000A5
:101870000A0025002500210000960000190039000B
:1018800039003600127A00001F004600460044006E
:101890008070000022004D004D004A00004B000007
:1018A0003600750075007200403800004A009C0048
:1018B0009C009900802500007200EC00EC00E9001B
:1018C000C0120000E900DA01DA01D7016009000066
:1018D000D701B603B603B303B0040000B3036E0729
:1018E0006E076B072C010000DC0EC11DC11DBE1D63
:1018F0006364696E6F70737578585B0011241FBE46
:10190000CFEFD8E0DEBFCDBF12E0A0E0B1E0E0E174
:10191000F3E502C005900D92A637B107D9F725E08F
:10192000A6E7B2E001C01D92A930B207E1F70E941C
:1019300045180C9486290C940000CF93882391F1CC
:10194000282F30E06623A1F0C9010197C62F49E195
:10195000849FC00D1124F901EB5BFE4F8081F901DA
:10196000E658FD4F861710F480831DC060831BC0AE
:10197000853080F4F901E658FD4F80818F5F8083C8
:10198000D901AB5BBE4F9C91981710F481E0808326
:10199000C08101C0C1E02150310989E1289FC00DFB
:1019A000112401C0C62F84E70E948E208C2FCF9176
:1019B0000C948E201092C8021092C70281E080938E
:1019C00078020895109278021092C8021092C7020D
:1019D000089580EB94E09093C8028093C7028091B1
:1019E00078028093790210927802089580917902AA
:1019F0008093780208950C948E208A3030F48823E6
:101A000011F06A3110F40C949D0C089523E330E03A
:101A100040E050E061E070E080E090E00E941B2137
:101A2000862F643110F481E017C06DEE680F6331CA
:101A300010F482E011C06BED680F683010F483E0A1
:101A40000BC064ED680F653010F484E005C060EDF4
:101A5000680F643018F485E00C94FD0C08958091B3
:101A600078028823E1F08091C7029091C802892B07
:101A7000B1F48091C7029091C802892B81F40E9431
:101A8000060D28E735E040E050E064E873E080E0D0
:101A900090E00E941B217093C8026093C7020895D2
:101AA0006FEF80E00C949D0C6EEF80E00C949D0C29
:101AB000CF93C82F86E70E948E208C2FCF910C9455
:101AC0008E208091080185508B3F18F010920801FC
:101AD00002C080930801809108010C94580D209158
:101AE0000801253620F084E68093080109C084E6C9
:101AF00090E0821B91090597B4F32B5F20930801B6
:101B0000809108010C94580D82E3809308010C9495
:101B1000580DEAE7F2E0119282E0E338F807D9F7CE
:101B20000E94840D0E94500D87EC92E00C941D19C8
:101B30008EEF809308010C94580D1092080180E0FC
:101B40000C94580D84E6809308010C94580D0F9363
:101B50001F93CF93DF93EC01FC0101900020E9F784
:101B60003197E81BF90B8881843209F0CEC00E2F23
:101B7000E250E33008F0C9C01981212F30E0205332
:101B800031092A30310598F40E94E20C10530230DA
:101B900031F0CE0102960E941023682F01C060E050
:101BA000812FDF91CF911F910F910C94FD0C1F3469
:101BB00009F44FC000F5143409F47EC078F41D32E6
:101BC00009F483C0133409F455C01B3209F09DC0D9
:101BD000DF91CF911F910F910C94610D1C3409F48A
:101BE00040C01D3409F487C0163409F08EC00E942D
:101BF000E90C63E05DC0133609F44EC078F4133588
:101C000009F453C0173509F472C0123509F07DC0CC
:101C1000DF91CF911F910F910C94DA0C1D3609F4CE
:101C20005AC048F4163609F070C0DF91CF911F9169
:101C30000F910C949D0D103709F453C0133709F020
:101C400064C00E94E20CDF91CF911F910F910C9420
:101C5000540D0E94E20CDF91CF911F910F910C94D3
:101C6000980D0E94E90C61E087E00E949D0C80E3E2
:101C700091E108C00E94E90C65E088E00E949D0C9B
:101C800080EE95E19093C8028093C702DF91CF91D7
:101C90001F910F910C94F60C0E94E90C61E088E012
:101CA0000E949D0C8CE89AE0EDCF0E94E90C61E067
:101CB00086E00E949D0CEACF0E94E90C66E088E075
:101CC0000E949D0C80EB9AE9DDCFDF91CF911F91AF
:101CD0000F910C946F0DDF91CF911F910F910C9488
:101CE000840DDF91CF911F910F910C94A20D0E9452
:101CF000E20C62E003C00E94E20C63E088E0DF9146
:101D0000CF911F910F910C949D0C8CED90E0DF9181
:101D1000CF911F910F910C94F01CFC01A281B38113
:101D20009D012F5F3F4F8C919681915019F49181C5
:101D3000291B31093383228396832FB7F89490812E
:101D4000915090832FBF0895FC01108275836483A6
:101D5000738362834183478346830895FC019081A6
:101D600081819817B0F4A481B581CD0101966C935F
:101D70002781215019F42181821B910927839583A2
:101D800084839FB7F89480818F5F80839FBF81E0B9
:101D9000089580E00895FC0120812223E1F30C9452
:101DA0008D0EFC012081222321F00E948D0E90E0F7
:101DB00008958FEF9FEF0895FC01208181E090E06E
:101DC000211102C080E090E008958093BC0082E37E
:101DD00090E09093CA028093C9028091BC0087FD75
:101DE0000DC08091C9029091CA02892BB1F78091F0
:101DF000B900887F8093830281E008958091B900C3
:101E0000887F8093830280E0089580918302089503
:101E10001092B90098E49093B800882311F0449A86
:101E2000459A8FEF8093BB0084E08093BC0089ECDF
:101E300092E00C941D191092BC00089584E98093DF
:101E4000BC0082E390E09093CA028093C902809123
:101E5000BC0084FF0DC08091C9029091CA02892BF9
:101E6000B1F78091B900887F8093830281E0089563
:101E70008091B900887F8093830280E00895CF939A
:101E8000DF93D82FC62F84EA0E94E50E811116C079
:101E900090918302983011F0903181F48D2F880F4A
:101EA0008C2B8093BB0084E80E94E50E811106C054
:101EB00080918302C13031F4803431F00E941E0FD2
:101EC00081E003C08831D1F780E0DF91CF910895A0
:101ED0008093BB0084E80E94E50E882321F00E94D5
:101EE0001E0F81E00895809183028832C1F780E05F
:101EF0000895CF93DF93EC01662311F084E801C0CD
:101F000084EC0E94E50E882321F00E941E0F81E0E0
:101F100004C08091BB00888380E0DF91CF91089559
:101F2000DF92EF92FF920F931F93CF93DF938B017A
:101F3000F42EE22E6115710511F0411103C00E94CB
:101F40001E0F11C060E00E943F0F81110CC0D02E07
:101F5000C02FD12F8C2F8D198F1538F489910E94A5
:101F6000680F8823B9F381E004C0E1100E941E0FBE
:101F700080E0DF91CF911F910F91FF90EF90DF9064
:101F80000895BF92CF92DF92EF92FF920F931F932B
:101F9000CF93DF931F92CDB7DEB78B01C42E6115AF
:101FA000710511F0411104C00E941E0F81E02CC088
:101FB00061E00E943F0F8111F7CFB12CD12C81E05D
:101FC000C81AD108EB2CF12CEC14FD0474F460E079
:101FD000CE0101960E94790F8111E6CFF801EE0D36
:101FE000FF1D89818083B394EDCF61E0CE0101961E
:101FF0000E94790F8111D8CFF801EE0DFF1D898164
:1020000080830E941E0F80E00F90DF91CF911F917F
:102010000F91FF90EF90DF90CF90BF9008958EE4E6
:1020200091E00E9404202FEF81EE94E02150804047
:102030009040E1F700C0000085E591E00E94042097
:102040002FEF89EF90E0215080409040E1F700C0F1
:1020500000000C94641AEBECF2E081E0819392E0D2
:10206000E53DF907D9F708958D3011F08A3021F454
:102070008AE00E948F1C8DE00C948F1C382FCB01BE
:1020800020918402E22FF0E0EF51FD4F3D3049F402
:1020900010821092840261EE72E00E943C2381E083
:1020A00008953083203418F42F5F2093840280E059
:1020B0000895CF93DF93EC0180918502882321F06E
:1020C0008DE493E00E94F01CCE010E9404208DE07C
:1020D000DF91CF910C94C71FCF93DF93EC018091D8
:1020E0008502882321F08BE393E00E94F01CCE014F
:1020F0000E9404208DE0DF91CF910C94C71FCF93F5
:10210000DF93EC0180918502882321F08BE293E03C
:102110000E94F01CCE01DF91CF910C94A70DCF93BC
:10212000DF93EC0180918502882321F08BE093E01E
:102130000E94F01CCE0101960E94CB208DE0DF9121
:10214000CF910C948E20CF93DF93EC018091850288
:10215000882321F08BE093E00E94F01CCE010E94C6
:1021600004208DE0DF91CF910C94C71FEF92FF9276
:102170000F931F93CF93DF9300D0CDB7DEB77C01D1
:102180008B01DA018C918732E1F1883739F08232A4
:1021900009F05BC0FA0131969EEF2EC0CE01019688
:1021A0009F938F938BE591E09F938F934F5F5F4F4A
:1021B0005F934F930E9494230F900F900F900F9076
:1021C0000F900F90811102C080E064C029813A8194
:1021D0002F3F310509F008F456C0F6CFD8012C91F5
:1021E000D701A20FB11D8C93D8018C918F5F8C9376
:1021F000882351F3915019F081918111EFCF81E043
:1022000049C0CE0101969F938F938EE591E09F93F5
:102210008F934F5F5F4F5F934F930E9494230F9074
:102220000F900F900F900F900F90882369F2F80194
:102230009081F701E90FF11D99819083D8019C915C
:102240009F5F9C93911126C0BFCFCE0101969F93B3
:102250008F9381E691E09F938F935F934F930E94BA
:1022600094230F900F900F900F900F900F90882352
:1022700009F4AACF29813A81A90140585F4F40381B
:10228000514008F0A1CFF8019081F701E90FF11D4D
:102290002083D4CF0F900F90DF91CF911F910F919A
:1022A000FF90EF90089521E00C94900F0F931F93EF
:1022B000CF93DF93CDB7DEB7C550D1400FB6F894BA
:1022C000DEBF0FBECDBF8C01CB5FDE4F1882C55085
:1022D000D1408CE290E0CD5FDE4F99838883C3507C
:1022E000D140623008F457C0F8018081863209F08D
:1022F00052C0C8010E9404208DE00E94C71FBE0189
:102300006D5F7E4FC80101960E942E23009709F44D
:1023100042C08E010F5F1E4F1F930F9324E631E0E2
:102320003F932F939F938F930E949423F8012081D2
:1023300031810F900F900F900F900F900F902F3FC3
:10234000310548F5182F022F27FD25C0112319F15B
:10235000BE016D5F7E4F80E090E00E942E23AC01B5
:10236000009749F0BE016B5F7E4FCE0101960E943F
:10237000B610182FEBCF112371F0CB5FDE4F4881E1
:10238000C550D140442339F0BE016F5F7F4F802F8D
:102390000E94531108C080918602882321F082EDAB
:1023A00092E00E94F01CCB5FDE4F0FB6F894DEBFC8
:1023B0000FBECDBFDF91CF911F910F910895CF93A5
:1023C00081110AC0C1E068EE73E08C2F0E943D1DB0
:1023D000CF5FCB30C1F71EC08B3028F468EE73E0BE
:1023E000CF910C943D1D8B3051F4C7E068EE73E043
:1023F0008C2F0E943D1DCF5FCB30C1F70BC08C30BE
:1024000049F4C1E068EE73E08C2F0E943D1DCF5F60
:10241000C730C1F7CF910895CF93DF93811116C0D4
:10242000EBECF2E0119282E0E53DF807D9F70E946B
:10243000B11A8DE191E00E94691A62E084E596E0AC
:102440000E947F1ADF91CF910C94A71A8B30A8F4C9
:10245000C82FD0E02197FE01E553FD4F108260EDBB
:1024600077E00E943D1D81E290E09093D602809338
:10247000D502C952DD4F81E08883DF91CF91089565
:102480008B3050F4811102C00C942B10E82FF0E037
:10249000E653FD4F81E0808308951F93CF93DF9330
:1024A0008B30D8F481110DC0CBECD2E011E0199241
:1024B0006FEF7FEF812F0E943D1D1F5F1B30B9F72B
:1024C0000CC0E82FF0E0E653FD4F10826FEF7FEF76
:1024D000DF91CF911F910C943D1DDF91CF911F9102
:1024E00008958B3078F4811108C0EBECF2E0119282
:1024F00082E0E53DF807D9F70895E82FF0E0E653CC
:10250000FD4F108208950E94641A8EE491E00E94AB
:1025100004202FEF81EE94E0215080409040E1F7BD
:1025200000C0000085E591E00E9404202FEF89EFB4
:1025300090E0215080409040E1F700C000000895F5
:102540008EE491E00C94042087E691E00C94042042
:102550008EE691E00C94042085E791E00C94042031
:102560000F931F93CF93DF93CDB7DEB727970FB6A7
:10257000F894DEBF0FBECDBF1F928F938CE791E022
:102580009F938F938E010F5F1F4F1F930F930E9496
:102590007223C8010E9404200F900F900F900F909B
:1025A0000F900F9027960FB6F894DEBF0FBECDBFE9
:1025B000DF91CF911F910F9108950F931F93CF93A8
:1025C000DF93CDB7DEB727970FB6F894DEBF0FBE07
:1025D000CDBF1F928F9385E891E09F938F938E01DB
:1025E0000F5F1F4F1F930F930E947223C8010E9419
:1025F00004200F900F900F900F900F900F90279640
:102600000FB6F894DEBF0FBECDBFDF91CF911F9103
:102610000F9108950F931F93CF93DF93CDB7DEB73C
:1026200027970FB6F894DEBF0FBECDBF1F928F93D2
:102630008EE891E09F938F938E010F5F1F4F1F9342
:102640000F930E947223C8010E9404200F900F90E4
:102650000F900F900F900F9027960FB6F894DEBF53
:102660000FBECDBFDF91CF911F910F91089587E9E4
:1026700091E00C9404200F931F93CF93DF93CDB779
:10268000DEB727970FB6F894DEBF0FBECDBF1F92FF
:102690008F938EE991E09F938F938E010F5F1F4F71
:1026A0001F930F930E947223C8010E9404200F9071
:1026B0000F900F900F900F900F9027960FB6F894F1
:1026C000DEBF0FBECDBFDF91CF911F910F91089557
:1026D0000F931F93CF93DF93CDB7DEB727970FB636
:1026E000F894DEBF0FBECDBF1F928F9387EA91E0B3
:1026F0009F938F938E010F5F1F4F1F930F930E9425
:102700007223C8010E9404202FEF80E792E021503D
:1027100080409040E1F700C000000F900F900F90B4
:102720000F900F900F9027960FB6F894DEBF0FBE54
:10273000CDBFDF91CF911F910F91089580EB91E074
:102740000E9404202FEF81EE94E0215080409040C1
:10275000E1F700C00000089585E591E00C940420A5
:1027600086EB91E00E9404202FEF81EE94E021504F
:1027700080409040E1F700C000008CEB91E00E94A7
:1027800004202FEF80E792E0215080409040E1F755
:1027900000C00000089582EC91E00E9404202FEF19
:1027A00083EC99E0215080409040E1F700C00000A8
:1027B000089589EC91E00E9404202FEF81EE94E0CF
:1027C000215080409040E1F700C000008FEC91E084
:1027D0000E9404202FEF89EF90E02150804090402C
:1027E000E1F700C00000089586ED91E00E9404200A
:1027F0002FEF81EE94E0215080409040E1F700C03F
:1028000000000895CF93DF93EC018CED91E00E94DE
:102810000420CE010E9404208DE00E94C71F2FEFEC
:1028200084E39CE0215080409040E1F700C000002C
:10283000DF91CF91089580EE91E00E9404202FEF68
:1028400081EE94E0215080409040E1F700C000000C
:10285000089562E088EE91E00C947F1062E08DEEC6
:1028600091E00C947F1062E082EF91E00C947F1075
:1028700062E087EF91E00C947F1064E08AEF91E0D2
:102880000C947F1062E08FEF91E00C947F1063E076
:1028900082E092E00C947F1063E086E092E00C947A
:1028A0007F1062E08AE092E00C947F1062E08DE09D
:1028B00092E00C947F1062E080E192E00C947F1033
:1028C00062E083E192E00C947F100F931F93CF930B
:1028D000DF93CDB7DEB727970FB6F894DEBF0FBEF4
:1028E000CDBF1F926F931F928F9386E192E09F93CB
:1028F0008F938E010F5F1F4F1F930F930E947223C0
:10290000F80101900020E9F7BF0161507109601BD7
:10291000710BC8010E947F100FB6F894DEBF0FBE86
:10292000CDBF27960FB6F894DEBF0FBECDBFDF91A7
:10293000CF911F910F91089562E08EE192E00C9487
:102940007F1062E081E292E00C947F100F931F935E
:10295000CF93DF93CDB7DEB7A3970FB6F894DEBF62
:102960000FBECDBF482F50E04A33510508F085C255
:10297000FA01EC5CFF4F0C9421220E94B11A8DE108
:1029800091E00E94691A62E084E596E00E947F1A55
:102990000E94A71A80918502882309F48AC282EADC
:1029A00092E01CC064E088E098E10E947F1A8DE10B
:1029B00091E00E94691A0E9438140E949E1384E0DC
:1029C0000E94681384E00E94B0120E94A71A8091AE
:1029D0008502882309F46DC286E992E00E94F01C0A
:1029E00068C26DE086E095E10E947F1A0E94761A27
:1029F00084E00E940A130E943D140E94A71A80914D
:102A00008502882309F455C28CE892E0E7CF68E19B
:102A100086EF92E10E947F1A0E94761A0E94B013FC
:102A200084E00E94B0120E9447140E94A71A80916D
:102A30008502882309F43DC28DE792E0CFCF66E19D
:102A400082E191E10E947F1A0E94761A85E00E943D
:102A50000A130E944C140E94A71A809185028823B1
:102A600009F427C288E692E0B9CF8FE090E10E9496
:102A70005F1A61E28CE39EE00E947F1A8DE191E093
:102A80000E94691A0E94CB1381E10E940A130E94DE
:102A900051140E94A71A80918502882309F409C263
:102AA0008DE492E09BCF64E080EB97E10E947F1A77
:102AB00089E091E00E94691A0E94D9130E9456147D
:102AC0008AE00E9468138AE00E94B0120E94A71A4E
:102AD00080918502882309F4ECC18AE392E07ECFDD
:102AE0008FE090E10E945F1A6AE580E896E00E941C
:102AF0007F1A0E94761A0E945B140E94CB138EE20A
:102B00000E94B0120E94A71A80918502882309F4BE
:102B1000D0C187E292E062CF0E94B11A8DE191E0CC
:102B20000E94691A62E084E596E00E947F1A0E9482
:102B3000A71A0E9437130E94601482E20E94DD12DD
:102B40000E94F41380918502882309F4B2C185E1C3
:102B500092E044CF8FE090E10E945F1A0E94761AC3
:102B60006AE188E194E00E947F1A84E292E00E9488
:102B700002140E94CB130E941B140E94421483E68D
:102B80000E94B0120E94A71A80918502882309F43E
:102B900090C184E092E022CF0E94B11A8DE191E0D1
:102BA0000E94691A62E084E596E00E947F1A0E9402
:102BB000A71A0E9483120E94A8120E94A1140E94C8
:102BC000761A80E00E944D1280918502882309F4D4
:102BD00070C182EF91E002CF0E94B11A8DE191E0C5
:102BE0000E94691A62E084E596E00E947F1A0E94C2
:102BF000A71A0E9483120E94AC120E949C140E9489
:102C0000761A80E00E944D1280918502882309F493
:102C100050C18BED91E0E2CE81E08093D1028093B0
:102C2000D2028093D3028093D402809185028823BC
:102C300009F43FC181EC91E0D1CE0E94B11A8DE13F
:102C400091E00E94691A62E084E596E00E947F1A92
:102C50000E94A71A0E9483120E94A8120E949C142C
:102C60000E94761A80E00E944D128091850288238E
:102C700009F41FC18FEA91E0B1CE0E94B11A8DE133
:102C800091E00E94691A62E084E596E00E947F1A52
:102C90000E94A71A0E9483120E94AC120E94A412E2
:102CA0000E949C140E94761A80E00E944D1280912E
:102CB0008502882309F4FDC08BE991E08FCE0E9444
:102CC00038140E949E1383E00E94B01283E00E9499
:102CD000681380918502882309F4EBC085E891E0B0
:102CE0007DCE6AE084E296E10E947F1A81E391E062
:102CF0000E94691A0E9438140E949E1384E00E9468
:102D0000681384E00E94B0120E94A71A8091850285
:102D1000882309F4CEC08BE391E060CE68E080E0C8
:102D200097E10E947F1A81E391E00E94691A0E9454
:102D3000291482E00E94681382E00E94B0120E946F
:102D4000A71A80918502882309F4B3C087E291E035
:102D500045CE8FE090E10E945F1A0E94761A6AE1E8
:102D600088E194E00E947F1A84E292E00E940214BB
:102D70000E94CB130E941B140E942E1483E60E9413
:102D8000B0120E94A71A80918502882309F491C08D
:102D900082E191E023CE8FE090E10E945F1A0E94D1
:102DA000761A6AE188E194E00E947F1A81E392E05A
:102DB0000E9402140E94CB130E941B140E94331421
:102DC00083E60E94B0120E94A71A80918502882390
:102DD00009F46FC08DEF90E001CE64E088E098E1E7
:102DE0000E947F1A8DE191E00E94691AEECD6DE09C
:102DF00086E095E10E947F1A0E94761AFECD68E176
:102E000086EF92E10E947F1A0E94761A0ECE66E14A
:102E100082E191E10E947F1A0E94761A1CCE61E243
:102E20008CE39EE00E947F1A8DE191E00E94691A76
:102E30000E94A71A809185028823D9F187E591E045
:102E4000CDCD64E080EB97E10E947F1A89E091E0AC
:102E50000E94691A3BCE6AE580E896E00E947F1ADC
:102E60000E94761A80918502882321F081E791E003
:102E70000E94F01C0E94A71A1CC01F928F938EE321
:102E800092E09F938F938E010F5F1F4F1F930F93BD
:102E90000E9472230E94761A0F900F900F900F904D
:102EA0000F900F9080918602882319F0C8010E942C
:102EB000B71CA3960FB6F894DEBF0FBECDBFDF914F
:102EC000CF911F910F9108951F93CF93DF93EC0142
:102ED000CB010E941023182F61E672E0CE010E9400
:102EE0003323892B51F483E194E00E94F01C812F5D
:102EF000DF91CF911F910C94A61464E672E0CE018D
:102F00000E943323892B51F483E194E00E94F01C4A
:102F1000812FDF91CF911F910C94DF1167E672E052
:102F2000CE010E943323892B51F483E194E00E9467
:102F3000F01C812FDF91CF911F910C940C126AE647
:102F400072E0CE010E943323892B51F483E194E097
:102F50000E94F01C812FDF91CF911F910C944012A1
:102F60006DE672E0CE010E943323892B51F483E198
:102F700094E00E94F01C812FDF91CF911F910C945F
:102F80004D1260E772E0CE010E943323892B51F489
:102F900083E194E00E94F01C812FDF91CF911F917B
:102FA0000C94711280918602882339F088EB92E0AC
:102FB000DF91CF911F910C94F01CDF91CF911F9165
:102FC0000895CF93DF9300D000D000D0CDB7DEB707
:102FD000FC01653049F0809186028823C9F088EBB6
:102FE00092E00E94F01C14C080818A33A1F7818195
:102FF0008C8382818D831E828381898384818A83ED
:103000001B82BE016F5F7F4FCE0104960E94641742
:1030100026960FB6F894DEBF0FBECDBFDF91CF91DD
:103020000895FC01208101900020E9F7BF01615063
:103030007109681B790B611103C083E194E022C020
:103040002632C1F038F4243289F090F42132A1F410
:103050000C948F102A3331F0203431F02A3261F48D
:103060000C9459100C94E1170C946C100C947F1074
:103070000C94A3100C94561180918602882321F0A1
:103080008CE693E00C94F01C0895CF93DF93CDB7BA
:10309000DEB7C154D1090FB6F894DEBF0FBECDBF65
:1030A0000E94FF1B88EF93E00E94F01C8AE593E0EA
:1030B0000E94F01C60E875E280E090E00E94611FD1
:1030C00082EB93E00E9419200E94C81D0E9499196A
:1030D0000E94571A81E00E94080F85ED92E00E943D
:1030E0001D193A9A429A81E293E00E941D1962E00A
:1030F00084E596E00E947F1A0E94A71A60E875E2B4
:1031000080E090E00E9428202FEF3BE782E92150E9
:1031100030408040E1F700C000000E94890D9AEA2B
:10312000E6EEF6E921E09150E040F0402040D9F78A
:1031300000000E94DA0C8FEC93E00E94F01C88EBF8
:103140009BE0909322038093210398EBC92E9BE090
:10315000D92E21E2A22EB12C0E949A1C8823A9F01C
:10316000D0922203C09221030E94A91C182F0E9412
:103170003410BE016F5F7F4F812F0E943E10882365
:1031800021F0CE0101960E9411180E942F0D0E947D
:103190007D1D7C018BEC882E82E0982E07ED12E0DD
:1031A00077247394F40161904F01F1E06F121EC017
:1031B00027ECE21627E0F206ACF0F80180818111DD
:1031C00015C0872D0E94641D019681F060ED77E0A7
:1031D000872D0E943D1DB092D602A092D502F80123
:1031E000608204C0B701872D0E943D1D73940F5F5C
:1031F0001F4FFBE07F12D6CF8091D5029091D6026F
:10320000892B09F0A9CF07ED12E091E0F801819137
:103210008F01882371F06FEF7FEF892F22969FAF88
:1032200022970E943D1DF8013197108222969FAD92
:1032300022979F5F9B3051F78FCFECE2F3E020E0C5
:1032400030E041915191452B49F4F901EE0FFF1FF8
:10325000E45DFC4F9183808381E008952F5F3F4FB1
:103260002A30310571F780E00895ECE2F3E020E0C8
:1032700030E0419151914817590749F4F901EE0F97
:10328000FF1FE45DFC4F1182108281E008952F5FE3
:103290003F4F2A30310569F780E0089520912503DA
:1032A00030912603232B79F02091270330912803B6
:1032B000232B61F02091290330912A03232B81F4E1
:1032C000E2E0F0E005C0E0E0F0E002C0E1E0F0E0C4
:1032D000EE0FFF1FEB5DFC4F9183808381E008952B
:1032E00080E008952091250330912603281739079F
:1032F00089F020912703309128032817390769F0B6
:103300002091290330912A032817390781F4E2E03C
:10331000F0E005C0E0E0F0E002C0E1E0F0E0EE0F38
:10332000FF1FEB5DFC4F1182108281E0089580E069
:1033300008953B9A84B5826084BD8FEC87BD16BC2E
:10334000EEE6F0E080818260808385B5846085BD93
:10335000789408951F920F920FB60F9211242F9315
:103360003F934F935F936F937F938F939F93AF930D
:10337000BF93CF93DF93EF93FF9380919C028230B2
:1033800040F48FEC87BD80919C028F5F80939C02FC
:103390007BC080ED87BD10929C0280914303909189
:1033A0004403019690934403809343038091400328
:1033B0009091410301969093410380934003ACE2C6
:1033C000B3E0ED91FD91309749F080819181892B97
:1033D00029F08081918101979183808383E0A034DB
:1033E000B80779F780912B038F5F80932B0380912F
:1033F0002B03843611F410922B0380919B028F5F74
:1034000080939B02843661F580912303909124037D
:103410000196909324038093230310929B02809142
:1034200042038F5F80934203809142038C33C1F447
:1034300010924203809145038F5F809345038091F2
:1034400045038C3369F410924503809146038F5FE6
:103450008093460380914603883111F4109246030D
:103460008091420380FF04C0439AC5E2D3E006C0C6
:103470004398FBCF83E0CB32D80731F0E991F99143
:103480003097C1F30995F6CFFF91EF91DF91CF917E
:10349000BF91AF919F918F917F916F915F914F916C
:1034A0003F912F910F900FBE0F901F90189584EFB2
:1034B0009AE10E944E1981E793E00C941D199093B4
:1034C0005C0380935B03089510925C0310925B038E
:1034D0000895E2EAF2E0DC012D913D91CD012193C6
:1034E0003193B2E0E63BFB07B1F70895E2EAF2E080
:1034F0001192119282E0E63BF807D1F70895CF933D
:10350000DF931092A0021092A10290939F028093E9
:103510009E0260939D02C0E0D0E08C2F8F5F0E94DE
:10352000641D9E01220F331FF901E95BFC4F91835B
:10353000808380819181F901E35AFC4F91838083DC
:103540002196CA30D10549F7DF91CF9108951092A5
:10355000A10281E08093A002089581E08093A002FF
:1035600008951092A0021092720310927103E091DC
:103570005B03F0915C03309709F0099408959091F2
:103580009D02891710F48093A10208950F931F9351
:10359000CF93DF938C0126E1629F000D111D112452
:1035A0000E5F1F4FC0E0D0E08C2F8F5FF801259198
:1035B0003491FE01EE0FFF1FE35AFC4F318320834D
:1035C000208131812F3F3F4F21F46FEF7FEF0E9429
:1035D0003D1D21960E5F1F4FCA30D10529F7DF919F
:1035E000CF911F910F910895EF92FF920F931F9328
:1035F000CF93DF938091A002882309F4BEC080910D
:103600009E0290919F02892B09F4B7C002EA12E052
:10361000C0E0D0E0F801619171918F01AE01440FDB
:10362000551FDA01A35ABC4F2D913C911197FA0115
:10363000E95BFC4F80819181281B390B99F18C2F1C
:103640008F5F6115710529F0E080F180EF20E09433
:1036500059F4FA01E35AFC4F20813181FA01E95B08
:10366000FC4F318320831AC01216130644F46217EC
:1036700073076CF420813181260F371F0AC026178B
:1036800037072CF420813181261B370B02C02D9186
:103690003C9131832083FA01E95BFC4F60817181A9
:1036A0000E943D1D2196CA30D10509F0B3CF80910B
:1036B000710390917203892B09F05FC06091A102A0
:1036C00070919D02462F50E0272F30E021503109A4
:1036D00080919E0290919F0242175307BCF40E9472
:1036E000C61A2091A102E0919E02F0919F0286E10C
:1036F000289FE00DF11D1124859194919093720300
:10370000809371032F5F2093A10237C0FC0126E153
:10371000729FE00DF11D11247697259134916FEF82
:10372000670F232B99F40E94C61A1092A0021092E0
:10373000A102E0915B03F0915C033097F1F0DF911F
:10374000CF911F910F91FF90EF9009940E94C61A9C
:1037500080919D02E6E18E9FC00111244697E09181
:103760009E02F0919F02E80FF91F8591949190932A
:103770007203809371031092A102DF91CF911F9188
:103780000F91FF90EF900895CF93CFB79C0140E049
:1037900050E084E0220F331F441F551F8A95D1F754
:1037A00060E074E284EF90E00E94E0212150310952
:1037B0003093C5002093C400F8941092C00088E9AB
:1037C0008093C10086E08093C2008091C600809102
:1037D000C00087FDFACF80EC8093C000CFBF789403
:1037E00040E463E773E08BEB93E00E94A40E4FEF9D
:1037F00063EC73E083EB93E0CF910C94A40E80E82C
:1038000095E20C94C41B80E895E20E94C41B84E2FC
:103810008093C2000895E1ECF0E0808180688083AD
:103820000895E1ECF0E080818F77808308951F9206
:103830000F920FB60F9211242F938F939F93EF93B4
:10384000FF932091C6009091BB038091BC03981711
:10385000E8F4E091BF03F091C003CF01019620830B
:103860002091C203215021F42091BC03821B9109B5
:103870002093C2039093C0038093BF039FB7F89433
:103880008091BB038F5F8093BB039FBFFF91EF913C
:103890009F918F912F910F900FBE0F901F901895B1
:1038A0001F920F920FB60F9211242F933F938F9375
:1038B0009F93EF93FF938091B303882301F1E091ED
:1038C000B503F091B603CF01019630812091B90381
:1038D000215021F42091B403821B91099093B603E7
:1038E0008093B5032093B9039FB7F8948091B303F5
:1038F00081508093B3039FBF3093C60005C0809171
:10390000C1008F7D8093C100FF91EF919F918F91B6
:103910003F912F910F900FBE0F901F901895682F19
:1039200083EB93E00E94AE0EE1ECF0E090819062B8
:10393000908308958BEB93E00E94DC0E089583EB57
:1039400093E00E94DC0E21E0892B09F020E0822F19
:1039500008958BEB93E00E94D10E08958BEB93E0DA
:103960000E94D10E08958BEB93E00C94CB0EFF9246
:103970000F931F93CF93DF938C01F12CE801CF0DB0
:10398000D11D8881882361F08FEFF81649F00E94DD
:103990009F1C8823E1F388810E948F1CF394EECF53
:1039A000DF91CF911F910F91FF9008950F931F9377
:1039B000CF93DF93EC0101E010E0FE01E10FF11D78
:1039C0008081882339F01F3F29F00E948F1C082333
:1039D0001F5FF3CF802FDF91CF911F910F9108953B
:1039E0001F93CF93DF93EC01FE011491112349F053
:1039F0000E949F1C8823E1F3812F0E948F1C219637
:103A0000F3CFDF91CF911F9108958AE08093B602A2
:103A100080E29EE49093850080938400EFE6F0E0DE
:103A20008081816080837894E1E8F0E08081826029
:103A300080830895CF93DF93ECEEF4E0CFEDD4E0F4
:103A400021E030E0A191B1914C91C901099002C0EF
:103A5000880F991F0A94E2F7809584238C9385E060
:103A6000E030F80779F780916F008E7F80936F00C8
:103A700010928100DF91CF9108959FEF980F9A30B7
:103A800010F5E82FF0E077FF09C0EE0FFF1FE054BC
:103A9000FB4F8FEF9FEF918380830895653C89E012
:103AA00078073CF4643F81E078072CF464EF71E020
:103AB00002C064EC79E0EE0FFF1FE054FB4F660F8D
:103AC000771F7183608308959FEF980F9A3078F481
:103AD000E82FF0E0EE0FFF1FE054FB4F8081918153
:103AE0008F3F2FEF920731F096958795089580E0EC
:103AF00090E008958FEF9FEF08958091EB048A3056
:103B000040F08FEF9FEF90930805809307059FEF9C
:103B100008958091EB04811115C08091DA04882307
:103B200089F0809105059091060597FD01969C010D
:103B30003595279530930805209307051092DA04F0
:103B4000C90108958091070590910805089580B7EF
:103B50008B7F80BFE1E8F0E080818F778083EFE6A4
:103B6000F0E080818F7D808320981092DE04109297
:103B7000DD041092DC041092DB0410920405109214
:103B8000EB048FEF9FEF909308058093070508954E
:103B9000CF93DF93E2ECF4E08FEF9FEF819391936B
:103BA00024E0EA3DF207D1F78BE290E09093ED0438
:103BB0008093EC049093EF048093EE049093F104CF
:103BC0008093F0049093F3048093F2049093F504AF
:103BD0008093F40485E290E09093F7048093F604D8
:103BE0009093F9048093F8049093FB048093FA0473
:103BF0009093FD048093FC049093FF048093FE0453
:103C0000909301058093000590930305809302052E
:103C100032E03093DF0423E02093E00494E09093BB
:103C2000E10485E08093E20446E04093E30441E050
:103C30004093E4043093E5042093E6049093E70472
:103C40008093E8048BE08093E9048CE08093EA049D
:103C5000CFEDD4E0ECEEF4E021E030E0A191B191C1
:103C60004C91C901099002C0880F991F0A94E2F78C
:103C7000809584238C9385E0E030F80779F7CFEDC9
:103C8000D4E0ECEEF4E021E030E0A191B1914E916E
:103C9000C901099002C0880F991F0A94E2F7482BC6
:103CA0004C9385E0E030F80781F780916F008E7FBC
:103CB00080936F008AE08093B6021092800080E2C9
:103CC0009EE490938500809384000E94A71DDF915D
:103CD000CF910C94051DE1E8F0E080818064808341
:103CE000B59A10920405EFE6F0E08081806280834F
:103CF000089580916F008F7D80936F0080910405FF
:103D00008823A1F01092EB048091DB049091DC04F5
:103D10002091DD043091DE04821B930B9093060505
:103D20008093050581E08093DA0408958091EB0487
:103D30008B3028F48091EB048F5F8093EB0408951F
:103D40001F920F920FB60F9211242F933F934F9310
:103D50005F936F937F938F939F93AF93BF93EF93F3
:103D6000FF938091B6028A3028F00E94791E10924B
:103D7000B6021FC0E091B602F0E0EE0FFF1FE45163
:103D8000FB4FA081B1812C91E091B602F0E0E152AD
:103D9000FB4F81E090E0008002C0880F991F0A94D9
:103DA000E2F7809582238C938091B6028F5F809397
:103DB000B6028091B6028A3048F080E29EE4909389
:103DC0008500809384000E946B1E37C0E091B6028C
:103DD000F0E0EE0FFF1FEE53FB4F808191810196C3
:103DE00031F1E091B602F0E0EE0FFF1FE451FB4F1E
:103DF000A081B1812C91E091B602F0E0E152FB4F3D
:103E000081E090E0008002C0880F991F0A94E2F7D9
:103E1000282B2C93E091B602F0E0EE0FFF1FEE533B
:103E2000FB4F8081918191958195910902C08CE031
:103E30009EEF9093850080938400FF91EF91BF9156
:103E4000AF919F918F917F916F915F914F913F9132
:103E50002F910F900FBE0F901F9018951F920F92E9
:103E60000FB60F9211248F939F93F8948091810045
:103E700086FF0FC080918600909187009093DE04AA
:103E80008093DD04809181008F7B80938100B59ABF
:103E900010C080918600909187009093DC048093FD
:103EA000DB0481E08093040580916F008F7D809317
:103EB0006F0078949F918F910F900FBE0F901F907D
:103EC00018950F931F931092C6021092C50210927C
:103ED000C4021092C3021092C2021092C102109248
:103EE000C0021092BF02389A409AA0E6B8E140E0C2
:103EF00050E0FD01059115912591349106171707A2
:103F00002807390709F039C08CE0849FF001859FAC
:103F1000F00D1124EC59F74E859194919093C602BF
:103F20008093C5028CE0849FF001859FF00D1124E1
:103F3000EA59F74E859194919093C4028093C302FD
:103F40008CE0849FF001859FF00D1124E859F74E15
:103F5000859194919093C2028093C1028CE0849FDA
:103F6000F001859FF00D1124E659F74E859194914B
:103F70009093C0028093BF0207C04F5F5F4F1C96B3
:103F80004C30510509F0B5CF1F910F910895209144
:103F9000BF023091C002232B09F435C05FB7F894FB
:103FA0004098E091BF02F091C002359620E0319731
:103FB0002FEFEF3FF207D9F728E030E091E060E023
:103FC000492F482311F0409A01C04098E091BF0268
:103FD000F091C002462F31974FEFEF3FF407D9F72A
:103FE000990F215031092115310551F7409A5FBFD2
:103FF00078948091BF029091C00220E001972FEF4A
:104000008F3F9207D9F708951F93CF93DF93EC0169
:1040100010E0FE01E10FF11D8081882331F01F3F88
:1040200021F00E94C71F1F5FF4CFDF91CF911F9136
:104030000895CF93DF93FC018491EF0121968823AB
:1040400021F00E94C71FFE01F7CFDF91CF910895A5
:104050000F931F931092BE021092BD021092BC02E9
:104060001092BB021092BA021092B9021092B802DA
:104070001092B702399A419AA0E6B8E140E050E0C8
:10408000FD01059115912591349106171707280711
:10409000390709F039C08CE0849FF001859FF00D4D
:1040A0001124EC59F74E859194919093BE02809320
:1040B000BD028CE0849FF001859FF00D1124EA5928
:1040C000F74E859194919093BC028093BB028CE053
:1040D000849FF001859FF00D1124E859F74E8591DA
:1040E00094919093BA028093B9028CE0849FF0017E
:1040F000859FF00D1124E659F74E85919491909388
:10410000B8028093B70207C04F5F5F4F1C964C30D8
:10411000510509F0B5CF1F910F9108952091B70275
:104120003091B802232B09F435C05FB7F894419859
:10413000E091B702F091B802359620E031972FEF69
:10414000EF3FF207D9F728E030E091E060E0492F37
:10415000482311F0419A01C04198E091B702F091D3
:10416000B802462F31974FEFEF3FF407D9F7990F79
:10417000215031092115310551F7419A5FBF7894DB
:104180008091B7029091B80220E001972FEF8F3F06
:104190009207D9F708951F93CF93DF93EC0110E0B6
:1041A000FE01E10FF11D8081882331F01F3F21F0D6
:1041B0000E948E201F5FF4CFDF91CF911F91089551
:1041C000CF93DF93FC018491EF012196882321F0A6
:1041D0000E948E20FE01F7CFDF91CF9108956115E7
:1041E00071058105910511F00C9407230895CF9373
:1041F000DF9300D000D0CDB7DEB79B01AC016115D5
:1042000071058105910569F069833A834B835C836D
:104210000E94022329813A814B815C810E94022203
:1042200003C060E070E0CB010F900F900F900F90F3
:10423000DF91CF910895CF92DF92EF92FF926B01C1
:104240007C01621773078407950764F4CA01B901FA
:104250006C197D098E099F090E94F7206C0D7D1D48
:104260008E1D9F1DFF90EF90DF90CF9008954F928D
:104270005F926F927F92AF92BF92CF92DF92EF9256
:10428000FF920F931F93CF93DF93CDB7DEB7290132
:104290003A01621B730B840B950B29893A894B8970
:1042A0005C892A193B094C095D09298B3A8B4B8B98
:1042B0005C8B9B01AC0169897A898B899C890E94FE
:1042C000BC21E418F50806091709A80197010E9406
:1042D00002222A0D3B1D4C1D5D1DCA01B901DF9153
:1042E000CF911F910F91FF90EF90DF90CF90BF90F3
:1042F000AF907F906F905F904F900895009711F06E
:104300000C94A8220895CF93DF93EC01009731F02D
:104310000E94A322BE010E94CC2102C080E090E056
:10432000DF91CF910895CF93DF93EC018617970724
:104330003CF4CB018C1B9D0B0E9483218C0F9D1F95
:10434000DF91CF9108950F931F93FC01E61BF70BAC
:10435000021B130BE09FC001E19F900DF09F900D99
:104360001124461B570BBA010E94CC21CB01820FAE
:10437000931F1F910F910895DB018F939F930E94CC
:104380002722BF91AF91A29F800D911DA39F900DF9
:10439000B29F900D1124089597FB072E16F40094F8
:1043A00007D077FD09D00E94322207FC05D03EF4E9
:1043B000909581959F4F0895709561957F4F0895D1
:1043C000A1E21A2EAA1BBB1BFD010DC0AA1FBB1F19
:1043D000EE1FFF1FA217B307E407F50720F0A21B8B
:1043E000B30BE40BF50B661F771F881F991F1A94F8
:1043F00069F760957095809590959B01AC01BD0122
:10440000CF010895052E97FB1EF400940E941922F7
:1044100057FD07D00E94E02107FC03D04EF40C9416
:10442000192250954095309521953F4F4F4F5F4F42
:10443000089590958095709561957F4F8F4F9F4F10
:104440000895EE0FFF1F0590F491E02D09940E944E
:104450004622A59F900DB49F900DA49F800D911DA5
:1044600011240895AA1BBB1B51E107C0AA1FBB1F43
:10447000A617B70710F0A61BB70B881F991F5A95F0
:10448000A9F780959095BC01CD010895A29FB00138
:10449000B39FC001A39F700D811D1124911DB29F78
:1044A000700D811D1124911D08958F929F92AF92DE
:1044B000BF92CF92DF92EF92FF92CF93DF93EC0106
:1044C000688179818A819B816115710581059105DA
:1044D00021F464E279ED8BE597E02DE133EF41E0E3
:1044E00050E00E94022249015A019B01AC01A7EA57
:1044F000B1E40E9427226B017C01ACEEB4EFA50170
:1045000094010E944A29C60ED71EE81EF91EF7FE26
:1045100006C081E0C81AD108E10880E8F80AC8821C
:10452000D982EA82FB82C6019F77DF91CF91FF900B
:10453000EF90DF90CF90BF90AF909F908F900895B5
:104540000E945522089580E091E00E94552208952E
:10455000A0E0B0E08093000190930101A0930201DC
:10456000B093030108958F929F92AF92BF92CF9222
:10457000DF92EF92FF92CF93DF93EC016881798114
:104580008A819B81611571058105910521F464E2A1
:1045900079ED8BE597E02DE133EF41E050E00E94AB
:1045A000022249015A019B01AC01A7EAB1E40E9431
:1045B00027226B017C01ACEEB4EFA50194010E94AF
:1045C0004A29C60ED71EE81EF91EF7FE06C081E076
:1045D000C81AD108E10880E8F80AC882D982EA82BC
:1045E000FB82C701B6019F77DF91CF91FF90EF90DB
:1045F000DF90CF90BF90AF909F908F9008950E94D2
:10460000B322089584E091E00E94B322089560935C
:1046100004017093050180930601909307010895AA
:10462000FC0188279927E89421912032E9F3293069
:1046300010F02E30C8F32B3241F02D3239F468944B
:1046400004C00E946A23820F911D219120532A30B9
:10465000C0F31EF4909581959F4F089546E752E070
:104660000E9443230895FB01DC018D910190801984
:104670000110D9F3990B0895FB01DC0101900D9213
:104680000020E1F70895FA01A191B081009719F493
:104690001097E1F0CD01DC01CD010D90002011F467
:1046A000C00113C0FB012191222319F02015D9F775
:1046B000F3CFFB012191201519F41E92119606C02B
:1046C0002223C1F70D900020A1F7D001FA01A19398
:1046D000B08308957AE0979F902D879F802D910D4C
:1046E00011240895AEE0B0E0E8E7F3E20C945D2910
:1046F0000D891E8986E08C831A8309838FEF9FE7DB
:104700009E838D83AE01475E5F4F6F89788DCE01AA
:1047100001960E94AD23EF81F885E00FF11F108212
:104720002E96E4E00C947929AEE0B0E0EAE9F3E2F9
:104730000C945F2985E08C838B899C899A8389837B
:10474000AE01495E5F4F6D897E89CE0101960E9460
:10475000FD262E96E2E00C947B29ACE0B0E0E3EB82
:10476000F3E20C944F297C016B018A01FC01178252
:104770001682838181FFBDC1CE0101964C01F701F4
:104780009381F60193FD859193FF81916F018823B9
:1047900009F4ABC1853239F493FD859193FF819182
:1047A0006F01853229F4B70190E00E949B28E7CF82
:1047B000512C312C20E02032A0F48B3269F030F4FF
:1047C000803259F0833269F420612CC08D3239F087
:1047D000803339F4216026C02260246023C0286021
:1047E00021C027FD27C030ED380F3A3078F426FF7E
:1047F00006C0FAE05F9E300D1124532E13C08AE0EC
:10480000389E300D1124332E20620CC08E3221F4DC
:1048100026FD6BC1206406C08C3611F4206802C0EE
:10482000883641F4F60193FD859193FF81916F01E4
:104830008111C1CF982F9F7D9554933028F40C5F40
:104840001F4FFFE3F9830DC0833631F0833771F0DA
:10485000833509F05BC022C0F801808189830E5F37
:104860001F4F44244394512C540115C03801F2E0E9
:104870006F0E711CF801A080B18026FF03C0652D6A
:1048800070E002C06FEF7FEFC5012C870E945228B5
:104890002C0183012C852F77222E17C03801F2E0DE
:1048A0006F0E711CF801A080B18026FF03C0652D3A
:1048B00070E002C06FEF7FEFC5012C870E94472890
:1048C0002C012C852068222E830123FC1BC0832D04
:1048D00090E048165906B0F4B70180E290E00E94DB
:1048E0009B283A94F4CFF50127FC859127FE81910E
:1048F0005F01B70190E00E949B2831103A94F1E0EB
:104900004F1A51084114510471F7E5C0843611F073
:10491000893639F5F80127FF07C0608171818281EE
:1049200093810C5F1F4F08C060817181882777FDDC
:104930008095982F0E5F1F4F2F76B22E97FF09C0DC
:1049400090958095709561957F4F8F4F9F4F206810
:10495000B22E2AE030E0A4010E94E628A82EA81872
:1049600044C0853729F42F7EB22E2AE030E025C0DE
:10497000F22FF97FBF2E8F36C1F018F4883579F009
:10498000B4C0803719F0883721F0AFC02F2F2061D5
:10499000B22EB4FE0DC08B2D8460B82E09C024FF4A
:1049A0000AC09F2F9660B92E06C028E030E005C0EF
:1049B00020E130E002C020E132E0F801B7FE07C09C
:1049C00060817181828193810C5F1F4F06C060817D
:1049D000718180E090E00E5F1F4FA4010E94E628E5
:1049E000A82EA818FB2DFF77BF2EB6FE0BC02B2DCF
:1049F0002E7FA51450F4B4FE0AC0B2FC08C02B2DC3
:104A00002E7E05C07A2C2B2D03C07A2C01C0752C6C
:104A100024FF0DC0FE01EA0DF11D8081803311F4E9
:104A2000297E09C022FF06C07394739404C0822FAC
:104A3000867809F0739423FD13C020FF06C05A2C1A
:104A4000731418F4530C5718732C731468F4B701CB
:104A500080E290E02C870E949B2873942C85F5CFF0
:104A6000731410F4371801C0312C24FF12C0B701A1
:104A700080E390E02C870E949B282C8522FF17C0A2
:104A800021FF03C088E590E002C088E790E0B7010D
:104A90000CC0822F867859F021FD02C080E201C04F
:104AA0008BE227FD8DE2B70190E00E949B28A514C0
:104AB00038F4B70180E390E00E949B285A94F7CF26
:104AC000AA94F401EA0DF11D8081B70190E00E94E3
:104AD0009B28A110F5CF332009F451CEB70180E215
:104AE00090E00E949B283A94F6CFF7018681978147
:104AF00002C08FEF9FEF2C96E2E10C946B2920FD12
:104B000009C0FC0123FD05C022FF02C0738362833C
:104B100051834083089544FD10C046FD10C0DB0161
:104B2000FC01AA0FBB1FEE1FFF1F1094D1F76A0FE5
:104B30007B1F8E1F9F1F31E003C033E001C034E0B4
:104B4000660F771F881F991F3150D1F7620F711DB3
:104B5000811D911D08950F931F93CF93DF938C01B7
:104B6000C8010E945D28EC0197FD08C00E9434280E
:104B7000892BB1F7B801CE010E94CD28CE01DF917B
:104B8000CF911F910F9108958F929F92AF92CF92E4
:104B9000DF92EF92FF920F931F93CF93DF93EC017D
:104BA000A62E4A01022F0E945D28AC0155274B32E8
:104BB000510521F04D32510551F40068AA9411F4C9
:104BC00080E067C0CE010E945D2897FDF9CF102FCD
:104BD0001D7F302F307301F58033F1F4FF24FA94F8
:104BE000FA0C09F442C0CE010E945D2897FD3DC039
:104BF000382F3F7D383551F41264AA94AA94A9F154
:104C0000CE010E945D2897FF07C02FC006FF02C09B
:104C1000126001C01261AF2CC12CD12C760120EDA5
:104C2000280F283080F014FF04C0BE010E94CD2858
:104C300019C02A3040F016FFF8CF2F7D3FEE320F1B
:104C4000363098F72750412FC701B6010E948B25B7
:104C50006B017C011260AA9459F0CE010E945D287C
:104C600097FFDDCF11FD04C0ABCFC12CD12C760155
:104C700017FF08C0F094E094D094C094C11CD11CDC
:104C8000E11CF11C212FB701A601C4010E947F2560
:104C900081E0DF91CF911F910F91FF90EF90DF9016
:104CA000CF90AF909F908F900895A1E2B0E0EBE598
:104CB000F6E20C9454295C017A018E010F5F1F4FBC
:104CC000680180E2D8011D928A95E9F7F5017380A9
:104CD00040E050E0812CB0E0912C81E090E0F901BF
:104CE00073FCA59173FEA1918F017A2F9F01A111F1
:104CF00003C080E090E07DC0AE3519F44115510548
:104D000059F1E92DF0E0E417F5073CF4AD3569F110
:104D1000AD3219F4BB2319F103C0B11101C08A2EC1
:104D2000E72FE695E695E69586010E0F111DF80131
:104D3000A72FA7708C0102C0000F111FAA95E2F7E0
:104D4000D801B081BA2BB083781559F0781510F4DA
:104D50007F5FE6CF7150E4CF9924939403C0B1E014
:104D600001C0B0E04F5F5F4FBACFBB2319F08E8117
:104D700080628E83911003C09924939415C0F6012C
:104D8000CE018196208120952193E817F907D1F76C
:104D9000F3CFE114F10429F0D7018C93F701319698
:104DA0007F01615001F1912CC50169A30E945D282A
:104DB00069A197FD16C0282F269526952695F60100
:104DC000E20FF11D208130E0AC014770552702C091
:104DD000359527954A95E2F720FDDBCFB5010E9476
:104DE000CD28911086CFE114F10411F0D7011C9267
:104DF000C801A196EDE00C9470294F925F927F92CA
:104E00008F929F92AF92BF92CF92DF92EF92FF92DA
:104E10000F931F93CF93DF931F92CDB7DEB78C0113
:104E20002B017A01FC0117821682A12CF801D38094
:104E3000F201D3FC8591D3FE8191382F2F01882375
:104E400009F4FCC090E039830E9434283981892B11
:104E500021F0C8010E94AB25E9CF353241F4F201BF
:104E6000D3FC3591D3FE31912F01353269F4C8015D
:104E700039830E945D28398197FDDEC03817B1F271
:104E8000B8010E94CD28DAC03A3241F4D3FC359102
:104E9000D3FE31912F01BB24B39401C0B12C712CEE
:104EA00020ED230F2A3090F4FB2DF260BF2E672DEA
:104EB00070E080E090E040E20E948B25762EF201C7
:104EC000D3FC3591D3FE31912F01EACFB1FE03C05F
:104ED000711003C0B3C077247A94383619F03C3689
:104EE00061F014C0F201D3FC3591D3FE31912F0152
:104EF000383661F4FB2DF860BF2E8B2D8460B82E00
:104F0000F201D3FC3591D3FE31912F01332309F403
:104F100095C0632F70E080EF98E139830E943C28B0
:104F20003981892B09F48AC0B0FC07C0F701C08021
:104F3000D180C70102967C0102C0C12CD12C3E3623
:104F400051F4F8014681578160E070E02B2DC601D5
:104F50000E947F256BCF3336A1F4B1FC02C07724C9
:104F60007394C8010E945D2897FD66C0C114D104E6
:104F700029F0F6018083C60101966C017A9489F7C5
:104F800057C03B3559F49201A601672DC8010E9414
:104F900055262C01009709F04BC045C0C801398344
:104FA0000E94AB25398197FD47C03F3669F128F44F
:104FB000343631F1393679F12BC0333769F0353772
:104FC000F9F026C0C114D10429F0F6018082C6018F
:104FD00001966C017A9471F0C8010E945D284C0121
:104FE00097FD08C00E943428892B61F3B801C401E1
:104FF0000E94CD28C114D104D9F0F601108218C046
:10500000FB2DF062BF2E07C08B2D8061B82E03C030
:105010009B2D9064B92E2B2DA601672DC8010E94EF
:10502000C425811105C0F8018381807329F406C06D
:10503000B0FCFCCEA394FACEAA2019F08A2D90E001
:1050400002C08FEF9FEF0F90DF91CF911F910F91D3
:10505000FF90EF90DF90CF90BF90AF909F908F9098
:105060007F905F904F90089591110EC1803219F09A
:1050700089508550D0F70895FC010590061621F05F
:105080000020D9F7C00108953197CF010895FC01A0
:105090000590615070400110D8F7809590958E0F63
:1050A0009F1F0895FC016150704001900110D8F7D6
:1050B000809590958E0F9F1F0895CF93DF93EC01FD
:1050C0002B8120FF33C026FF0AC02F7B2B838E81CC
:1050D0009F8101969F838E838A8190E029C022FF61
:1050E0000FC0E881F9818081992787FD909500970D
:1050F00019F420622B831AC03196F983E8830EC01D
:10510000EA85FB85099597FF09C02B81019611F46B
:1051100080E101C080E2822B8B8308C02E813F8119
:105120002F5F3F4F3F832E83992702C08FEF9FEF62
:10513000DF91CF9108950F931F93CF93DF93182F93
:10514000092FEB018B8181FD03C08FEF9FEF20C002
:1051500082FF10C04E815F812C813D814217530731
:105160007CF4E881F9819F012F5F3F4F39832883C9
:10517000108306C0E885F985812F0995892B29F7C9
:105180002E813F812F5F3F4F3F832E83812F902FB2
:10519000DF91CF911F910F910895FB01238120FF93
:1051A00012C026FD10C08F3F3FEF930761F082834E
:1051B0002F7D206423832681378121503109378355
:1051C0002683992708958FEF9FEF0895FA01AA2764
:1051D000283051F1203181F1E8946F936E7F6E5F3A
:1051E0007F4F8F4F9F4FAF4FB1E03ED0B4E03CD0E8
:1051F000670F781F891F9A1FA11D680F791F8A1FCB
:10520000911DA11D6A0F711D811D911DA11D20D031
:1052100009F468943F912AE0269F11243019305DEB
:105220003193DEF6CF010895462F4770405D4193DC
:10523000B3E00FD0C9F7F6CF462F4F70405D4A3329
:1052400018F0495D31FD4052419302D0A9F7EACFF1
:10525000B4E0A6959795879577956795BA95C9F720
:1052600000976105710508959B01AC010A2E069413
:105270005795479537952795BA95C9F7620F731FCC
:10528000841F951FA01D0895992788270895B7FFAB
:105290000C9427220E942722821B930B08952F92A1
:1052A0003F924F925F926F927F928F929F92AF92B6
:1052B000BF92CF92DF92EF92FF920F931F93CF9303
:1052C000DF93CDB7DEB7CA1BDB0B0FB6F894DEBF9A
:1052D0000FBECDBF09942A88398848885F846E84C0
:1052E0007D848C849B84AA84B984C884DF80EE800A
:1052F000FD800C811B81AA81B981CE0FD11D0FB613
:10530000F894DEBF0FBECDBFED010895F894FFCF36
:105310000100000001000000320900090009000935
:10532000000900090009000900090009000F000F29
:10533000000F000F000F000F000F000F000F000FF5
:105340000019001900190019001900190019001995
:1053500000190019001312070403191919192A4812
:105360003030300D00403054310D00257800256379
:10537000002564002575002A4F4E30300D002A5359
:105380005430300D002A524430300D002A4630256A
:105390003032640D002A4631253032640D002A482F
:1053A00030253032640D002A524330310D002A4D31
:1053B0004F253032640D002A4D46253032640D00F1
:1053C000403054350D00403054320D0040305734D9
:1053D0000D0040305439320D00403054340D00403F
:1053E000305731300D00403054360D0040334D0001
:1053F0004033543130300D00243230350024383001
:10540000370024383038002453002432313300244C
:10541000440024333400243336002463002446003F
:10542000244300244C002425316425326400245296
:1054300000247300535441522057415253202020DE
:105440000053544152205452454B202020002853F1
:10545000657175656E63652025303264206E6F74EA
:1054600020696D706C656D656E74656429200D0A28
:10547000005345004F5000434C005243005354002A
:0654800048440005000095
:00000001FF
