:100000000C94690C0C94860C0C94860C0C94860C45
:100010000C94860C0C94860C0C94860C0C94860C18
:100020000C94860C0C94860C0C94CB1E0C94860CB1
:100030000C94860C0C943D1E0C9447190C94860C61
:100040000C94860C0C94860C0C94B41B0C94ED1B35
:100050000C94860C0C94860C0C94860C0C94860CD8
:100060000C94860C0C94860C9E14B314D214E814D1
:1000700000151615341551156D158B15AD15CD15CB
:10008000ED15FE151E16401652166F16DA16DA1604
:10009000DA16DA16DA16DA16DA16DA16DA16DA16E0
:1000A000DA16DA16DA16DA16DA16DA16DA16DA16D0
:1000B000DA16DA16DA16DA16DA16DA16DA16DA16C0
:1000C000DA16DA16DA16DA16DA16DA16DA168A1600
:1000D00094169C16A416AC16BE16C816496E766108
:1000E0006C6964204D5033547269676765722053A0
:1000F0006F756E6420436F6D6D616E640028506192
:100100006E656C20576176652042796529200D0A5D
:1001100000284D61787374616E6720576967676C5A
:10012000652050616E656C7329200D0A00284D61B1
:10013000726368696E6720416E74732050616E65EA
:100140006C7329200D0A0028527974686D69632048
:1001500050616E656C7329200D0A00285363726527
:10016000616D204E6F2050616E656C7329200D0A01
:10017000002853657420746F204578636974656442
:1001800029200D0A002853657420746F204177617F
:100190006B6529200D0A0028416C6C207069652070
:1001A00070616E656C7320746F20524329200D0AB4
:1001B000002853657420746F205769646520417767
:1001C000616B6529200D0A002853657420746F2027
:1001D000517569657429200D0A0028446973636F9D
:1001E0002044616E636529200D0A00284C65696111
:1001F000204D65737361676529200D0A00284361EE
:100200006E74696E612044616E636529200D0A0079
:100210002853686F7274204369726375697429206A
:100220000D0A002843616E74696E61204D6172632E
:1002300068696E6720416E747329200D0A00284F8B
:1002400070656E20436C6F73652057617665292059
:100250000D0A002846617374205761766529200DC8
:100260000A00285761766529200D0A002853637219
:1002700065616D29200D0A0028436C6F736520614C
:100280006C6C2070616E656C7329200D0A002A2A3F
:10029000496E76616C69642050616E656C20436FB5
:1002A0006D6D616E640D0A002A2A496E76616C6973
:1002B000642049324320436F6D6D616E640D0A0006
:1002C000416C743220636F6D6D616E642C20666FBB
:1002D000727761726420746F20736C6176650D0AA9
:1002E00000416C743120636F6D6D616E642C206F02
:1002F000757470757420746F20736F756E640D0A59
:1003000000536F756E6420636F6D6D616E640D0ACE
:1003100000446973706C617920636F6D6D616E6408
:100320000D0A00485020636F6D6D616E640D0A0008
:10033000496E697469616C697A696E672E2E2E0D3B
:100340000A002A2A556E7265636F676E697A656462
:1003500020436F6D6D616E6420537461727420432D
:1003600068617261637465720D0A000A0D737561CC
:1003700072743220436F6D6D756E69636174696F5D
:100380006E204F4B200A0D000A0D73756172743197
:1003900020436F6D6D756E69636174696F6E204F78
:1003A0004B200A0D00456E7465722070616E656C9D
:1003B00020636F6D6D616E64207374617274696E19
:1003C00067207769746820273A27200A0D000A0DF4
:1003D0004D6172634475696E6F204D61737465720F
:1003E0002076312E37200A0D004F4B0A0D000F00EA
:1003F000D007D007D007D007D007D007D007D00745
:10040000D007D0070F00E803D007D007D007D007E8
:10041000D007D007D007D007D0070F00D007E803D8
:10042000D007D007D007D007D007D007D007D00714
:100430000F00D007D007E803D007D007D007D007B8
:10044000D007D007D0070F00D007D007D007E803A8
:10045000D007D007D007D007D007D0070F00D007AC
:10046000D007D007D007E803D007D007D007D007C0
:10047000D0070F00D007D007D007D007D007E80378
:10048000D007D007D007D0070F00D007D007D0077C
:10049000D007D007D007E803D007D007D0070F0058
:1004A000D007D007D007D007D007D007D007E80380
:1004B000D007D0070F00D007D007D007D007D0074C
:1004C000D007D007D007E803D0070F00D007D00728
:1004D000D007D007D007D007D007D007D007E80350
:1004E0000F00D007D007D007D007D007D007D0071C
:1004F000D007D007D0070F00D007D007D007D0070C
:10050000D007D007D007D007D007E8030F00D007E7
:10051000D007D007D007D007D007D007D007E8030F
:10052000D0070F00D007D007D007D007D007D007DB
:10053000D007E803D007D0070F00D007D007D007B7
:10054000D007D007D007E803D007D007D0070F00A7
:10055000D007D007D007D007D007E803D007D007CF
:10056000D007D0070F00D007D007D007D007E80387
:10057000D007D007D007D007D0070F00D007D0078B
:10058000D007E803D007D007D007D007D007D0079F
:100590000F00D007D007E803D007D007D007D00757
:1005A000D007D007D0070F00D007E803D007D00747
:1005B000D007D007D007D007D007D0070F00E80337
:1005C000D007D007D007D007D007D007D007D00773
:1005D000D0070F00D007D007D007D007D007D0072B
:1005E000D007D007D007D007A08CFFFFFFFFFFFF89
:1005F000FFFFFFFFFFFFFFFFFFFFFFFFFFFF980869
:10060000FFFFFFFFFFFFFFFFFFFFFFFFFFFFFFFFFA
:10061000FFFFFFFF0000FFFFFFFFFFFFFFFFFFFFE8
:10062000FFFFFFFFFFFFFFFFFFFF6400D007D007C2
:10063000D007D007D007D007D007D007D007D00702
:100640000000FFFFFFFFFFFFFFFFFFFFFFFFFFFFB8
:10065000FFFFFFFFFFFF1400D007D007D007D00730
:10066000D007D007D007D007D007D0072D00D0077C
:10067000D007D007D007D007D007E803D007D007AE
:10068000D0072D00D007D007D007D007D007D0075C
:10069000E803E803D007D0072D00D007D007D00724
:1006A000D007D007D007E803E803E803D0072D0000
:1006B000D007D007D007D007D007D007E803E8035A
:1006C000E803E8032D00D007D007D007D007D007F4
:1006D000D007E803E803E803D0072D00D007D007D0
:1006E000D007D007D007D007E803E803D007D0072A
:1006F0002D00D007D007D007D007D007D007E803D8
:10070000D007D007D0072D00D007D007D007D007DB
:10071000D007D007D007D007D007D0072D00E803B7
:10072000D007D007D007D007D007D007D007D00711
:10073000D0072D00E803E803D007D007D007D00783
:10074000D007D007D007D0072D00E803E803E8035F
:10075000D007D007D007D007D007D007D0072D008B
:10076000E803E803E803E803D007D007D007D00781
:10077000D007D0072D00D007E803E803E803D0072F
:10078000D007D007D007D007D0072D00D007D0075B
:10079000E803E803D007D007D007D007D007D00779
:1007A0002D00D007D007D007E803D007D007D00727
:1007B000D007D007D0072D00D007D007D007D0072B
:1007C000D007D007D007D007D007D0072D00D0071B
:1007D000D007D007D007D007D007E803D007E80339
:1007E000D0072D00D007D007D007D007D007D007FB
:1007F000D007D007D007D0072D00D007D007D007EB
:10080000D007D007D007D007E803D007E8032D00B2
:10081000D007D007D007D007D007D007D007D00720
:10082000D007D0072D00D007D007D007D007D007BA
:10083000D007E803E803E803E8032D00D007D0075A
:10084000D007D007D007D007D007E803D007E803C8
:100850002D00D007D007D007D007D007D007E80376
:10086000D007E803D0072D00D007D007D007D00766
:10087000D007D007D007D007D007D0072D00D0076A
:10088000D007D007D007E803D007D007D007D0079C
:10089000D0072D00D007D007D007D007D007D0074A
:1008A000D007D007D007D0072D00D007D007D0073A
:1008B000D007D007E803D007D007D007D0072D0016
:1008C000D007D007D007D007D007D007D007D00770
:1008D000D007D0072D00E803E803E803E803E803A6
:1008E000E803D007D007D007D0072D00D007E803D2
:1008F000E803E803E803E803D007D007D007D007F0
:100900002D00D007D007D007E803E803E803D0079D
:10091000D007D007D0072D00D007D007D007D007C9
:10092000D007D007D007D007D007D0072D00D007B9
:10093000E803D007E803D007D007D007D007D007D7
:10094000D0072D00D007D007D007D007D007D00799
:10095000D007D007D007D0072D00E803D007E80361
:10096000D007D007D007D007D007D007D0072D0079
:10097000D007D007D007D007D007D007D007D007BF
:10098000D007D0072D00D007D007D007D007D00759
:10099000D007D007E803D007E8032D00D007D00721
:1009A000D007D007D007D007E803D007E803D00767
:1009B0002D00D007D007D007D007D007D007D00729
:1009C000E803D007E8032D00D007D007D007D007F1
:1009D000D007D007D007D007D007D0072D00D00709
:1009E000D007D007D007D007D007E803E803E80313
:1009F000E8032D00D007D007D007D007D007D007D5
:100A0000D007E803D007E8032D00D007D007D007B0
:100A1000D007D007D007E803D007E803D0072D00A0
:100A2000D007D007D007D007D007D007D007E803FA
:100A3000D007E8032D00D007D007D007D007D00794
:100A4000D007E803D007E803D0072D00D007D00770
:100A5000D007D007D007D007D007E803D007E803B6
:100A60002D00E803D007E803D007E803D007E80328
:100A7000D007E803D0072D00D007D007D007D00754
:100A8000D007D007D007D007D007D0072D00D00758
:100A9000D007D007D007D007D007E803D007E80376
:100AA000D0072D00D007D007D007D007D007D00738
:100AB000D007E803D007E8032D00D007D007D00700
:100AC000D007D007D007E803D007E803D0072D00F0
:100AD000D007D007D007D007D007D007D007E8034A
:100AE000D007E8032D00E803D007E803D007E803A8
:100AF000D007E803D007E803D0072D00D007E803AC
:100B0000D007E803D007E803D007E803D007E803DD
:100B10002D00E803D007E803D007E803D007E80377
:100B2000D007E803D0072D00D007D007D007D007A3
:100B3000D007D007D007D007D007D0072D00E80393
:100B4000E803D007D007D007D007D007D007D007D9
:100B5000D0072D00D007D007E803E803D007D0075F
:100B6000D007D007D007D0072D00D007D007D00777
:100B7000D007E803E803D007D007D007D0072D003F
:100B8000D007D007D007D007D007D007D007D007AD
:100B9000D007D0072D00E803E803D007D007E8030B
:100BA000E803D007D007E803E8032D00D007D007FB
:100BB000E803E803D007D007E803E803D007D0072D
:100BC0002D00E803E803D007D007E803E803D007C7
:100BD000D007E803E8032D00D007D007D007D007DF
:100BE000D007D007D007D007D007D0072D00E803E3
:100BF000D007D007D007D007D007D007D007D0073D
:100C0000D0072D00D007D007D007D007D007D007D6
:100C1000D007D007D007D0072D00D007E803D007B2
:100C2000D007D007D007D007D007D007D0072D00B6
:100C3000D007D007D007D007D007D007D007D007FC
:100C4000D007D0072D00E803E803E803D007D0075A
:100C5000D007D007D007D007D0072D00D007E80372
:100C6000E803D007D007D007D007D007D007D007B8
:100C70002D00D007D007E803D007D007D007D00752
:100C8000D007D007D0072D00D007D007D007D00756
:100C9000D007D007D007D007D007D0072D00D00746
:100CA000D007D007D007D007D007E803D007E80364
:100CB000D0072D00D007D007D007D007D007D00726
:100CC000D007D007D007D0072D00D007D007D00716
:100CD000D007D007D007D007E803D007E8032D00DE
:100CE000D007D007D007D007D007D007D007D0074C
:100CF000D007D0072D00D007D007D007D007D007E6
:100D0000D007E803D007E803D0072D00D007D007AD
:100D1000D007D007D007D007D007E803D007E803F3
:100D20002D00D007D007D007D007D007D007E803A1
:100D3000D007E803D0072D00D007D007D007D00791
:100D4000D007D007D007D007D007D0072D00E80381
:100D5000D007E803D007E803D007E803D007E8038B
:100D6000D0072D00D007D007D007D007D007D00775
:100D7000D007D007D007D0072D00D007E803D00751
:100D8000E803D007E803D007E803D007E8032D0005
:100D9000D007D007D007D007D007D007D007D0079B
:100DA000D007D0072D00E803E803E803E803E803D1
:100DB000E803E803E803E803E8032D00D007D007C1
:100DC000D007D007D007D007E803E803E803E8031B
:100DD0002D00E803E803E803E803E803E803D0078D
:100DE000D007D007D0072D00D007D007D007D007F5
:100DF000D007D007D007D007D007D0070000FFFFEB
:100E0000FFFFFFFFFFFFFFFFFFFFFFFFFFFFFFFFF2
:100E1000FFFF1400D007D007D007D007D007D007B6
:100E2000D007D007D007D0073200E803D007E80387
:100E3000D007E803D007E803D007E803D007320063
:100E4000D007E803D007E803D007E803D007E8039A
:100E5000D007E8033200E803D007E803D007E8032F
:100E6000D007E803D007E803D0073200D007E80333
:100E7000D007E803D007E803D007E803D007E8036A
:100E80003200E803D007E803D007E803D007E803FF
:100E9000D007E803D0073200D007E803D007E80303
:100EA000D007E803D007E803D007E8033200E803DF
:100EB000D007E803D007E803D007E803D007E8032A
:100EC000D0073200D007E803D007E803D007E803D3
:100ED000D007E803D007E8033200E803D007E803AF
:100EE000D007E803D007E803D007E803D0073200B3
:100EF000D007E803D007E803D007E803D007E803EA
:100F0000D007E8033200E803D007E803D007E8037E
:100F1000D007E803D007E803D0073200D007E80382
:100F2000D007E803D007E803D007E803D007E803B9
:100F30003200E803D007E803D007E803D007E8034E
:100F4000D007E803D0073200D007E803D007E80352
:100F5000D007E803D007E803D007E8033200E8032E
:100F6000D007E803D007E803D007E803D007E80379
:100F7000D0073200D007E803D007E803D007E80322
:100F8000D007E803D007E8033200E803D007E803FE
:100F9000D007E803D007E803D007E803D007320002
:100FA000D007E803D007E803D007E803D007E80339
:100FB000D007E8033200E803D007E803D007E803CE
:100FC000D007E803D007E803D0073200D007E803D2
:100FD000D007E803D007E803D007E803D007E80309
:100FE0003200E803D007E803D007E803D007E8039E
:100FF000D007E803D0073200D007E803D007E803A2
:10100000D007E803D007E803D007E8033200E8037D
:10101000D007E803D007E803D007E803D007E803C8
:10102000D0073200D007E803D007E803D007E80371
:10103000D007E803D007E8033200E803D007E8034D
:10104000D007E803D007E803D007E803D007320051
:10105000D007E803D007E803D007E803D007E80388
:10106000D007E8033200E803D007E803D007E8031D
:10107000D007E803D007E803D0073200D007E80321
:10108000D007E803D007E803D007E803D007E80358
:101090003200E803D007E803D007E803D007E803ED
:1010A000D007E803D0073200D007E803D007E803F1
:1010B000D007E803D007E803D007E8036400D007AF
:1010C000D007D007D007D007D007D007D007D00768
:1010D000D0070000FFFFFFFFFFFFFFFFFFFFFFFF45
:1010E000FFFFFFFFFFFFFFFF1400D007D007D0076F
:1010F000D007D007D007D007D007D007D0071400FB
:10110000E803D007D007D007D007D007D007D00713
:10111000D007D0071400E803E803D007D007D007B2
:10112000D007D007D007D007D0071400E803E803A2
:10113000E803D007D007D007D007D007D007D007E3
:101140001400E803E803E803E803D007D007D0075A
:10115000D007D007D0071400E803E803E803E8034A
:10116000E803D007D007D007D007D0071400E80362
:10117000E803E803E803E803E803D007D007D00753
:10118000D0071400E803E803E803E803E803E803F2
:10119000E803D007D007D0071400E803E803E8030A
:1011A000E803E803E803E803E803D007D0071400E6
:1011B000E803E803E803E803E803E803E803E803D7
:1011C000E803D0075000E803E803E803E803E80376
:1011D000E803E803E803E803E8031400D007E803A2
:1011E000E803E803E803E803E803E803E803E803A7
:1011F0001400D007D007E803E803E803E803E80396
:10120000E803E803E8031400D007D007D007E80399
:10121000E803E803E803E803E803E8031400D00761
:10122000D007D007D007E803E803E803E803E803A2
:10123000E8031400D007D007D007D007D007E80391
:10124000E803E803E803E8031400D007D007D00759
:10125000D007D007D007E803E803E803E803140049
:10126000D007D007D007D007D007D007D007E803B2
:10127000E803E8031400D007D007D007D007D00751
:10128000D007D007D007E803E8031400D007D00741
:10129000D007D007D007D007D007D007D007E80382
:1012A0002800D007D007D007D007D007D007D00735
:1012B000D007D007D0070000FFFFFFFFFFFFFFFFB1
:1012C000FFFFFFFFFFFFFFFFFFFFFFFF0F00D00744
:1012D000D007D007D007D007D007D007D007D00756
:1012E000D0070F00E803D007D007D007D007D007FA
:1012F000D007D007D007D0070F00D007E803D007EA
:10130000D007D007D007D007D007D007D0070F00ED
:10131000D007D007E803D007D007D007D007D00701
:10132000D007D0070F00D007D007D007E803D007B9
:10133000D007D007D007D007D0070F00D007D007BD
:10134000D007D007E803D007D007D007D007D007D1
:101350000F00D007D007D007D007D007E803D00789
:10136000D007D007D0070F00D007D007D007D0078D
:10137000D007D007E803D007D007D0070F00D00769
:10138000D007D007D007D007D007D007E803D00791
:10139000D0070F00D007D007D007D007D007D0075D
:1013A000D007D007E803D0070F00D007D007D00739
:1013B000D007D007D007D007D007D007E8030F0029
:1013C000D007D007D007D007D007D007D007D00765
:1013D000D007D0070F00D007D007D007D007D0071D
:1013E000D007D007D007D007E8030F00D007D007F9
:1013F000D007D007D007D007D007D007E803D00721
:101400000F00D007D007D007D007D007D007D007EC
:10141000E803D007D0070F00D007D007D007D007C8
:10142000D007D007E803D007D007D0070F00D007B8
:10143000D007D007D007D007E803D007D007D007E0
:10144000D0070F00D007D007D007D007E803D00798
:10145000D007D007D007D0070F00D007D007D0079C
:10146000E803D007D007D007D007D007D0070F0078
:10147000D007D007E803D007D007D007D007D007A0
:10148000D007D0070F00D007E803D007D007D00758
:10149000D007D007D007D007D0070F00E803D00748
:1014A000D007D007D007D007D007D007D007D00784
:1014B0000F00D007D007D007D007D007D007D0073C
:1014C000D007D007D0070000FFFFFFFFFFFFFFFF9F
:1014D000FFFFFFFFFFFFFFFFFFFFFFFF1E00D00723
:1014E000D007D007D007D007D007D007D007D00744
:1014F000D0071E00E803D007D007D007D007D007D9
:10150000D007D007D007D0071E00D007E803D007C8
:10151000D007D007D007D007D007D007D0071E00CC
:10152000D007D007E803D007D007D007D007D007EF
:10153000D007D0071E00D007D007D007E803D00798
:10154000D007D007D007D007D0071E00D007D0079C
:10155000D007D007E803D007D007D007D007D007BF
:101560001E00D007D007D007D007D007E803D00768
:10157000D007D007D0071E00D007D007D007D0076C
:10158000D007D007E803D007D007D0071E00D00748
:10159000D007D007D007D007D007D007E803D0077F
:1015A000D0071E00D007D007D007D007D007D0073C
:1015B000D007D007E803D0071E00D007D007D00718
:1015C000D007D007D007D007D007D007E8031E0008
:1015D000D007D007D007D007D007D007D007D00753
:1015E000D007D0070000FFFFFFFFFFFFFFFFFFFF57
:1015F000FFFFFFFFFFFFFFFFFFFF1400D007D00733
:10160000D007D007D007D007D007D007D007D00722
:101610003200E803E803E803E803E803E803E8032B
:10162000E803E803E8031400D007D007D007D00789
:10163000D007D007D007D007D007D0071400E803A1
:10164000E803E803E803E803E803E803E803E80342
:10165000E8031400D007D007D007D007D007D00781
:10166000D007D007D007D0071E00E803E803E8033F
:10167000E803E803E803E803E803E803E8031E00DF
:10168000D007D007D007D007D007D007D007D007A2
:10169000D007D0070A00E803E803E803E803E803FB
:1016A000E803E803E803E803E8034B00D007D007AA
:1016B000D007D007D007D007D007D007D007D00772
:1016C0000000FFFFFFFFFFFFFFFFFFFFFFFFFFFF28
:1016D000FFFFFFFFFFFF1400D007D007D007D007A0
:1016E000D007D007D007D007D007D0074B00E803BA
:1016F000E803D007D007D007D007D007D007D0071E
:10170000D0071E00D007D007D007D007D007D007DA
:10171000D007D007D007D0071E00E803E803D007A2
:10172000D007D007D007D007D007D007D0071E00BA
:10173000D007D007D007D007D007D007D007D007F1
:10174000D007D0071E00E803E803D007D007D00772
:10175000D007D007D007D007D0076400D007D00744
:10176000D007D007D007D007D007D007D007D007C1
:101770000000FFFFFFFFFFFFFFFFFFFFFFFFFFFF77
:10178000FFFFFFFFFFFF1400D007D007D007D007EF
:10179000D007D007D007D007D007D007E803E80369
:1017A000E803E803E803E803E803E803E803E803E1
:1017B000E8039600D007D007D007D007D007D0079E
:1017C000D007D007D007D0070000FFFFFFFFFFFFC3
:1017D000FFFFFFFFFFFFFFFFFFFFFFFFFFFF140003
:1017E000D007D007D007D007D007D007D007D00741
:1017F000D007D0072C01E803E803E803E803E80377
:10180000E803E803E803E803E8039600D007D007FD
:10181000D007D007D007D007D007D007D007D00710
:101820000000FFFFFFFFFFFFFFFFFFFFFFFFFFFFC6
:10183000FFFFFFFFFFFF00C20100010011001100C8
:101840000C0000E100000A002500250021000096A0
:1018500000001900390039003600127A00001F001C
:101860004600460044008070000022004D004D00FC
:101870004A00004B000036007500750072004038C9
:1018800000004A009C009C00990080250000720026
:10189000EC00EC00E900C0120000E900DA01DA0116
:1018A000D70160090000D701B603B603B303B00443
:1018B0000000B3036E076E076B072C010000DC0EFF
:1018C000C11DC11DBE1D6364696E6F70737578584C
:1018D0005B0011241FBECFEFD8E0DEBFCDBF12E00A
:1018E000A0E0B1E0EAE4F2E502C005900D92AE3569
:1018F000B107D9F724E0AEE5B2E001C01D92A13FE7
:10190000B207E1F70E94E2170C9423290C9400001F
:10191000CF93882391F1282F30E06623A1F0C901ED
:101920000197C62F49E1849FC00D1124F901EB5B9B
:10193000FE4F8081F901EE59FD4F861710F4808328
:101940001DC060831BC0853080F4F901EE59FD4F46
:1019500080818F5F8083D901AB5BBE4F9C919817CC
:1019600010F481E08083C08101C0C1E021503109C1
:1019700089E1289FC00D112401C0C62F84E70E9471
:101980002B208C2FCF910C942B201092B002109210
:10199000AF0281E08093600208951092600210927D
:1019A000B0021092AF02089580EB94E09093B002E1
:1019B0008093AF0280916002809361021092600276
:1019C0000895809161028093600208950C942B2009
:1019D0008A3030F4882311F06A3110F40C94880CAA
:1019E000089523E330E040E050E061E070E080E003
:1019F00090E00E94B820862F643110F481E017C077
:101A00006DEE680F633110F482E011C06BED680F6A
:101A1000683010F483E00BC064ED680F653010F49B
:101A200084E005C060ED680F643018F485E00C9424
:101A3000E80C0895809160028823E1F08091AF0264
:101A40009091B002892BB1F48091AF029091B002D5
:101A5000892B81F40E94F10C28EE33E040E050E045
:101A600068E572E080E090E00E94B8207093B002D8
:101A70006093AF0208956FEF80E00C94880C6EEFD6
:101A800080E00C94880CCF93C82F86E70E942B200F
:101A90008C2FCF910C942B208091080185508B3F87
:101AA00018F01092080102C080930801809108018B
:101AB0000C94430D20910801253620F084E6809394
:101AC000080109C084E690E0821B91090597B4F3F0
:101AD0002B5F20930801809108010C94430D82E351
:101AE000809308010C94430DE2E6F2E0119282E04B
:101AF000EB36F807D9F70E946F0D0E943B0D8FEA75
:101B000092E00C94BA188EEF809308010C94430D68
:101B10001092080180E00C94430D84E68093080144
:101B20000C94430D0F931F93CF93DF93EC01FC01B3
:101B300001900020E9F73197E81BF90B8881843286
:101B400009F0CEC00E2FE250E33008F0C9C0198171
:101B5000212F30E0205331092A30310598F40E94BA
:101B6000CD0C1053023031F0CE0102960E94AD220E
:101B7000682F01C060E0812FDF91CF911F910F91FD
:101B80000C94E80C1F3409F44FC000F5143409F428
:101B90007EC078F41D3209F483C0133409F455C0B3
:101BA0001B3209F09DC0DF91CF911F910F910C94D2
:101BB0004C0D1C3409F440C01D3409F487C01634A0
:101BC00009F08EC00E94D40C63E05DC0133609F4A6
:101BD0004EC078F4133509F453C0173509F472C0B8
:101BE000123509F07DC0DF91CF911F910F910C94B8
:101BF000C50C1D3609F45AC048F4163609F070C0F9
:101C0000DF91CF911F910F910C94880D103709F43B
:101C100053C0133709F064C00E94CD0CDF91CF91FF
:101C20001F910F910C943F0D0E94CD0CDF91CF912D
:101C30001F910F910C94830D0E94D40C61E087E0FA
:101C40000E94880C80E391E108C00E94D40C65E0FA
:101C500088E00E94880C80EE95E19093B00280931A
:101C6000AF02DF91CF911F910F910C94E10C0E9474
:101C7000D40C61E088E00E94880C8CE89AE0EDCFFB
:101C80000E94D40C61E086E00E94880CEACF0E949A
:101C9000D40C66E088E00E94880C80EB9AE9DDCFE6
:101CA000DF91CF911F910F910C945A0DDF91CF913D
:101CB0001F910F910C946F0DDF91CF911F910F9198
:101CC0000C948D0D0E94CD0C62E003C00E94CD0CDF
:101CD00063E088E0DF91CF911F910F910C94880C05
:101CE0008CED90E0DF91CF911F910F910C948D1CA2
:101CF000FC01A281B3819D012F5F3F4F8C919681A2
:101D0000915019F49181291B3109338322839683E1
:101D10002FB7F8949081915090832FBF0895FC01C4
:101D20001082758364837383628341834783468310
:101D30000895FC01908181819817B0F4A481B58148
:101D4000CD0101966C932781215019F42181821BCA
:101D500091092783958384839FB7F89480818F5F4F
:101D600080839FBF81E0089580E00895FC01208179
:101D70002223E1F30C94780EFC012081222321F030
:101D80000E94780E90E008958FEF9FEF0895FC0178
:101D9000208181E090E0211102C080E090E0089570
:101DA0008093BC0082E390E09093B2028093B102F2
:101DB0008091BC0087FD0DC08091B1029091B2026C
:101DC000892BB1F78091B900887F80936B0281E005
:101DD00008958091B900887F80936B0280E0089518
:101DE00080916B0208951092B90098E49093B80026
:101DF000882311F0449A459A8FEF8093BB0084E0CA
:101E00008093BC0081EB92E00C94BA181092BC0055
:101E1000089584E98093BC0082E390E09093B2023D
:101E20008093B1028091BC0084FF0DC08091B1020B
:101E30009091B202892BB1F78091B900887F80938D
:101E40006B0281E008958091B900887F80936B02D6
:101E500080E00895CF93DF93D82FC62F84EA0E94A5
:101E6000D00E811116C090916B02983011F0903114
:101E700081F48D2F880F8C2B8093BB0084E80E9407
:101E8000D00E811106C080916B02C13031F48034D4
:101E900031F00E94090F81E003C08831D1F780E062
:101EA000DF91CF9108958093BB0084E80E94D00E0B
:101EB000882321F00E94090F81E0089580916B0230
:101EC0008832C1F780E00895CF93DF93EC01662359
:101ED00011F084E801C084EC0E94D00E882321F028
:101EE0000E94090F81E004C08091BB00888380E0DC
:101EF000DF91CF910895DF92EF92FF920F931F939E
:101F0000CF93DF938B01F42EE22E6115710511F052
:101F1000411103C00E94090F11C060E00E942A0F06
:101F200081110CC0D02EC02FD12F8C2F8D198F1561
:101F300038F489910E94530F8823B9F381E004C0DB
:101F4000E1100E94090F80E0DF91CF911F910F9166
:101F5000FF90EF90DF900895BF92CF92DF92EF92C3
:101F6000FF920F931F93CF93DF931F92CDB7DEB7EE
:101F70008B01C42E6115710511F0411104C00E943E
:101F8000090F81E02CC061E00E942A0F8111F7CF78
:101F9000B12CD12C81E0C81AD108EB2CF12CEC1417
:101FA000FD0474F460E0CE0101960E94640F81117B
:101FB000E6CFF801EE0DFF1D89818083B394EDCF4C
:101FC00061E0CE0101960E94640F8111D8CFF80123
:101FD000EE0DFF1D898180830E94090F80E00F9024
:101FE000DF91CF911F910F91FF90EF90DF90CF90F5
:101FF000BF9008958EE491E00E94A11F2FEF81EE23
:1020000094E0215080409040E1F700C0000085E559
:1020100091E00E94A11F2FEF89EF90E021508040B6
:102020009040E1F700C000000C94011AE3EBF2E0ED
:1020300081E0819392E0ED3BF907D9F708958D3067
:1020400011F08A3021F48AE00E942C1C8DE00C945F
:102050002C1C382FCB0120916C02E22FF0E0E753CB
:10206000FD4F3D3049F4108210926C0269EC72E031
:102070000E94D92281E008953083203418F42F5F24
:1020800020936C0280E00895CF93DF93EC01809160
:102090006D02882321F083E293E00E948D1CCE0123
:1020A0000E94A11F8DE0DF91CF910C94641FCF930C
:1020B000DF93EC0180916D02882321F081E193E0B0
:1020C0000E948D1CCE010E94A11F8DE0DF91CF9157
:1020D0000C94641FCF93DF93EC0180916D028823F1
:1020E00021F081E093E00E948D1CCE01DF91CF9121
:1020F0000C94920DCF93DF93EC0180916D028823B5
:1021000021F081EE92E00E948D1CCE0101960E948A
:1021100068208DE0DF91CF910C942B20CF93DF933B
:10212000EC0180916D02882321F081EE92E00E9403
:102130008D1CCE010E94A11F8DE0DF91CF910C94E8
:10214000641FEF92FF920F931F93CF93DF9300D002
:10215000CDB7DEB77C018B01DA018C918732E1F1DA
:10216000883739F0823209F05BC0FA0131969EEF70
:102170002EC0CE0101969F938F938BE591E09F93A4
:102180008F934F5F5F4F5F934F930E9431230F9068
:102190000F900F900F900F900F90811102C080E070
:1021A00064C029813A812F3F310509F008F456C0F7
:1021B000F6CFD8012C91D701A20FB11D8C93D80175
:1021C0008C918F5F8C93882351F3915019F08191FA
:1021D0008111EFCF81E049C0CE0101969F938F938B
:1021E0008EE591E09F938F934F5F5F4F5F934F9387
:1021F0000E9431230F900F900F900F900F900F902F
:10220000882369F2F8019081F701E90FF11D9981A6
:102210009083D8019C919F5F9C93911126C0BFCF62
:10222000CE0101969F938F9381E691E09F938F93C8
:102230005F934F930E9431230F900F900F900F9058
:102240000F900F90882309F4AACF29813A81A90120
:1022500040585F4F4038514008F0A1CFF8019081BD
:10226000F701E90FF11D2083D4CF0F900F90DF917C
:10227000CF911F910F91FF90EF90089521E00C9462
:102280007B0F0F931F93CF93DF93CDB7DEB7C5506E
:10229000D1400FB6F894DEBF0FBECDBF8C01CB5F2F
:1022A000DE4F1882C550D1408CE290E0CD5FDE4F0A
:1022B00099838883C350D140623008F457C0F80135
:1022C0008081863209F052C0C8010E94A11F8DE0B2
:1022D0000E94641FBE016D5F7E4FC80101960E947F
:1022E000CB22009709F442C08E010F5F1E4F1F934F
:1022F0000F9324E631E03F932F939F938F930E9497
:102300003123F801208131810F900F900F900F90B1
:102310000F900F902F3F310548F5182F022F27FD02
:1023200025C0112319F1BE016D5F7E4F80E090E062
:102330000E94CB22AC01009749F0BE016B5F7E4F3B
:10234000CE0101960E94A110182FEBCF112371F03E
:10235000CB5FDE4F4881C550D140442339F0BE01E8
:102360006F5F7F4F802F0E943E1108C080916E02E8
:10237000882321F088EA92E00E948D1CCB5FDE4F1B
:102380000FB6F894DEBF0FBECDBFDF91CF911F9186
:102390000F910895CF9381110AC0C1E068EE73E0F8
:1023A0008C2F0E94DA1CCF5FCB30C1F71EC08B3060
:1023B00028F468EE73E0CF910C94DA1C8B3051F462
:1023C000C7E068EE73E08C2F0E94DA1CCF5FCB3041
:1023D000C1F70BC08C3049F4C1E068EE73E08C2F7C
:1023E0000E94DA1CCF5FC730C1F7CF910895CF9319
:1023F000DF93811116C0E3EBF2E0119282E0ED3B36
:10240000F807D9F70E944E1A8DE191E00E94061A52
:1024100062E08AE296E00E941C1ADF91CF910C9450
:10242000441A8B30A8F4C82FD0E02197FE01ED5458
:10243000FD4F108260ED77E00E94DA1C81E290E0AF
:102440009093BE028093BD02C154DD4F81E088832A
:10245000DF91CF9108958B3050F4811102C00C941C
:102460001610E82FF0E0EE54FD4F81E080830895D0
:102470001F93CF93DF938B30D8F481110DC0C3EB42
:10248000D2E011E019926FEF7FEF812F0E94DA1CEA
:102490001F5F1B30B9F70CC0E82FF0E0EE54FD4F82
:1024A00010826FEF7FEFDF91CF911F910C94DA1CB8
:1024B000DF91CF911F9108958B3078F4811108C07E
:1024C000E3EBF2E0119282E0ED3BF807D9F70895D3
:1024D000E82FF0E0EE54FD4F108208950E94011A9B
:1024E0008EE491E00E94A11F2FEF81EE94E0215035
:1024F00080409040E1F700C0000085E591E00E9437
:10250000A11F2FEF89EF90E0215080409040E1F72C
:1025100000C0000008958EE491E00C94A11F87E6AE
:1025200091E00C94A11F8EE691E00C94A11F85E729
:1025300091E00C94A11F0F931F93CF93DF93CDB71E
:10254000DEB727970FB6F894DEBF0FBECDBF1F9240
:102550008F938CE791E09F938F938E010F5F1F4FB6
:102560001F930F930E940F23C8010E94A11F0F9079
:102570000F900F900F900F900F9027960FB6F89432
:10258000DEBF0FBECDBFDF91CF911F910F91089598
:102590000F931F93CF93DF93CDB7DEB727970FB677
:1025A000F894DEBF0FBECDBF1F928F9385E891E0F8
:1025B0009F938F938E010F5F1F4F1F930F930E9466
:1025C0000F23C8010E94A11F0F900F900F900F9032
:1025D0000F900F9027960FB6F894DEBF0FBECDBFB9
:1025E000DF91CF911F910F9108950F931F93CF9378
:1025F000DF93CDB7DEB727970FB6F894DEBF0FBED7
:10260000CDBF1F928F938EE891E09F938F938E01A1
:102610000F5F1F4F1F930F930E940F23C8010E944B
:10262000A11F0F900F900F900F900F900F90279673
:102630000FB6F894DEBF0FBECDBFDF91CF911F91D3
:102640000F91089587E991E00C94A11F0F931F93B8
:10265000CF93DF93CDB7DEB727970FB6F894DEBFE1
:102660000FBECDBF1F928F938EE991E09F938F9302
:102670008E010F5F1F4F1F930F930E940F23C801FE
:102680000E94A11F0F900F900F900F900F900F902E
:1026900027960FB6F894DEBF0FBECDBFDF91CF9166
:1026A0001F910F9108950F931F93CF93DF93CDB791
:1026B000DEB727970FB6F894DEBF0FBECDBF1F92CF
:1026C0008F9387EA91E09F938F938E010F5F1F4F47
:1026D0001F930F930E940F23C8010E94A11F2FEF89
:1026E00080E792E0215080409040E1F700C0000078
:1026F0000F900F900F900F900F900F9027960FB69E
:10270000F894DEBF0FBECDBFDF91CF911F910F9127
:10271000089580EB91E00E94A11F2FEF81EE94E0DD
:10272000215080409040E1F700C00000089585E509
:1027300091E00C94A11F86EB91E00E94A11F2FEF66
:1027400081EE94E0215080409040E1F700C000000D
:102750008CEB91E00E94A11F2FEF80E792E02150C7
:1027600080409040E1F700C00000089582EC91E0C5
:102770000E94A11F2FEF83EC99E0215080409040F0
:10278000E1F700C00000089589EC91E00E94A11FCC
:102790002FEF81EE94E0215080409040E1F700C09F
:1027A00000008FEC91E00E94A11F2FEF89EF90E0D5
:1027B000215080409040E1F700C00000089586ED70
:1027C00091E00E94A11F2FEF81EE94E02150804004
:1027D0009040E1F700C000000895CF93DF93EC0133
:1027E0008CED91E00E94A11FCE010E94A11F8DE0FF
:1027F0000E94641F2FEF84E39CE0215080409040B2
:10280000E1F700C00000DF91CF91089580EE91E0E4
:102810000E94A11F2FEF81EE94E021508040904054
:10282000E1F700C00000089562E088EE91E00C94AA
:102830006A1062E08CEE91E00C946A1064E08FEE16
:1028400091E00C946A1062E084EF91E00C946A10BD
:1028500063E087EF91E00C946A1063E08BEF91E006
:102860000C946A1062E08FEF91E00C946A1062E0C1
:1028700082E092E00C946A1062E085E092E00C94B1
:102880006A1062E088E092E00C946A100F931F9344
:10289000CF93DF93CDB7DEB727970FB6F894DEBF9F
:1028A0000FBECDBF1F926F931F928F938BE092E06C
:1028B0009F938F938E010F5F1F4F1F930F930E9463
:1028C0000F23F80101900020E9F7BF016150710961
:1028D000601B710BC8010E946A100FB6F894DEBF2E
:1028E0000FBECDBF27960FB6F894DEBF0FBECDBF8B
:1028F000DF91CF911F910F91089562E083E192E003
:102900000C946A1062E086E192E00C946A100F93D6
:102910001F93CF93DF93CDB7DEB7A3970FB6F8948D
:10292000DEBF0FBECDBF482F50E04A33510508F03F
:1029300041C2FA01EC5CFF4F0C94BE210E944E1A7A
:102940008DE191E00E94061A62E08AE296E00E9420
:102950001C1A0E94441A80916D02882309F446C211
:1029600088E792E01CC064E08EED97E10E941C1A9B
:102970008DE191E00E94061A0E9419140E948913A9
:1029800084E00E94531384E00E949B120E94441A28
:1029900080916D02882309F429C28CE692E00E949E
:1029A0008D1C24C26DE08CED94E10E941C1A0E94E3
:1029B000131A84E00E94F5120E941E140E94441A09
:1029C00080916D02882309F411C282E692E0E7CF7C
:1029D00068E18CEC92E10E941C1A0E94131A0E947A
:1029E0009B1384E00E949B120E9428140E94441AA8
:1029F00080916D02882309F4F9C183E592E0CFCF7D
:102A000066E188EE90E10E941C1A0E94131A85E08C
:102A10000E94F5120E942D140E94441A80916D02AA
:102A2000882309F4E3C18EE392E0B9CF8AEF9FE0F7
:102A30000E94FC1961E282E19EE00E941C1A8DE175
:102A400091E00E94061A0E94B61381E10E94F512DD
:102A50000E9432140E94441A80916D02882309F466
:102A6000C5C183E292E09BCF64E086E897E10E94D3
:102A70001C1A89E091E00E94061A0E94C4130E9469
:102A800037148AE00E9453138AE00E949B120E942E
:102A9000441A80916D02882309F4A8C180E192E074
:102AA0007ECF8AEF9FE00E94FC196AE586E596E0FA
:102AB0000E941C1A0E94131A0E943C140E94B61312
:102AC0008EE20E949B120E94441A80916D0288231C
:102AD00009F48CC18DEF91E062CF0E944E1A8DE116
:102AE00091E00E94061A62E08AE296E00E941C1AB7
:102AF0000E94441A0E9422130E94411482E20E9402
:102B0000C8120E94DF1380916D02882309F46EC100
:102B10008BEE91E044CF8AEF9FE00E94FC190E9467
:102B2000131A6AE18EEE93E00E941C1A89E192E08A
:102B30000E94ED130E94B6130E9406140E942314F3
:102B400083E60E949B120E94441A80916D028823A2
:102B500009F44CC18AED91E022CF0E944E1A8DE11A
:102B600091E00E94061A62E08AE296E00E941C1A36
:102B70000E94441A0E946E120E9493120E948214B4
:102B80000E94131A80E00E94381280916D028823FF
:102B900009F42CC188EC91E002CF0E944E1A8DE11D
:102BA00091E00E94061A62E08AE296E00E941C1AF6
:102BB0000E94441A0E946E120E9497120E947D1475
:102BC0000E94131A80E00E94381280916D028823BF
:102BD00009F40CC181EB91E0E2CE81E08093B9026F
:102BE0008093BA028093BB028093BC0280916D02F5
:102BF000882309F4FBC087E991E0D1CE0E944E1AE8
:102C00008DE191E00E94061A62E08AE296E00E945D
:102C10001C1A0E94441A0E946E120E9493120E9473
:102C20007D140E94131A80E00E94381280916D0278
:102C3000882309F4DBC085E891E0B1CE0E944E1AEA
:102C40008DE191E00E94061A62E08AE296E00E941D
:102C50001C1A0E94441A0E946E120E9497120E942F
:102C60008F120E947D140E94131A80E00E94381275
:102C700080916D02882309F4B9C081E791E08FCE7D
:102C80000E9419140E94891383E00E949B1283E022
:102C90000E94531380916D02882309F4A7C08BE52D
:102CA00091E07DCE6AE08AEF95E10E941C1A81E3F3
:102CB00091E00E94061A0E9419140E94891384E070
:102CC0000E94531384E00E949B120E94441A809138
:102CD0006D02882309F48AC081E191E060CE68E04A
:102CE00086ED96E10E941C1A81E391E00E94061A8B
:102CF0000E94141482E00E94531382E00E949B12EF
:102D00000E94441A80916D02882309F46FC08DEFF0
:102D100090E045CE64E08EED97E10E941C1A8DE1B3
:102D200091E00E94061A32CE6DE08CED94E10E9493
:102D30001C1A0E94131A42CE68E18CEC92E10E94A8
:102D40001C1A0E94131A52CE66E188EE90E10E948E
:102D50001C1A0E94131A60CE61E282E19EE00E947A
:102D60001C1A8DE191E00E94061A0E94441A80917B
:102D70006D028823D9F18DE291E011CE64E086E8FE
:102D800097E10E941C1A89E091E00E94061A7FCE0A
:102D90006AE586E596E00E941C1A0E94131A80914B
:102DA0006D02882321F087E491E00E948D1C0E942F
:102DB000441A1CC01F928F9386E292E09F938F93D8
:102DC0008E010F5F1F4F1F930F930E940F230E94CE
:102DD000131A0F900F900F900F900F900F908091FB
:102DE0006E02882319F0C8010E94541CA3960FB6E6
:102DF000F894DEBF0FBECDBFDF91CF911F910F9131
:102E000008951F93CF93DF93EC01CB010E94AD2275
:102E1000182F69E472E0CE010E94D022892B51F470
:102E200089EE93E00E948D1C812FDF91CF911F913D
:102E30000C9487146CE472E0CE010E94D022892B9E
:102E400051F489EE93E00E948D1C812FDF91CF9188
:102E50001F910C94CA116FE472E0CE010E94D0223F
:102E6000892B51F489EE93E00E948D1C812FDF9114
:102E7000CF911F910C94F71162E572E0CE010E9490
:102E8000D022892B51F489EE93E00E948D1C812F72
:102E9000DF91CF911F910C942B1265E572E0CE016A
:102EA0000E94D022892B51F489EE93E00E948D1C60
:102EB000812FDF91CF911F910C94381268E572E059
:102EC000CE010E94D022892B51F489EE93E00E941A
:102ED0008D1C812FDF91CF911F910C945C128091FA
:102EE0006E02882339F08EE892E0DF91CF911F9136
:102EF0000C948D1CDF91CF911F910895CF93DF9398
:102F000000D000D000D0CDB7DEB7FC01653049F06D
:102F100080916E028823C9F08EE892E00E948D1C99
:102F200014C080818A33A1F781818C8382818D8353
:102F30001E828381898384818A831B82BE016F5FA5
:102F40007F4FCE0104960E94011726960FB6F89483
:102F5000DEBF0FBECDBFDF91CF910895FC01208170
:102F600001900020E9F7BF0161507109681B790BDE
:102F7000611103C089EE93E022C02632C1F038F41B
:102F8000243289F090F42132A1F40C947A102A337F
:102F900031F0203431F02A3261F40C9444100C9456
:102FA0007E170C9457100C946A100C948E100C948D
:102FB000411180916E02882321F082E493E00C9409
:102FC0008D1C0895CF93DF93CDB7DEB7C154D109DF
:102FD0000FB6F894DEBF0FBECDBF0E949C1B8EECD7
:102FE00093E00E948D1C80E393E00E948D1C60E8BA
:102FF00075E280E090E00E94FE1E88E893E00E9467
:10300000B61F0E94651D0E9436190E94F41981E0C6
:103010000E94F30E8DEB92E00E94BA183A9A429AFF
:1030200089E093E00E94BA1862E08AE296E00E948A
:103030001C1A0E94441A60E875E280E090E00E9449
:10304000C51F2FEF3BE782E9215030408040E1F778
:1030500000C000000E94740D9AEAE6EEF6E921E055
:103060009150E040F0402040D9F700000E94C50C8C
:1030700085EA93E00E948D1C88EB9BE090930A0305
:103080008093090398EBC92E9BE0D92E21E2A22E52
:10309000B12C0E94371C8823A9F0D0920A03C09259
:1030A00009030E94461C182F0E941F10BE016F5F6B
:1030B0007F4F812F0E942910882321F0CE01019695
:1030C0000E94AE170E941A0D0E941A1D7C0183EB0C
:1030D000882E82E0982E0FEB12E077247394F4018F
:1030E00061904F01F1E06F121EC027ECE21627E05D
:1030F000F206ACF0F8018081811115C0872D0E9485
:10310000011D019681F060ED77E0872D0E94DA1CA9
:10311000B092BE02A092BD02F801608204C0B70165
:10312000872D0E94DA1C73940F5F1F4FFBE07F1204
:10313000D6CF8091BD029091BE02892B09F0A9CF14
:103140000FEB12E091E0F80181918F01882371F07B
:103150006FEF7FEF892F22969FAF22970E94DA1C94
:10316000F8013197108222969FAD22979F5F9B3086
:1031700051F78FCFE4E1F3E020E030E0419151914D
:10318000452B49F4F901EE0FFF1FEC5EFC4F9183D4
:10319000808381E008952F5F3F4F2A30310571F71A
:1031A00080E00895E4E1F3E020E030E041915191C6
:1031B0004817590749F4F901EE0FFF1FEC5EFC4F69
:1031C0001182108281E008952F5F3F4F2A30310530
:1031D00069F780E0089520910D0330910E03232BB1
:1031E00079F020910F0330911003232B61F020918F
:1031F000110330911203232B81F4E2E0F0E005C0CB
:10320000E0E0F0E002C0E1E0F0E0EE0FFF1FE35F7E
:10321000FC4F9183808381E0089580E008952091A0
:103220000D0330910E032817390789F020910F0301
:10323000309110032817390769F02091110330915C
:1032400012032817390781F4E2E0F0E005C0E0E05E
:10325000F0E002C0E1E0F0E0EE0FFF1FE35FFC4FA3
:103260001182108281E0089580E008953B9A84B530
:10327000826084BD8FEC87BD16BCEEE6F0E08081F5
:103280008260808385B5846085BD789408951F929F
:103290000F920FB60F9211242F933F934F935F938A
:1032A0006F937F938F939F93AF93BF93CF93DF934E
:1032B000EF93FF9380918402823040F48FEC87BDBE
:1032C000809184028F5F809384027BC080ED87BDF4
:1032D0001092840280912B0390912C03019690937D
:1032E0002C0380932B03809128039091290301964E
:1032F0009093290380932803A4E1B3E0ED91FD911D
:10330000309749F080819181892B29F080819181CA
:1033100001979183808383E0A832B80779F7809181
:1033200013038F5F8093130380911303843611F48A
:1033300010921303809183028F5F809383028436FF
:1033400061F580910B0390910C03019690930C030F
:1033500080930B031092830280912A038F5F8093E6
:103360002A0380912A038C33C1F410922A0380919E
:103370002D038F5F80932D0380912D038C3369F48F
:1033800010922D0380912E038F5F80932E038091E6
:103390002E03883111F410922E0380912A0380FFAE
:1033A00004C0439ACDE0D3E006C04398FBCF83E04E
:1033B000C331D80731F0E991F9913097C1F30995FC
:1033C000F6CFFF91EF91DF91CF91BF91AF919F9198
:1033D0008F917F916F915F914F913F912F910F90BE
:1033E0000FBE0F901F90189581E99AE10E94EB188B
:1033F00089E593E00C94BA189093440380934303B7
:10340000089510924403109243030895EAE8F2E00D
:10341000DC012D913D91CD0121933193B2E0EE3944
:10342000FB07B1F70895EAE8F2E01192119282E009
:10343000EE39F807D1F70895CF93DF931092880201
:10344000109289029093870280938602609385028E
:10345000C0E0D0E08C2F8F5F0E94011D9E01220FE3
:10346000331FF901E15DFC4F91838083808191815D
:10347000F901EB5BFC4F918380832196CA30D10523
:1034800049F7DF91CF9108951092890281E08093EE
:103490008802089581E0809388020895109288023E
:1034A00010925A0310925903E0914303F0914403A0
:1034B000309709F00994089590918502891710F4C6
:1034C0008093890208950F931F93CF93DF938C010C
:1034D00026E1629F000D111D11240E5F1F4FC0E0F9
:1034E000D0E08C2F8F5FF80125913491FE01EE0F13
:1034F000FF1FEB5BFC4F31832083208131812F3F05
:103500003F4F21F46FEF7FEF0E94DA1C21960E5F90
:103510001F4FCA30D10529F7DF91CF911F910F912D
:103520000895EF92FF920F931F93CF93DF938091B3
:103530008802882309F4BEC0809186029091870298
:10354000892B09F4B7C00AE812E0C0E0D0E0F80126
:10355000619171918F01AE01440F551FDA01AB5B90
:10356000BC4F2D913C911197FA01E15DFC4F808198
:103570009181281B390B99F18C2F8F5F6115710593
:1035800029F0E080F180EF20E09459F4FA01EB5B40
:10359000FC4F20813181FA01E15DFC4F31832083B2
:1035A0001AC01216130644F4621773076CF42081D4
:1035B0003181260F371F0AC0261737072CF42081C8
:1035C0003181261B370B02C02D913C913183208322
:1035D000FA01E15DFC4F608171810E94DA1C219645
:1035E000CA30D10509F0B3CF8091590390915A03A5
:1035F000892B09F05FC06091890270918502462F86
:1036000050E0272F30E021503109809186029091BF
:10361000870242175307BCF40E94631A2091890263
:10362000E0918602F091870286E1289FE00DF11D6E
:1036300011248591949190935A03809359032F5F9D
:103640002093890237C0FC0126E1729FE00DF11D35
:1036500011247697259134916FEF670F232B99F4FE
:103660000E94631A1092880210928902E09143032B
:10367000F09144033097F1F0DF91CF911F910F91BA
:10368000FF90EF9009940E94631A80918502E6E111
:103690008E9FC00111244697E0918602F091870227
:1036A000E80FF91F8591949190935A0380935903E1
:1036B00010928902DF91CF911F910F91FF90EF90AF
:1036C0000895CF93CFB79C0140E050E084E0220FF3
:1036D000331F441F551F8A95D1F760E074E284EFD1
:1036E00090E00E947D21215031093093C500209344
:1036F000C400F8941092C00088E98093C10086E06D
:103700008093C2008091C6008091C00087FDFACFEF
:1037100080EC8093C000CFBF789440E46BE573E009
:1037200083EA93E00E948F0E4FEF6BEA73E08BE920
:1037300093E0CF910C948F0E80E895E20C94611B7E
:1037400080E895E20E94611B84E28093C2000895A4
:10375000E1ECF0E08081806880830895E1ECF0E0A6
:1037600080818F77808308951F920F920FB60F92FA
:1037700011242F938F939F93EF93FF932091C60073
:103780009091A3038091A4039817E8F4E091A70314
:10379000F091A803CF01019620832091AA03215024
:1037A00021F42091A403821B91092093AA039093F2
:1037B000A8038093A7039FB7F8948091A3038F5F1A
:1037C0008093A3039FBFFF91EF919F918F912F91C2
:1037D0000F900FBE0F901F9018951F920F920FB66B
:1037E0000F9211242F933F938F939F93EF93FF9307
:1037F00080919B03882301F1E0919D03F0919E034A
:10380000CF01019630812091A103215021F4209114
:103810009C03821B910990939E0380939D032093A8
:10382000A1039FB7F89480919B03815080939B03E1
:103830009FBF3093C60005C08091C1008F7D8093EB
:10384000C100FF91EF919F918F913F912F910F9028
:103850000FBE0F901F901895682F8BE993E00E9480
:10386000990EE1ECF0E0908190629083089583EAF4
:1038700093E00E94C70E08958BE993E00E94C70E63
:1038800021E0892B09F020E0822F089583EA93E05C
:103890000E94BC0E089583EA93E00E94BC0E089536
:1038A00083EA93E00C94B60EFF920F931F93CF938D
:1038B000DF938C01F12CE801CF0DD11D8881882385
:1038C00061F08FEFF81649F00E943C1C8823E1F369
:1038D00088810E942C1CF394EECFDF91CF911F9131
:1038E0000F91FF9008950F931F93CF93DF93EC01F7
:1038F00001E010E0FE01E10FF11D8081882339F025
:103900001F3F29F00E942C1C08231F5FF3CF802F3C
:10391000DF91CF911F910F9108951F93CF93DF9364
:10392000EC01FE011491112349F00E943C1C8823F4
:10393000E1F3812F0E942C1C2196F3CFDF91CF91D0
:103940001F9108958AE080939E0280E29EE4909306
:10395000850080938400EFE6F0E0808181608083C1
:103960007894E1E8F0E08081826080830895CF93CD
:10397000DF93E4EDF4E0C7ECD4E021E030E0A19186
:10398000B1914C91C901099002C0880F991F0A9406
:10399000E2F7809584238C9384E0E83EF80779F77A
:1039A00080916F008E7F80936F0010928100DF9175
:1039B000CF9108959FEF980F9A3010F5E82FF0E01F
:1039C00077FF09C0EE0FFF1FE855FB4F8FEF9FEF0A
:1039D000918380830895653C89E078073CF4643FD7
:1039E00081E078072CF464EF71E002C064EC79E0C8
:1039F000EE0FFF1FE855FB4F660F771F7183608343
:103A000008959FEF980F9A3078F4E82FF0E0EE0FCA
:103A1000FF1FE855FB4F808191818F3F2FEF920769
:103A200031F096958795089580E090E008958FEFA6
:103A30009FEF08958091D3048A3040F08FEF9FEF7D
:103A40009093F0048093EF049FEF08958091D30446
:103A5000811115C08091C204882389F08091ED0402
:103A60009091EE0497FD01969C0135952795309332
:103A7000F0042093EF041092C204C90108958091CC
:103A8000EF049091F004089580B78B7F80BFE1E848
:103A9000F0E080818F778083EFE6F0E080818F7D9A
:103AA000808320981092C6041092C5041092C4041A
:103AB0001092C3041092EC041092D3048FEF9FEF86
:103AC0009093F0048093EF040895CF93DF93EAEA94
:103AD000F4E08FEF9FEF8193919324E0E23CF207B3
:103AE000D1F78BE290E09093D5048093D404909327
:103AF000D7048093D6049093D9048093D8049093EC
:103B0000DB048093DA049093DD048093DC0485E287
:103B100090E09093DF048093DE049093E10480931F
:103B2000E0049093E3048093E2049093E50480938F
:103B3000E4049093E7048093E6049093E90480936F
:103B4000E8049093EB048093EA0432E03093C704D6
:103B500023E02093C80494E09093C90485E0809307
:103B6000CA0446E04093CB0441E04093CC04309338
:103B7000CD042093CE049093CF048093D0048BE0A7
:103B80008093D1048CE08093D204C7ECD4E0E4EDC0
:103B9000F4E021E030E0A191B1914C91C90109908C
:103BA00002C0880F991F0A94E2F7809584238C93B2
:103BB00084E0E83EF80779F7C7ECD4E0E4EDF4E000
:103BC00021E030E0A191B1914E91C901099002C06C
:103BD000880F991F0A94E2F7482B4C9384E0E83E43
:103BE000F80781F780916F008E7F80936F008AE0E5
:103BF00080939E021092800080E29EE49093850064
:103C0000809384000E94441DDF91CF910C94A21CEC
:103C1000E1E8F0E0808180648083B59A1092EC0442
:103C2000EFE6F0E0808180628083089580916F00EC
:103C30008F7D80936F008091EC048823A1F0109217
:103C4000D3048091C3049091C4042091C5043091A1
:103C5000C604821B930B9093EE048093ED0481E0E5
:103C60008093C20408958091D3048B3028F480910E
:103C7000D3048F5F8093D30408951F920F920FB6E1
:103C80000F9211242F933F934F935F936F937F93E2
:103C90008F939F93AF93BF93EF93FF9380919E0277
:103CA0008A3028F00E94161E10929E021FC0E091DA
:103CB0009E02F0E0EE0FFF1FEC52FB4FA081B1819E
:103CC0002C91E0919E02F0E0E953FB4F81E090E0FF
:103CD000008002C0880F991F0A94E2F78095822322
:103CE0008C9380919E028F5F80939E0280919E02B2
:103CF0008A3048F080E29EE49093850080938400AF
:103D00000E94081E37C0E0919E02F0E0EE0FFF1FF8
:103D1000E655FB4F80819181019631F1E0919E0241
:103D2000F0E0EE0FFF1FEC52FB4FA081B1812C9110
:103D3000E0919E02F0E0E953FB4F81E090E00080CB
:103D400002C0880F991F0A94E2F7282B2C93E09168
:103D50009E02F0E0EE0FFF1FE655FB4F8081918140
:103D600091958195910902C08CE09EEF909385001A
:103D700080938400FF91EF91BF91AF919F918F91BC
:103D80007F916F915F914F913F912F910F900FBE57
:103D90000F901F9018951F920F920FB60F9211243B
:103DA0008F939F93F8948091810086FF0FC080913C
:103DB0008600909187009093C6048093C5048091FB
:103DC00081008F7B80938100B59A10C0809186001E
:103DD000909187009093C4048093C30481E0809302
:103DE000EC0480916F008F7D80936F0078949F9199
:103DF0008F910F900FBE0F901F9018950F931F93E8
:103E00001092AE021092AD021092AC021092AB0270
:103E10001092AA021092A9021092A8021092A70270
:103E2000389A409AA6E3B8E140E050E0FD010591E0
:103E3000159125913491061717072807390709F0BE
:103E400039C08CE0849FF001859FF00D1124E65C61
:103E5000F74E859194919093AE028093AD028CE0E1
:103E6000849FF001859FF00D1124E45CF74E85914D
:103E700094919093AC028093AB028CE0849FF0010C
:103E8000859FF00D1124E25CF74E859194919093FB
:103E9000AA028093A9028CE0849FF001859FF00D17
:103EA0001124E05CF74E859194919093A802809341
:103EB000A70207C04F5F5F4F1C964C30510509F0B9
:103EC000B5CF1F910F9108952091A7023091A802BC
:103ED000232B09F435C05FB7F8944098E091A7020E
:103EE000F091A802359620E031972FEFEF3FF207CF
:103EF000D9F728E030E091E060E0492F482311F045
:103F0000409A01C04098E091A702F091A802462F84
:103F100031974FEFEF3FF407D9F7990F215031094F
:103F20002115310551F7409A5FBF78948091A7021F
:103F30009091A80220E001972FEF8F3F9207D9F7C9
:103F400008951F93CF93DF93EC0110E0FE01E10F82
:103F5000F11D8081882331F01F3F21F00E94641FF2
:103F60001F5FF4CFDF91CF911F910895CF93DF931F
:103F7000FC018491EF012196882321F00E94641FA7
:103F8000FE01F7CFDF91CF9108950F931F93109209
:103F9000A6021092A5021092A4021092A3021092FF
:103FA000A2021092A1021092A00210929F02399ACE
:103FB000419AA6E3B8E140E050E0FD01059115917A
:103FC00025913491061717072807390709F039C0DA
:103FD0008CE0849FF001859FF00D1124E65CF74E84
:103FE000859194919093A6028093A5028CE0849F82
:103FF000F001859FF00D1124E45CF74E85919491BA
:104000009093A4028093A3028CE0849FF001859F8B
:10401000F00D1124E25CF74E859194919093A202E9
:104020008093A1028CE0849FF001859FF00D112404
:10403000E05CF74E859194919093A00280939F024B
:1040400007C04F5F5F4F1C964C30510509F0B5CF4C
:104050001F910F91089520919F023091A002232B70
:1040600009F435C05FB7F8944198E0919F02F09150
:10407000A002359620E031972FEFEF3FF207D9F7F6
:1040800028E030E091E060E0492F482311F0419AA8
:1040900001C04198E0919F02F091A002462F319714
:1040A0004FEFEF3FF407D9F7990F21503109211550
:1040B000310551F7419A5FBF789480919F029091AA
:1040C000A00220E001972FEF8F3F9207D9F70895C4
:1040D0001F93CF93DF93EC0110E0FE01E10FF11D80
:1040E0008081882331F01F3F21F00E942B201F5F29
:1040F000F4CFDF91CF911F910895CF93DF93FC010F
:104100008491EF012196882321F00E942B20FE014B
:10411000F7CFDF91CF910895611571058105910564
:1041200011F00C94A4220895CF93DF9300D000D017
:10413000CDB7DEB79B01AC01611571058105910515
:1041400069F069833A834B835C830E949F222981B3
:104150003A814B815C810E949F2103C060E070E046
:10416000CB010F900F900F900F90DF91CF9108959A
:10417000CF92DF92EF92FF926B017C01621773077F
:104180008407950764F4CA01B9016C197D098E0989
:104190009F090E9494206C0D7D1D8E1D9F1DFF9018
:1041A000EF90DF90CF9008954F925F926F927F9241
:1041B000AF92BF92CF92DF92EF92FF920F931F9335
:1041C000CF93DF93CDB7DEB729013A01621B730BA2
:1041D000840B950B29893A894B895C892A193B09FB
:1041E0004C095D09298B3A8B4B8B5C8B9B01AC0195
:1041F00069897A898B899C890E945921E418F5087C
:1042000006091709A80197010E949F212A0D3B1D4D
:104210004C1D5D1DCA01B901DF91CF911F910F9116
:10422000FF90EF90DF90CF90BF90AF907F906F9016
:104230005F904F900895009711F00C9445220895D7
:10424000CF93DF93EC01009731F00E944022BE0132
:104250000E94692102C080E090E0DF91CF91089533
:10426000CF93DF93EC01861797073CF4CB018C1BAF
:104270009D0B0E9420218C0F9D1FDF91CF910895EF
:104280000F931F93FC01E61BF70B021B130BE09F20
:10429000C001E19F900DF09F900D1124461B570B1C
:1042A000BA010E946921CB01820F931F1F910F91C8
:1042B0000895DB018F939F930E94C421BF91AF911A
:1042C000A29F800D911DA39F900DB29F900D112470
:1042D000089597FB072E16F4009407D077FD09D0B8
:1042E0000E94CF2107FC05D03EF4909581959F4F09
:1042F0000895709561957F4F0895A1E21A2EAA1B2B
:10430000BB1BFD010DC0AA1FBB1FEE1FFF1FA21785
:10431000B307E407F50720F0A21BB30BE40BF50B82
:10432000661F771F881F991F1A9469F7609570950B
:10433000809590959B01AC01BD01CF010895052E9C
:1043400097FB1EF400940E94B62157FD07D00E94EF
:104350007D2107FC03D04EF40C94B6215095409576
:10436000309521953F4F4F4F5F4F08959095809521
:10437000709561957F4F8F4F9F4F0895EE0FFF1FF0
:104380000590F491E02D09940E94E321A59F900DE2
:10439000B49F900DA49F800D911D11240895AA1B18
:1043A000BB1B51E107C0AA1FBB1FA617B70710F020
:1043B000A61BB70B881F991F5A95A9F78095909552
:1043C000BC01CD010895A29FB001B39FC001A39F7E
:1043D000700D811D1124911DB29F700D811D11243E
:1043E000911D08958F929F92AF92BF92CF92DF92CC
:1043F000EF92FF92CF93DF93EC01688179818A81FC
:104400009B81611571058105910521F464E279EDC7
:104410008BE597E02DE133EF41E050E00E949F21D2
:1044200049015A019B01AC01A7EAB1E40E94C421F1
:104430006B017C01ACEEB4EFA50194010E94E7286A
:10444000C60ED71EE81EF91EF7FE06C081E0C81A88
:10445000D108E10880E8F80AC882D982EA82FB82A2
:10446000C6019F77DF91CF91FF90EF90DF90CF90C3
:10447000BF90AF909F908F9008950E94F221089571
:1044800080E091E00E94F2210895A0E0B0E08093E6
:10449000000190930101A0930201B09303010895DC
:1044A0008F929F92AF92BF92CF92DF92EF92FF9244
:1044B000CF93DF93EC01688179818A819B816115BB
:1044C00071058105910521F464E279ED8BE597E0B2
:1044D0002DE133EF41E050E00E949F2149015A0154
:1044E0009B01AC01A7EAB1E40E94C4216B017C01ED
:1044F000ACEEB4EFA50194010E94E728C60ED71ECA
:10450000E81EF91EF7FE06C081E0C81AD108E108CE
:1045100080E8F80AC882D982EA82FB82C701B60124
:104520009F77DF91CF91FF90EF90DF90CF90BF907A
:10453000AF909F908F9008950E945022089584E03C
:1045400091E00E9450220895609304017093050148
:1045500080930601909307010895FC01882799270D
:10456000E89421912032E9F3293010F02E30C8F37D
:104570002B3241F02D3239F4689404C00E94072395
:10458000820F911D219120532A30C0F31EF4909583
:1045900081959F4F08954EE552E00E94E0220895D4
:1045A000FB01DC018D91019080190110D9F3990B69
:1045B0000895FB01DC0101900D920020E1F70895C0
:1045C000FA01A191B081009719F41097E1F0CD01A3
:1045D000DC01CD010D90002011F4C00113C0FB01DE
:1045E0002191222319F02015D9F7F3CFFB01219156
:1045F000201519F41E92119606C02223C1F70D90C2
:104600000020A1F7D001FA01A193B08308957AE0C8
:10461000979F902D879F802D910D11240895AEE0D6
:10462000B0E0E5E1F3E20C94FA280D891E8986E0FA
:104630008C831A8309838FEF9FE79E838D83AE015E
:10464000475E5F4F6F89788DCE0101960E944A23A5
:10465000EF81F885E00FF11F10822E96E4E00C94B4
:104660001629AEE0B0E0E7E3F3E20C94FC2885E025
:104670008C838B899C899A838983AE01495E5F4FC5
:104680006D897E89CE0101960E949A262E96E2E0DF
:104690000C941829ACE0B0E0E0E5F3E20C94EC28CF
:1046A0007C016B018A01FC0117821682838181FFE4
:1046B000BDC1CE0101964C01F7019381F60193FD36
:1046C000859193FF81916F01882309F4ABC18532F5
:1046D00039F493FD859193FF81916F01853229F41F
:1046E000B70190E00E943828E7CF512C312C20E010
:1046F0002032A0F48B3269F030F4803259F08332EA
:1047000069F420612CC08D3239F0803339F4216096
:1047100026C02260246023C0286021C027FD27C056
:1047200030ED380F3A3078F426FF06C0FAE05F9E8D
:10473000300D1124532E13C08AE0389E300D112401
:10474000332E20620CC08E3221F426FD6BC1206412
:1047500006C08C3611F4206802C0883641F4F60198
:1047600093FD859193FF81916F018111C1CF982FA6
:104770009F7D9554933028F40C5F1F4FFFE3F9831E
:104780000DC0833631F0833771F0833509F05BC09B
:1047900022C0F801808189830E5F1F4F4424439417
:1047A000512C540115C03801F2E06F0E711CF80154
:1047B000A080B18026FF03C0652D70E002C06FEFBE
:1047C0007FEFC5012C870E94EF272C0183012C85E8
:1047D0002F77222E17C03801F2E06F0E711CF801FE
:1047E000A080B18026FF03C0652D70E002C06FEF8E
:1047F0007FEFC5012C870E94E4272C012C852068BF
:10480000222E830123FC1BC0832D90E048165906FD
:10481000B0F4B70180E290E00E9438283A94F4CFD7
:10482000F50127FC859127FE81915F01B70190E09A
:104830000E94382831103A94F1E04F1A510841147F
:10484000510471F7E5C0843611F0893639F5F80165
:1048500027FF07C060817181828193810C5F1F4FA8
:1048600008C060817181882777FD8095982F0E5F41
:104870001F4F2F76B22E97FF09C0909580957095A7
:1048800061957F4F8F4F9F4F2068B22E2AE030E016
:10489000A4010E948328A82EA81844C0853729F4B3
:1048A0002F7EB22E2AE030E025C0F22FF97FBF2EF6
:1048B0008F36C1F018F4883579F0B4C0803719F01C
:1048C000883721F0AFC02F2F2061B22EB4FE0DC06B
:1048D0008B2D8460B82E09C024FF0AC09F2F9660DC
:1048E000B92E06C028E030E005C020E130E002C06B
:1048F00020E132E0F801B7FE07C06081718182815A
:1049000093810C5F1F4F06C06081718180E090E051
:104910000E5F1F4FA4010E948328A82EA818FB2D0C
:10492000FF77BF2EB6FE0BC02B2D2E7FA51450F4A3
:10493000B4FE0AC0B2FC08C02B2D2E7E05C07A2C16
:104940002B2D03C07A2C01C0752C24FF0DC0FE0155
:10495000EA0DF11D8081803311F4297E09C022FF08
:1049600006C07394739404C0822F867809F0739400
:1049700023FD13C020FF06C05A2C731418F4530CE7
:104980005718732C731468F4B70180E290E02C87F9
:104990000E94382873942C85F5CF731410F43718BF
:1049A00001C0312C24FF12C0B70180E390E02C87B6
:1049B0000E9438282C8522FF17C021FF03C088E5FC
:1049C00090E002C088E790E0B7010CC0822F8678A3
:1049D00059F021FD02C080E201C08BE227FD8DE28B
:1049E000B70190E00E943828A51438F4B70180E39D
:1049F00090E00E9438285A94F7CFAA94F401EA0D67
:104A0000F11D8081B70190E00E943828A110F5CFF8
:104A1000332009F451CEB70180E290E00E9438289B
:104A20003A94F6CFF7018681978102C08FEF9FEF0E
:104A30002C96E2E10C94082920FD09C0FC0123FD1D
:104A400005C022FF02C073836283518340830895AF
:104A500044FD10C046FD10C0DB01FC01AA0FBB1FC6
:104A6000EE1FFF1F1094D1F76A0F7B1F8E1F9F1F31
:104A700031E003C033E001C034E0660F771F881FC8
:104A8000991F3150D1F7620F711D811D911D08953D
:104A90000F931F93CF93DF938C01C8010E94FA27D5
:104AA000EC0197FD08C00E94D127892BB1F7B8010E
:104AB000CE010E946A28CE01DF91CF911F910F9104
:104AC00008958F929F92AF92CF92DF92EF92FF92D2
:104AD0000F931F93CF93DF93EC01A62E4A01022F71
:104AE0000E94FA27AC0155274B32510521F04D3277
:104AF000510551F40068AA9411F480E067C0CE011A
:104B00000E94FA2797FDF9CF102F1D7F302F3073A9
:104B100001F58033F1F4FF24FA94FA0C09F442C051
:104B2000CE010E94FA2797FD3DC0382F3F7D3835D2
:104B300051F41264AA94AA94A9F1CE010E94FA2712
:104B400097FF07C02FC006FF02C0126001C01261AC
:104B5000AF2CC12CD12C760120ED280F283080F00D
:104B600014FF04C0BE010E946A2819C02A3040F018
:104B700016FFF8CF2F7D3FEE320F363098F72750D3
:104B8000412FC701B6010E9428256B017C011260EC
:104B9000AA9459F0CE010E94FA2797FFDDCF11FDAC
:104BA00004C0ABCFC12CD12C760117FF08C0F09404
:104BB000E094D094C094C11CD11CE11CF11C212FA5
:104BC000B701A601C4010E941C2581E0DF91CF91AD
:104BD0001F910F91FF90EF90DF90CF90AF909F903B
:104BE0008F900895A1E2B0E0E8EFF5E20C94F1288F
:104BF0005C017A018E010F5F1F4F680180E2D801CE
:104C00001D928A95E9F7F501738040E050E0812C10
:104C1000B0E0912C81E090E0F90173FCA59173FE66
:104C2000A1918F017A2F9F01A11103C080E090E034
:104C30007DC0AE3519F44115510559F1E92DF0E06B
:104C4000E417F5073CF4AD3569F1AD3219F4BB2337
:104C500019F103C0B11101C08A2EE72FE695E69540
:104C6000E69586010E0F111DF801A72FA7708C0184
:104C700002C0000F111FAA95E2F7D801B081BA2B2C
:104C8000B083781559F0781510F47F5FE6CF715036
:104C9000E4CF9924939403C0B1E001C0B0E04F5F2A
:104CA0005F4FBACFBB2319F08E8180628E83911043
:104CB00003C09924939415C0F601CE0181962081FA
:104CC00020952193E817F907D1F7F3CFE114F10408
:104CD00029F0D7018C93F70131967F01615001F1E2
:104CE000912CC50169A30E94FA2769A197FD16C0FE
:104CF000282F269526952695F601E20FF11D208195
:104D000030E0AC014770552702C0359527954A958C
:104D1000E2F720FDDBCFB5010E946A28911086CF13
:104D2000E114F10411F0D7011C92C801A196EDE045
:104D30000C940D294F925F927F928F929F92AF9227
:104D4000BF92CF92DF92EF92FF920F931F93CF9378
:104D5000DF931F92CDB7DEB78C012B017A01FC01E6
:104D600017821682A12CF801D380F201D3FC859121
:104D7000D3FE8191382F2F01882309F4FCC090E0E5
:104D800039830E94D1273981892B21F0C8010E94E3
:104D90004825E9CF353241F4F201D3FC3591D3FEF9
:104DA00031912F01353269F4C80139830E94FA2705
:104DB000398197FDDEC03817B1F2B8010E946A2828
:104DC000DAC03A3241F4D3FC3591D3FE31912F0150
:104DD000BB24B39401C0B12C712C20ED230F2A30D9
:104DE00090F4FB2DF260BF2E672D70E080E090E024
:104DF00040E20E942825762EF201D3FC3591D3FEA5
:104E000031912F01EACFB1FE03C0711003C0B3C0CE
:104E100077247A94383619F03C3661F014C0F201E8
:104E2000D3FC3591D3FE31912F01383661F4FB2D3F
:104E3000F860BF2E8B2D8460B82EF201D3FC359123
:104E4000D3FE31912F01332309F495C0632F70E015
:104E500086EC98E139830E94D9273981892B09F49E
:104E60008AC0B0FC07C0F701C080D180C70102969C
:104E70007C0102C0C12CD12C3E3651F4F801468190
:104E8000578160E070E02B2DC6010E941C256BCF7E
:104E90003336A1F4B1FC02C077247394C8010E9498
:104EA000FA2797FD66C0C114D10429F0F60180836A
:104EB000C60101966C017A9489F757C03B3559F4C5
:104EC0009201A601672DC8010E94F2252C010097CE
:104ED00009F04BC045C0C80139830E94482539817B
:104EE00097FD47C03F3669F128F4343631F1393641
:104EF00079F12BC0333769F03537F9F026C0C1148A
:104F0000D10429F0F6018082C60101966C017A94E1
:104F100071F0C8010E94FA274C0197FD08C00E9459
:104F2000D127892B61F3B801C4010E946A28C114FA
:104F3000D104D9F0F601108218C0FB2DF062BF2E0B
:104F400007C08B2D8061B82E03C09B2D9064B92EB5
:104F50002B2DA601672DC8010E946125811105C076
:104F6000F8018381807329F406C0B0FCFCCEA394C1
:104F7000FACEAA2019F08A2D90E002C08FEF9FEFA1
:104F80000F90DF91CF911F910F91FF90EF90DF90E5
:104F9000CF90BF90AF909F908F907F905F904F90F9
:104FA000089591110EC1803219F089508550D0F7C3
:104FB0000895FC010590061621F00020D9F7C001E4
:104FC00008953197CF010895FC010590615070401C
:104FD0000110D8F7809590958E0F9F1F0895FC01C2
:104FE0006150704001900110D8F7809590958E0F18
:104FF0009F1F0895CF93DF93EC012B8120FF33C0D7
:1050000026FF0AC02F7B2B838E819F8101969F8371
:105010008E838A8190E029C022FF0FC0E881F98148
:105020008081992787FD9095009719F420622B8342
:105030001AC03196F983E8830EC0EA85FB8509958D
:1050400097FF09C02B81019611F480E101C080E235
:10505000822B8B8308C02E813F812F5F3F4F3F8380
:105060002E83992702C08FEF9FEFDF91CF91089594
:105070000F931F93CF93DF93182F092FEB018B8191
:1050800081FD03C08FEF9FEF20C082FF10C04E81D3
:105090005F812C813D81421753077CF4E881F981BF
:1050A0009F012F5F3F4F39832883108306C0E88517
:1050B000F985812F0995892B29F72E813F812F5F53
:1050C0003F4F3F832E83812F902FDF91CF911F91F0
:1050D0000F910895FB01238120FF12C026FD10C00F
:1050E0008F3F3FEF930761F082832F7D20642383FE
:1050F00026813781215031093783268399270895E6
:105100008FEF9FEF0895FA01AA27283051F120313F
:1051100081F1E8946F936E7F6E5F7F4F8F4F9F4F4B
:10512000AF4FB1E03ED0B4E03CD0670F781F891F8D
:105130009A1FA11D680F791F8A1F911DA11D6A0F5B
:10514000711D811D911DA11D20D009F468943F910E
:105150002AE0269F11243019305D3193DEF6CF010D
:105160000895462F4770405D4193B3E00FD0C9F7D3
:10517000F6CF462F4F70405D4A3318F0495D31FD40
:105180004052419302D0A9F7EACFB4E0A695979593
:10519000879577956795BA95C9F700976105710569
:1051A00008959B01AC010A2E0694579547953795B3
:1051B0002795BA95C9F7620F731F841F951FA01D0D
:1051C0000895992788270895B7FF0C94C4210E9459
:1051D000C421821B930B08952F923F924F925F92AE
:1051E0006F927F928F929F92AF92BF92CF92DF92F7
:1051F000EF92FF920F931F93CF93DF93CDB7DEB75C
:10520000CA1BDB0B0FB6F894DEBF0FBECDBF0994EF
:105210002A88398848885F846E847D848C849B8446
:10522000AA84B984C884DF80EE80FD800C811B8154
:10523000AA81B981CE0FD11D0FB6F894DEBF0FBE83
:0A524000CDBFED010895F894FFCFF3
:10524A0001000000010000003209000900090009FC
:10525A00000900090009000900090009000F000FF0
:10526A00000F000F000F000F000F000F000F000FBC
:10527A00001900190019001900190019001900195C
:10528A0000190019001312070403191919192A48D9
:10529A003030300D00403054310D00257800256340
:1052AA00002564002575002A4F4E30300D002A5320
:1052BA005430300D002A524430300D002A46302531
:1052CA003032640D002A4631253032640D002A48F6
:1052DA0030253032640D002A524330310D002A4DF8
:1052EA004F253032640D002A4D46253032640D00B8
:1052FA00403054350D00403054320D0040305734A0
:10530A000D0040305439320D00403054340D004005
:10531A00305731300D00403054360D0040334D00C7
:10532A004033543130300D002433300024530024EC
:10533A003231330024440024333400243336002429
:10534A006300244600244300244C002425316425AC
:10535A0032640024520024730053544152205741AE
:10536A005253202020002853657175656E636520AD
:10537A0025303264206E6F7420696D706C656D65BE
:10538A006E74656429200D0A005345004F5000438E
:0E539A004C00524300535400484400050000EC
:00000001FF
